{
  "contractName": "LandRegistry",
  "abi": [
    {
      "constant": true,
      "inputs": [],
      "name": "name",
      "outputs": [
        {
          "name": "",
          "type": "string"
        }
      ],
      "payable": false,
      "stateMutability": "view",
      "type": "function"
    },
    {
      "constant": true,
      "inputs": [
        {
          "name": "",
          "type": "address"
        }
      ],
      "name": "isAdmin",
      "outputs": [
        {
          "name": "",
          "type": "bool"
        }
      ],
      "payable": false,
      "stateMutability": "view",
      "type": "function"
    },
    {
      "constant": true,
      "inputs": [],
      "name": "registrar",
      "outputs": [
        {
          "name": "",
          "type": "address"
        }
      ],
      "payable": false,
      "stateMutability": "view",
      "type": "function"
    },
    {
      "constant": true,
      "inputs": [
        {
          "name": "",
          "type": "address"
        },
        {
          "name": "",
          "type": "uint256"
        }
      ],
      "name": "adminLevel",
      "outputs": [
        {
          "name": "",
          "type": "bool"
        }
      ],
      "payable": false,
      "stateMutability": "view",
      "type": "function"
    },
    {
      "constant": true,
      "inputs": [],
      "name": "province",
      "outputs": [
        {
          "name": "",
          "type": "string"
        }
      ],
      "payable": false,
      "stateMutability": "view",
      "type": "function"
    },
    {
      "constant": false,
      "inputs": [
        {
          "name": "admin",
          "type": "address"
        },
        {
          "name": "level",
          "type": "uint256"
        }
      ],
      "name": "addAdmin",
      "outputs": [],
      "payable": false,
      "stateMutability": "nonpayable",
      "type": "function"
    },
    {
      "constant": true,
      "inputs": [],
      "name": "email",
      "outputs": [
        {
          "name": "",
          "type": "string"
        }
      ],
      "payable": false,
      "stateMutability": "view",
      "type": "function"
    },
    {
      "constant": true,
      "inputs": [],
      "name": "telephone",
      "outputs": [
        {
          "name": "",
          "type": "string"
        }
      ],
      "payable": false,
      "stateMutability": "view",
      "type": "function"
    },
    {
      "constant": true,
      "inputs": [
        {
          "name": "",
          "type": "address"
        }
      ],
      "name": "isRegistered",
      "outputs": [
        {
          "name": "",
          "type": "bool"
        }
      ],
      "payable": false,
      "stateMutability": "view",
      "type": "function"
    },
    {
      "constant": true,
      "inputs": [],
      "name": "addressInfo",
      "outputs": [
        {
          "name": "",
          "type": "string"
        }
      ],
      "payable": false,
      "stateMutability": "view",
      "type": "function"
    },
    {
      "constant": true,
      "inputs": [],
      "name": "fax",
      "outputs": [
        {
          "name": "",
          "type": "string"
        }
      ],
      "payable": false,
      "stateMutability": "view",
      "type": "function"
    },
    {
      "inputs": [
        {
          "name": "_name",
          "type": "string"
        },
        {
          "name": "_addressInfo",
          "type": "string"
        },
        {
          "name": "_province",
          "type": "string"
        },
        {
          "name": "_telephone",
          "type": "string"
        },
        {
          "name": "_fax",
          "type": "string"
        },
        {
          "name": "_email",
          "type": "string"
        }
      ],
      "payable": false,
      "stateMutability": "nonpayable",
      "type": "constructor"
    },
    {
      "anonymous": false,
      "inputs": [
        {
          "indexed": false,
          "name": "property",
          "type": "address"
        }
      ],
      "name": "PropertyCreated",
      "type": "event"
    },
    {
      "anonymous": false,
      "inputs": [
        {
          "indexed": false,
          "name": "identifier",
          "type": "uint256"
        },
        {
          "indexed": false,
          "name": "description",
          "type": "string"
        },
        {
          "indexed": false,
          "name": "document",
          "type": "address"
        },
        {
          "indexed": false,
          "name": "registrar",
          "type": "address"
        }
      ],
      "name": "DiaryBook",
      "type": "event"
    },
    {
      "anonymous": false,
      "inputs": [
        {
          "indexed": false,
          "name": "inscriptionType",
          "type": "uint8"
        },
        {
          "indexed": false,
          "name": "property",
          "type": "address"
        },
        {
          "indexed": false,
          "name": "identifier",
          "type": "uint256"
        },
        {
          "indexed": false,
          "name": "description",
          "type": "string"
        },
        {
          "indexed": false,
          "name": "document",
          "type": "address"
        }
      ],
      "name": "InscriptionBook",
      "type": "event"
    },
    {
      "anonymous": false,
      "inputs": [
        {
          "indexed": false,
          "name": "subject",
          "type": "address"
        },
        {
          "indexed": false,
          "name": "identifier",
          "type": "uint256"
        },
        {
          "indexed": false,
          "name": "description",
          "type": "string"
        },
        {
          "indexed": false,
          "name": "document",
          "type": "address"
        }
      ],
      "name": "IncapacitationBook",
      "type": "event"
    },
    {
      "anonymous": false,
      "inputs": [
        {
          "indexed": true,
          "name": "IDUFIR",
          "type": "uint256"
        },
        {
          "indexed": true,
          "name": "CRU",
          "type": "uint256"
        },
        {
          "indexed": false,
          "name": "firstRegistration",
          "type": "bool"
        },
        {
          "indexed": false,
          "name": "property",
          "type": "address"
        },
        {
          "indexed": false,
          "name": "owner",
          "type": "address"
        }
      ],
      "name": "PropertyRegistration",
      "type": "event"
    },
    {
      "constant": true,
      "inputs": [],
      "name": "getLandRegistryInfo",
      "outputs": [
        {
          "name": "",
          "type": "string"
        },
        {
          "name": "",
          "type": "string"
        },
        {
          "name": "",
          "type": "string"
        },
        {
          "name": "",
          "type": "string"
        },
        {
          "name": "",
          "type": "string"
        },
        {
          "name": "",
          "type": "string"
        },
        {
          "name": "",
          "type": "address"
        }
      ],
      "payable": false,
      "stateMutability": "view",
      "type": "function"
    },
    {
      "constant": false,
      "inputs": [
        {
          "name": "_registrar",
          "type": "address"
        }
      ],
      "name": "setRegistrar",
      "outputs": [],
      "payable": false,
      "stateMutability": "nonpayable",
      "type": "function"
    },
    {
      "constant": false,
      "inputs": [
        {
          "name": "identifier",
          "type": "uint256"
        },
        {
          "name": "description",
          "type": "string"
        },
        {
          "name": "document",
          "type": "address"
        }
      ],
      "name": "addPresentationEntry",
      "outputs": [],
      "payable": false,
      "stateMutability": "nonpayable",
      "type": "function"
    },
    {
      "constant": false,
      "inputs": [
        {
          "name": "property",
          "type": "address"
        },
        {
          "name": "identifier",
          "type": "uint256"
        },
        {
          "name": "description",
          "type": "string"
        },
        {
          "name": "document",
          "type": "address"
        }
      ],
      "name": "addInscriptionEntry",
      "outputs": [],
      "payable": false,
      "stateMutability": "nonpayable",
      "type": "function"
    },
    {
      "constant": false,
      "inputs": [
        {
          "name": "property",
          "type": "address"
        },
        {
          "name": "identifier",
          "type": "uint256"
        },
        {
          "name": "description",
          "type": "string"
        },
        {
          "name": "document",
          "type": "address"
        }
      ],
      "name": "addCancelationEntry",
      "outputs": [],
      "payable": false,
      "stateMutability": "nonpayable",
      "type": "function"
    },
    {
      "constant": false,
      "inputs": [
        {
          "name": "property",
          "type": "address"
        },
        {
          "name": "identifier",
          "type": "uint256"
        },
        {
          "name": "description",
          "type": "string"
        },
        {
          "name": "document",
          "type": "address"
        }
      ],
      "name": "addMarginalNoteEntry",
      "outputs": [],
      "payable": false,
      "stateMutability": "nonpayable",
      "type": "function"
    },
    {
      "constant": false,
      "inputs": [
        {
          "name": "subject",
          "type": "address"
        },
        {
          "name": "identifier",
          "type": "uint256"
        },
        {
          "name": "description",
          "type": "string"
        },
        {
          "name": "document",
          "type": "address"
        }
      ],
      "name": "addIncapacitationEntry",
      "outputs": [],
      "payable": false,
      "stateMutability": "nonpayable",
      "type": "function"
    },
    {
      "constant": false,
      "inputs": [
        {
          "name": "property",
          "type": "address"
        },
        {
          "name": "identifier",
          "type": "uint256"
        },
        {
          "name": "description",
          "type": "string"
        },
        {
          "name": "document",
          "type": "address"
        }
      ],
      "name": "register",
      "outputs": [],
      "payable": false,
      "stateMutability": "nonpayable",
      "type": "function"
    }
  ],
  "bytecode": "0x60806040523480156200001157600080fd5b50604051620026483803806200264883398101806040528101908080518201929190602001805182019291906020018051820192919060200180518201929190602001805182019291906020018051820192919050505060016000803373ffffffffffffffffffffffffffffffffffffffff1673ffffffffffffffffffffffffffffffffffffffff16815260200190815260200160002060006101000a81548160ff02191690831515021790555060018060003373ffffffffffffffffffffffffffffffffffffffff1673ffffffffffffffffffffffffffffffffffffffff168152602001908152602001600020600080815260200190815260200160002060006101000a81548160ff02191690831515021790555085600290805190602001906200013f929190620001c9565b50846003908051906020019062000158929190620001c9565b50836004908051906020019062000171929190620001c9565b5082600590805190602001906200018a929190620001c9565b508160069080519060200190620001a3929190620001c9565b508060079080519060200190620001bc929190620001c9565b5050505050505062000278565b828054600181600116156101000203166002900490600052602060002090601f016020900481019282601f106200020c57805160ff19168380011785556200023d565b828001600101855582156200023d579182015b828111156200023c5782518255916020019190600101906200021f565b5b5090506200024c919062000250565b5090565b6200027591905b808211156200027157600081600090555060010162000257565b5090565b90565b6123c080620002886000396000f300608060405260043610610107576000357c0100000000000000000000000000000000000000000000000000000000900463ffffffff16806306fdde031461010c5780630af270b61461019c57806324d7806c1461024f5780632b20e397146102aa57806331782702146103015780633297ed8d146105e0578063525b0083146106455780635df10c6b146106f85780636209cb631461078b5780637fcb29c91461081b578063820e93f51461086857806393acaa59146108f85780639431170514610988578063b10d8f3e14610a3b578063c3c5a54714610aee578063eb39f91414610b49578063ebed157714610bd9578063ef690ad414610c8c578063faab9d3914610d1c575b600080fd5b34801561011857600080fd5b50610121610d5f565b6040518080602001828103825283818151815260200191508051906020019080838360005b83811015610161578082015181840152602081019050610146565b50505050905090810190601f16801561018e5780820380516001836020036101000a031916815260200191505b509250505060405180910390f35b3480156101a857600080fd5b5061024d600480360381019080803573ffffffffffffffffffffffffffffffffffffffff16906020019092919080359060200190929190803590602001908201803590602001908080601f0160208091040260200160405190810160405280939291908181526020018383808284378201915050505050509192919290803573ffffffffffffffffffffffffffffffffffffffff169060200190929190505050610dfd565b005b34801561025b57600080fd5b50610290600480360381019080803573ffffffffffffffffffffffffffffffffffffffff169060200190929190505050610f82565b604051808215151515815260200191505060405180910390f35b3480156102b657600080fd5b506102bf610fa2565b604051808273ffffffffffffffffffffffffffffffffffffffff1673ffffffffffffffffffffffffffffffffffffffff16815260200191505060405180910390f35b34801561030d57600080fd5b50610316610fc8565b604051808060200180602001806020018060200180602001806020018873ffffffffffffffffffffffffffffffffffffffff1673ffffffffffffffffffffffffffffffffffffffff16815260200187810387528e818151815260200191508051906020019080838360005b8381101561039c578082015181840152602081019050610381565b50505050905090810190601f1680156103c95780820380516001836020036101000a031916815260200191505b5087810386528d818151815260200191508051906020019080838360005b838110156104025780820151818401526020810190506103e7565b50505050905090810190601f16801561042f5780820380516001836020036101000a031916815260200191505b5087810385528c818151815260200191508051906020019080838360005b8381101561046857808201518184015260208101905061044d565b50505050905090810190601f1680156104955780820380516001836020036101000a031916815260200191505b5087810384528b818151815260200191508051906020019080838360005b838110156104ce5780820151818401526020810190506104b3565b50505050905090810190601f1680156104fb5780820380516001836020036101000a031916815260200191505b5087810383528a818151815260200191508051906020019080838360005b83811015610534578082015181840152602081019050610519565b50505050905090810190601f1680156105615780820380516001836020036101000a031916815260200191505b50878103825289818151815260200191508051906020019080838360005b8381101561059a57808201518184015260208101905061057f565b50505050905090810190601f1680156105c75780820380516001836020036101000a031916815260200191505b509d505050505050505050505050505060405180910390f35b3480156105ec57600080fd5b5061062b600480360381019080803573ffffffffffffffffffffffffffffffffffffffff169060200190929190803590602001909291905050506113c1565b604051808215151515815260200191505060405180910390f35b34801561065157600080fd5b506106f6600480360381019080803573ffffffffffffffffffffffffffffffffffffffff16906020019092919080359060200190929190803590602001908201803590602001908080601f0160208091040260200160405190810160405280939291908181526020018383808284378201915050505050509192919290803573ffffffffffffffffffffffffffffffffffffffff1690602001909291905050506113f0565b005b34801561070457600080fd5b5061078960048036038101908080359060200190929190803590602001908201803590602001908080601f0160208091040260200160405190810160405280939291908181526020018383808284378201915050505050509192919290803573ffffffffffffffffffffffffffffffffffffffff169060200190929190505050611575565b005b34801561079757600080fd5b506107a0611704565b6040518080602001828103825283818151815260200191508051906020019080838360005b838110156107e05780820151818401526020810190506107c5565b50505050905090810190601f16801561080d5780820380516001836020036101000a031916815260200191505b509250505060405180910390f35b34801561082757600080fd5b50610866600480360381019080803573ffffffffffffffffffffffffffffffffffffffff169060200190929190803590602001909291905050506117a2565b005b34801561087457600080fd5b5061087d611925565b6040518080602001828103825283818151815260200191508051906020019080838360005b838110156108bd5780820151818401526020810190506108a2565b50505050905090810190601f1680156108ea5780820380516001836020036101000a031916815260200191505b509250505060405180910390f35b34801561090457600080fd5b5061090d6119c3565b6040518080602001828103825283818151815260200191508051906020019080838360005b8381101561094d578082015181840152602081019050610932565b50505050905090810190601f16801561097a5780820380516001836020036101000a031916815260200191505b509250505060405180910390f35b34801561099457600080fd5b50610a39600480360381019080803573ffffffffffffffffffffffffffffffffffffffff16906020019092919080359060200190929190803590602001908201803590602001908080601f0160208091040260200160405190810160405280939291908181526020018383808284378201915050505050509192919290803573ffffffffffffffffffffffffffffffffffffffff169060200190929190505050611a61565b005b348015610a4757600080fd5b50610aec600480360381019080803573ffffffffffffffffffffffffffffffffffffffff16906020019092919080359060200190929190803590602001908201803590602001908080601f0160208091040260200160405190810160405280939291908181526020018383808284378201915050505050509192919290803573ffffffffffffffffffffffffffffffffffffffff169060200190929190505050611e41565b005b348015610afa57600080fd5b50610b2f600480360381019080803573ffffffffffffffffffffffffffffffffffffffff169060200190929190505050611faf565b604051808215151515815260200191505060405180910390f35b348015610b5557600080fd5b50610b5e611fcf565b6040518080602001828103825283818151815260200191508051906020019080838360005b83811015610b9e578082015181840152602081019050610b83565b50505050905090810190601f168015610bcb5780820380516001836020036101000a031916815260200191505b509250505060405180910390f35b348015610be557600080fd5b50610c8a600480360381019080803573ffffffffffffffffffffffffffffffffffffffff16906020019092919080359060200190929190803590602001908201803590602001908080601f0160208091040260200160405190810160405280939291908181526020018383808284378201915050505050509192919290803573ffffffffffffffffffffffffffffffffffffffff16906020019092919050505061206d565b005b348015610c9857600080fd5b50610ca16121f2565b6040518080602001828103825283818151815260200191508051906020019080838360005b83811015610ce1578082015181840152602081019050610cc6565b50505050905090810190601f168015610d0e5780820380516001836020036101000a031916815260200191505b509250505060405180910390f35b348015610d2857600080fd5b50610d5d600480360381019080803573ffffffffffffffffffffffffffffffffffffffff169060200190929190505050612290565b005b60028054600181600116156101000203166002900480601f016020809104026020016040519081016040528092919081815260200182805460018160011615610100020316600290048015610df55780601f10610dca57610100808354040283529160200191610df5565b820191906000526020600020905b815481529060010190602001808311610dd857829003601f168201915b505050505081565b600860009054906101000a900473ffffffffffffffffffffffffffffffffffffffff1673ffffffffffffffffffffffffffffffffffffffff163373ffffffffffffffffffffffffffffffffffffffff16141515610e5957600080fd5b7f077dda6c4ce58502a43320769db36357dfbfbb3facd164c0d2054d037ac9a7eb60008585858560405180866002811115610e9057fe5b60ff1681526020018573ffffffffffffffffffffffffffffffffffffffff1673ffffffffffffffffffffffffffffffffffffffff168152602001848152602001806020018373ffffffffffffffffffffffffffffffffffffffff1673ffffffffffffffffffffffffffffffffffffffff168152602001828103825284818151815260200191508051906020019080838360005b83811015610f3e578082015181840152602081019050610f23565b50505050905090810190601f168015610f6b5780820380516001836020036101000a031916815260200191505b50965050505050505060405180910390a150505050565b60006020528060005260406000206000915054906101000a900460ff1681565b600860009054906101000a900473ffffffffffffffffffffffffffffffffffffffff1681565b6060806060806060806000600260036004600560066007600860009054906101000a900473ffffffffffffffffffffffffffffffffffffffff16868054600181600116156101000203166002900480601f0160208091040260200160405190810160405280929190818152602001828054600181600116156101000203166002900480156110975780601f1061106c57610100808354040283529160200191611097565b820191906000526020600020905b81548152906001019060200180831161107a57829003601f168201915b50505050509650858054600181600116156101000203166002900480601f0160208091040260200160405190810160405280929190818152602001828054600181600116156101000203166002900480156111335780601f1061110857610100808354040283529160200191611133565b820191906000526020600020905b81548152906001019060200180831161111657829003601f168201915b50505050509550848054600181600116156101000203166002900480601f0160208091040260200160405190810160405280929190818152602001828054600181600116156101000203166002900480156111cf5780601f106111a4576101008083540402835291602001916111cf565b820191906000526020600020905b8154815290600101906020018083116111b257829003601f168201915b50505050509450838054600181600116156101000203166002900480601f01602080910402602001604051908101604052809291908181526020018280546001816001161561010002031660029004801561126b5780601f106112405761010080835404028352916020019161126b565b820191906000526020600020905b81548152906001019060200180831161124e57829003601f168201915b50505050509350828054600181600116156101000203166002900480601f0160208091040260200160405190810160405280929190818152602001828054600181600116156101000203166002900480156113075780601f106112dc57610100808354040283529160200191611307565b820191906000526020600020905b8154815290600101906020018083116112ea57829003601f168201915b50505050509250818054600181600116156101000203166002900480601f0160208091040260200160405190810160405280929190818152602001828054600181600116156101000203166002900480156113a35780601f10611378576101008083540402835291602001916113a3565b820191906000526020600020905b81548152906001019060200180831161138657829003601f168201915b50505050509150965096509650965096509650965090919293949596565b60016020528160005260406000206020528060005260406000206000915091509054906101000a900460ff1681565b600860009054906101000a900473ffffffffffffffffffffffffffffffffffffffff1673ffffffffffffffffffffffffffffffffffffffff163373ffffffffffffffffffffffffffffffffffffffff1614151561144c57600080fd5b7f077dda6c4ce58502a43320769db36357dfbfbb3facd164c0d2054d037ac9a7eb6002858585856040518086600281111561148357fe5b60ff1681526020018573ffffffffffffffffffffffffffffffffffffffff1673ffffffffffffffffffffffffffffffffffffffff168152602001848152602001806020018373ffffffffffffffffffffffffffffffffffffffff1673ffffffffffffffffffffffffffffffffffffffff168152602001828103825284818151815260200191508051906020019080838360005b83811015611531578082015181840152602081019050611516565b50505050905090810190601f16801561155e5780820380516001836020036101000a031916815260200191505b50965050505050505060405180910390a150505050565b600860009054906101000a900473ffffffffffffffffffffffffffffffffffffffff1673ffffffffffffffffffffffffffffffffffffffff163373ffffffffffffffffffffffffffffffffffffffff161415156115d157600080fd5b7f85ab745dcbb35f0ef2596c74a028c7f0ba9928a1ffc0c46c59866ebbe18579d0838383600860009054906101000a900473ffffffffffffffffffffffffffffffffffffffff1660405180858152602001806020018473ffffffffffffffffffffffffffffffffffffffff1673ffffffffffffffffffffffffffffffffffffffff1681526020018373ffffffffffffffffffffffffffffffffffffffff1673ffffffffffffffffffffffffffffffffffffffff168152602001828103825285818151815260200191508051906020019080838360005b838110156116c25780820151818401526020810190506116a7565b50505050905090810190601f1680156116ef5780820380516001836020036101000a031916815260200191505b509550505050505060405180910390a1505050565b60048054600181600116156101000203166002900480601f01602080910402602001604051908101604052809291908181526020018280546001816001161561010002031660029004801561179a5780601f1061176f5761010080835404028352916020019161179a565b820191906000526020600020905b81548152906001019060200180831161177d57829003601f168201915b505050505081565b60008060003373ffffffffffffffffffffffffffffffffffffffff1673ffffffffffffffffffffffffffffffffffffffff16815260200190815260200160002060009054906101000a900460ff1680156118565750600160003373ffffffffffffffffffffffffffffffffffffffff1673ffffffffffffffffffffffffffffffffffffffff168152602001908152602001600020600082815260200190815260200160002060009054906101000a900460ff165b151561186157600080fd5b60016000808573ffffffffffffffffffffffffffffffffffffffff1673ffffffffffffffffffffffffffffffffffffffff16815260200190815260200160002060006101000a81548160ff02191690831515021790555060018060008573ffffffffffffffffffffffffffffffffffffffff1673ffffffffffffffffffffffffffffffffffffffff168152602001908152602001600020600084815260200190815260200160002060006101000a81548160ff021916908315150217905550505050565b60078054600181600116156101000203166002900480601f0160208091040260200160405190810160405280929190818152602001828054600181600116156101000203166002900480156119bb5780601f10611990576101008083540402835291602001916119bb565b820191906000526020600020905b81548152906001019060200180831161199e57829003601f168201915b505050505081565b60058054600181600116156101000203166002900480601f016020809104026020016040519081016040528092919081815260200182805460018160011615610100020316600290048015611a595780601f10611a2e57610100808354040283529160200191611a59565b820191906000526020600020905b815481529060010190602001808311611a3c57829003601f168201915b505050505081565b6000806000806000600860009054906101000a900473ffffffffffffffffffffffffffffffffffffffff1673ffffffffffffffffffffffffffffffffffffffff163373ffffffffffffffffffffffffffffffffffffffff16141515611ac557600080fd5b8894503073ffffffffffffffffffffffffffffffffffffffff168573ffffffffffffffffffffffffffffffffffffffff1663bd4dc0246040518163ffffffff167c0100000000000000000000000000000000000000000000000000000000028152600401602060405180830381600087803b158015611b4357600080fd5b505af1158015611b57573d6000803e3d6000fd5b505050506040513d6020811015611b6d57600080fd5b810190808051906020019092919050505073ffffffffffffffffffffffffffffffffffffffff16141515611ba057600080fd5b600960008a73ffffffffffffffffffffffffffffffffffffffff1673ffffffffffffffffffffffffffffffffffffffff16815260200190815260200160002060009054906101000a900460ff161593508473ffffffffffffffffffffffffffffffffffffffff16635de5f3be6040518163ffffffff167c0100000000000000000000000000000000000000000000000000000000028152600401600060405180830381600087803b158015611c5457600080fd5b505af1158015611c68573d6000803e3d6000fd5b505050506040513d6000823e3d601f19601f8201168201806040525060c0811015611c9257600080fd5b8101908080519060200190929190805190602001909291908051640100000000811115611cbe57600080fd5b82810190506020810184811115611cd457600080fd5b8151856001820283011164010000000082111715611cf157600080fd5b5050929190602001805190602001909291908051906020019092919080519060200190929190505050909192509050508093508194508295505050506001600960008b73ffffffffffffffffffffffffffffffffffffffff1673ffffffffffffffffffffffffffffffffffffffff16815260200190815260200160002060006101000a81548160ff02191690831515021790555081837facd67e61b3afe18cf0d7ec117ccf3e0bdefe980e4c0173821dc2e50e9a672168868c8560405180841515151581526020018373ffffffffffffffffffffffffffffffffffffffff1673ffffffffffffffffffffffffffffffffffffffff1681526020018273ffffffffffffffffffffffffffffffffffffffff1673ffffffffffffffffffffffffffffffffffffffff168152602001935050505060405180910390a3611e3689898989610dfd565b505050505050505050565b600860009054906101000a900473ffffffffffffffffffffffffffffffffffffffff1673ffffffffffffffffffffffffffffffffffffffff163373ffffffffffffffffffffffffffffffffffffffff16141515611e9d57600080fd5b7ff61f3ebd9559725763cc2618019ad34cc9933d2f52e84df5f9a74fc62e47f25a84848484604051808573ffffffffffffffffffffffffffffffffffffffff1673ffffffffffffffffffffffffffffffffffffffff168152602001848152602001806020018373ffffffffffffffffffffffffffffffffffffffff1673ffffffffffffffffffffffffffffffffffffffff168152602001828103825284818151815260200191508051906020019080838360005b83811015611f6c578082015181840152602081019050611f51565b50505050905090810190601f168015611f995780820380516001836020036101000a031916815260200191505b509550505050505060405180910390a150505050565b60096020528060005260406000206000915054906101000a900460ff1681565b60038054600181600116156101000203166002900480601f0160208091040260200160405190810160405280929190818152602001828054600181600116156101000203166002900480156120655780601f1061203a57610100808354040283529160200191612065565b820191906000526020600020905b81548152906001019060200180831161204857829003601f168201915b505050505081565b600860009054906101000a900473ffffffffffffffffffffffffffffffffffffffff1673ffffffffffffffffffffffffffffffffffffffff163373ffffffffffffffffffffffffffffffffffffffff161415156120c957600080fd5b7f077dda6c4ce58502a43320769db36357dfbfbb3facd164c0d2054d037ac9a7eb6001858585856040518086600281111561210057fe5b60ff1681526020018573ffffffffffffffffffffffffffffffffffffffff1673ffffffffffffffffffffffffffffffffffffffff168152602001848152602001806020018373ffffffffffffffffffffffffffffffffffffffff1673ffffffffffffffffffffffffffffffffffffffff168152602001828103825284818151815260200191508051906020019080838360005b838110156121ae578082015181840152602081019050612193565b50505050905090810190601f1680156121db5780820380516001836020036101000a031916815260200191505b50965050505050505060405180910390a150505050565b60068054600181600116156101000203166002900480601f0160208091040260200160405190810160405280929190818152602001828054600181600116156101000203166002900480156122885780601f1061225d57610100808354040283529160200191612288565b820191906000526020600020905b81548152906001019060200180831161226b57829003601f168201915b505050505081565b60008060003373ffffffffffffffffffffffffffffffffffffffff1673ffffffffffffffffffffffffffffffffffffffff16815260200190815260200160002060009054906101000a900460ff1680156123445750600160003373ffffffffffffffffffffffffffffffffffffffff1673ffffffffffffffffffffffffffffffffffffffff168152602001908152602001600020600082815260200190815260200160002060009054906101000a900460ff165b151561234f57600080fd5b81600860006101000a81548173ffffffffffffffffffffffffffffffffffffffff021916908373ffffffffffffffffffffffffffffffffffffffff16021790555050505600a165627a7a7230582094fe60f739c32dadbc309d61be814065fac443e4a1fc801648b7e4b725e930dc0029",
  "source": "pragma solidity ^0.4.17;\r\n\r\nimport \"./Property.sol\";\r\nimport \"./MultiAdmin.sol\";\r\n\r\ncontract LandRegistry is MultiAdmin {\r\n\r\n    enum InscriptionType { Inscription, Cancelation, MarginalNote }\r\n\r\n    event PropertyCreated(address property);\r\n    event DiaryBook(uint identifier, string description, address document, address registrar);\r\n    event InscriptionBook(InscriptionType inscriptionType, address property, uint identifier, string description, address document);\r\n    event IncapacitationBook(address subject, uint identifier, string description, address document);\r\n    event PropertyRegistration(uint indexed IDUFIR, uint indexed CRU, bool firstRegistration, address property, address owner);\r\n\r\n    string public name;\r\n    string public addressInfo; // Street - Town [Postcode]\r\n    string public province;\r\n    string public telephone;\r\n    string public fax;\r\n    string public email;\r\n    \r\n    address public registrar;\r\n\r\n    mapping (address => bool) public isRegistered;\r\n   \r\n\r\n    function LandRegistry(string _name, string _addressInfo, string _province, string _telephone, string _fax, string _email) public {\r\n        name = _name;\r\n        addressInfo = _addressInfo;\r\n        province = _province;\r\n        telephone = _telephone;\r\n        fax = _fax;\r\n        email = _email;\r\n    }\r\n\r\n    /***********************************************\r\n     *  Info getters\r\n     */\r\n\r\n\r\n    function getLandRegistryInfo() public view returns (string, string, string, string, string, string, address) {\r\n        return (name, addressInfo, province, telephone, fax, email, registrar);\r\n    }\r\n\r\n    /***********************************************\r\n     *  Land Registry Logics\r\n     */\r\n\r\n    function setRegistrar(address _registrar) public onlyAdmin(0) {\r\n        registrar = _registrar;\r\n    }\r\n\r\n    function addPresentationEntry(uint identifier, string description, address document) public onlyRegistrar {\r\n        emit DiaryBook(identifier, description, document, registrar);\r\n    }\r\n\r\n    function addInscriptionEntry(address property, uint identifier, string description, address document) public onlyRegistrar {\r\n        emit InscriptionBook(InscriptionType.Inscription, property, identifier, description, document);\r\n    }\r\n\r\n    function addCancelationEntry(address property, uint identifier, string description, address document) public onlyRegistrar {\r\n        emit InscriptionBook(InscriptionType.Cancelation, property, identifier, description, document);\r\n    }\r\n\r\n    function addMarginalNoteEntry(address property, uint identifier, string description, address document) public onlyRegistrar {\r\n        emit InscriptionBook(InscriptionType.MarginalNote, property, identifier, description, document);\r\n    }\r\n\r\n    function addIncapacitationEntry(address subject, uint identifier, string description, address document) public onlyRegistrar {\r\n        emit IncapacitationBook(subject, identifier, description, document);\r\n    }\r\n\r\n    function register(address property, uint identifier, string description, address document) public onlyRegistrar {\r\n        Property newProperty = Property(property);\r\n        require(newProperty.landRegistry() == address(this));\r\n        bool firstRegistration = !isRegistered[property];\r\n        uint IDUFIR;\r\n        uint CRU;\r\n        address owner;\r\n        (IDUFIR, CRU,, owner,,) = newProperty.getPropertyInfo();\r\n\r\n        isRegistered[property] = true;\r\n        emit PropertyRegistration(IDUFIR, CRU, firstRegistration, property, owner);\r\n        addInscriptionEntry(property, identifier, description, document);\r\n    }\r\n\r\n\r\n    modifier onlyRegistrar() {\r\n        require(msg.sender == registrar);\r\n        _;\r\n    }\r\n}",
  "sourcePath": "C:\\Users\\Elias\\Documents\\GitHub\\angular-tfg\\truffle\\contracts\\LandRegistry.sol",
  "compiler": {
    "name": "solc",
    "version": "0.4.24+commit.e67f0147.Emscripten.clang"
  },
  "schemaVersion": "2.0.0",
  "updatedAt": "2018-06-09T11:11:35.315Z"
}