{
  "contractName": "LandRegistry",
  "abi": [
    {
      "constant": true,
      "inputs": [],
      "name": "landRegistry",
      "outputs": [
        {
          "name": "autonomousCommunity",
          "type": "string"
        },
        {
          "name": "name",
          "type": "string"
        },
        {
          "name": "description",
          "type": "string"
        },
        {
          "name": "registrar",
          "type": "address"
        }
      ],
      "payable": false,
      "stateMutability": "view",
      "type": "function"
    },
    {
      "inputs": [
        {
          "name": "_autonomousCommunityName",
          "type": "string"
        },
        {
          "name": "_registryName",
          "type": "string"
        },
        {
          "name": "_registryDescription",
          "type": "string"
        }
      ],
      "payable": false,
      "stateMutability": "nonpayable",
      "type": "constructor"
    },
    {
      "anonymous": false,
      "inputs": [
        {
          "indexed": false,
          "name": "entryCode",
          "type": "uint256"
        },
        {
          "indexed": false,
          "name": "property",
          "type": "address"
        },
        {
          "indexed": false,
          "name": "description",
          "type": "string"
        },
        {
          "indexed": false,
          "name": "document",
          "type": "address"
        }
      ],
      "name": "EntrySubmission",
      "type": "event"
    },
    {
      "anonymous": false,
      "inputs": [
        {
          "indexed": false,
          "name": "property",
          "type": "address"
        },
        {
          "indexed": false,
          "name": "index",
          "type": "uint256"
        }
      ],
      "name": "PropertyRegistered",
      "type": "event"
    },
    {
      "constant": true,
      "inputs": [],
      "name": "getRegistrar",
      "outputs": [
        {
          "name": "registrar",
          "type": "address"
        }
      ],
      "payable": false,
      "stateMutability": "view",
      "type": "function"
    },
    {
      "constant": true,
      "inputs": [],
      "name": "getLandRegistryInfo",
      "outputs": [
        {
          "name": "autonomuousCommunity",
          "type": "string"
        },
        {
          "name": "name",
          "type": "string"
        },
        {
          "name": "description",
          "type": "string"
        },
        {
          "name": "registrar",
          "type": "address"
        }
      ],
      "payable": false,
      "stateMutability": "view",
      "type": "function"
    },
    {
      "constant": true,
      "inputs": [],
      "name": "getAllProperties",
      "outputs": [
        {
          "name": "",
          "type": "address[]"
        }
      ],
      "payable": false,
      "stateMutability": "view",
      "type": "function"
    },
    {
      "constant": true,
      "inputs": [],
      "name": "getNumberOfProperties",
      "outputs": [
        {
          "name": "",
          "type": "uint256"
        }
      ],
      "payable": false,
      "stateMutability": "view",
      "type": "function"
    },
    {
      "constant": true,
      "inputs": [
        {
          "name": "index",
          "type": "uint256"
        }
      ],
      "name": "getPropertyAt",
      "outputs": [
        {
          "name": "",
          "type": "address"
        }
      ],
      "payable": false,
      "stateMutability": "view",
      "type": "function"
    },
    {
      "constant": false,
      "inputs": [
        {
          "name": "entryCode",
          "type": "uint256"
        },
        {
          "name": "property",
          "type": "address"
        },
        {
          "name": "description",
          "type": "string"
        },
        {
          "name": "document",
          "type": "address"
        }
      ],
      "name": "registerEntry",
      "outputs": [],
      "payable": false,
      "stateMutability": "nonpayable",
      "type": "function"
    },
    {
      "constant": false,
      "inputs": [
        {
          "name": "_registrar",
          "type": "address"
        }
      ],
      "name": "nameRegistrar",
      "outputs": [],
      "payable": false,
      "stateMutability": "nonpayable",
      "type": "function"
    },
    {
      "constant": false,
      "inputs": [
        {
          "name": "IDUFIR",
          "type": "uint256"
        },
        {
          "name": "CRU",
          "type": "uint256"
        },
        {
          "name": "description",
          "type": "string"
        },
        {
          "name": "owner",
          "type": "address"
        }
      ],
      "name": "registerProperty",
      "outputs": [],
      "payable": false,
      "stateMutability": "nonpayable",
      "type": "function"
    }
  ],
  "bytecode": "0x60806040523480156200001157600080fd5b506040516200471c3803806200471c833981018060405281019080805182019291906020018051820192919060200180518201929190505050608060405190810160405280848152602001838152602001828152602001600073ffffffffffffffffffffffffffffffffffffffff1681525060026000820151816000019080519060200190620000a392919062000135565b506020820151816001019080519060200190620000c292919062000135565b506040820151816002019080519060200190620000e192919062000135565b5060608201518160030160006101000a81548173ffffffffffffffffffffffffffffffffffffffff021916908373ffffffffffffffffffffffffffffffffffffffff160217905550905050505050620001e4565b828054600181600116156101000203166002900490600052602060002090601f016020900481019282601f106200017857805160ff1916838001178555620001a9565b82800160010185558215620001a9579182015b82811115620001a85782518255916020019190600101906200018b565b5b509050620001b89190620001bc565b5090565b620001e191905b80821115620001dd576000816000905550600101620001c3565b5090565b90565b61452880620001f46000396000f300608060405260043610620000a3576000357c0100000000000000000000000000000000000000000000000000000000900463ffffffff1680631986020614620000a857806331782702146200015e5780633d51402c14620003055780634d3f7334146200037657806389bb482014620003d05780639b2608a51462000440578063bd4dc02414620004e0578063bdbd8d4f1462000687578063ccca357414620006cd575b600080fd5b348015620000b557600080fd5b506200015c60048036038101908080359060200190929190803573ffffffffffffffffffffffffffffffffffffffff169060200190929190803590602001908201803590602001908080601f0160208091040260200160405190810160405280939291908181526020018383808284378201915050505050509192919290803573ffffffffffffffffffffffffffffffffffffffff169060200190929190505050620006fb565b005b3480156200016b57600080fd5b506200017662000870565b604051808060200180602001806020018573ffffffffffffffffffffffffffffffffffffffff1673ffffffffffffffffffffffffffffffffffffffff168152602001848103845288818151815260200191508051906020019080838360005b83811015620001f2578082015181840152602081019050620001d5565b50505050905090810190601f168015620002205780820380516001836020036101000a031916815260200191505b50848103835287818151815260200191508051906020019080838360005b838110156200025b5780820151818401526020810190506200023e565b50505050905090810190601f168015620002895780820380516001836020036101000a031916815260200191505b50848103825286818151815260200191508051906020019080838360005b83811015620002c4578082015181840152602081019050620002a7565b50505050905090810190601f168015620002f25780820380516001836020036101000a031916815260200191505b5097505050505050505060405180910390f35b3480156200031257600080fd5b506200031d62000a99565b6040518080602001828103825283818151815260200191508051906020019060200280838360005b838110156200036257808201518184015260208101905062000345565b505050509050019250505060405180910390f35b3480156200038357600080fd5b506200038e62000b2b565b604051808273ffffffffffffffffffffffffffffffffffffffff1673ffffffffffffffffffffffffffffffffffffffff16815260200191505060405180910390f35b348015620003dd57600080fd5b50620003fe6004803603810190808035906020019092919050505062000b58565b604051808273ffffffffffffffffffffffffffffffffffffffff1673ffffffffffffffffffffffffffffffffffffffff16815260200191505060405180910390f35b3480156200044d57600080fd5b50620004de6004803603810190808035906020019092919080359060200190929190803590602001908201803590602001908080601f0160208091040260200160405190810160405280939291908181526020018383808284378201915050505050509192919290803573ffffffffffffffffffffffffffffffffffffffff16906020019092919050505062000b9e565b005b348015620004ed57600080fd5b50620004f862000df9565b604051808060200180602001806020018573ffffffffffffffffffffffffffffffffffffffff1673ffffffffffffffffffffffffffffffffffffffff168152602001848103845288818151815260200191508051906020019080838360005b838110156200057457808201518184015260208101905062000557565b50505050905090810190601f168015620005a25780820380516001836020036101000a031916815260200191505b50848103835287818151815260200191508051906020019080838360005b83811015620005dd578082015181840152602081019050620005c0565b50505050905090810190601f1680156200060b5780820380516001836020036101000a031916815260200191505b50848103825286818151815260200191508051906020019080838360005b838110156200064657808201518184015260208101905062000629565b50505050905090810190601f168015620006745780820380516001836020036101000a031916815260200191505b5097505050505050505060405180910390f35b3480156200069457600080fd5b50620006cb600480360381019080803573ffffffffffffffffffffffffffffffffffffffff1690602001909291905050506200100b565b005b348015620006da57600080fd5b50620006e562001052565b6040518082815260200191505060405180910390f35b600260030160009054906101000a900473ffffffffffffffffffffffffffffffffffffffff1673ffffffffffffffffffffffffffffffffffffffff163373ffffffffffffffffffffffffffffffffffffffff161415156200075b57600080fd5b7fd920c8bfa732d4ee5787e58b847ad77bcd3cc1d8c94cb2c668f34dddebe1129484848484604051808581526020018473ffffffffffffffffffffffffffffffffffffffff1673ffffffffffffffffffffffffffffffffffffffff168152602001806020018373ffffffffffffffffffffffffffffffffffffffff1673ffffffffffffffffffffffffffffffffffffffff168152602001828103825284818151815260200191508051906020019080838360005b838110156200082c5780820151818401526020810190506200080f565b50505050905090810190601f1680156200085a5780820380516001836020036101000a031916815260200191505b509550505050505060405180910390a150505050565b606080606060006002600001600260010160028001600260030160009054906101000a900473ffffffffffffffffffffffffffffffffffffffff16838054600181600116156101000203166002900480601f016020809104026020016040519081016040528092919081815260200182805460018160011615610100020316600290048015620009445780601f10620009185761010080835404028352916020019162000944565b820191906000526020600020905b8154815290600101906020018083116200092657829003601f168201915b50505050509350828054600181600116156101000203166002900480601f016020809104026020016040519081016040528092919081815260200182805460018160011615610100020316600290048015620009e45780601f10620009b857610100808354040283529160200191620009e4565b820191906000526020600020905b815481529060010190602001808311620009c657829003601f168201915b50505050509250818054600181600116156101000203166002900480601f01602080910402602001604051908101604052809291908181526020018280546001816001161561010002031660029004801562000a845780601f1062000a585761010080835404028352916020019162000a84565b820191906000526020600020905b81548152906001019060200180831162000a6657829003601f168201915b50505050509150935093509350935090919293565b60606000800180548060200260200160405190810160405280929190818152602001828054801562000b2157602002820191906000526020600020905b8160009054906101000a900473ffffffffffffffffffffffffffffffffffffffff1673ffffffffffffffffffffffffffffffffffffffff168152602001906001019080831162000ad6575b5050505050905090565b6000600260030160009054906101000a900473ffffffffffffffffffffffffffffffffffffffff16905090565b6000806000018281548110151562000b6c57fe5b9060005260206000200160009054906101000a900473ffffffffffffffffffffffffffffffffffffffff169050919050565b6000600260030160009054906101000a900473ffffffffffffffffffffffffffffffffffffffff1673ffffffffffffffffffffffffffffffffffffffff163373ffffffffffffffffffffffffffffffffffffffff1614151562000c0057600080fd5b848484843062000c0f62001061565b80868152602001858152602001806020018473ffffffffffffffffffffffffffffffffffffffff1673ffffffffffffffffffffffffffffffffffffffff1681526020018373ffffffffffffffffffffffffffffffffffffffff1673ffffffffffffffffffffffffffffffffffffffff168152602001828103825285818151815260200191508051906020019080838360005b8381101562000cbe57808201518184015260208101905062000ca1565b50505050905090810190601f16801562000cec5780820380516001836020036101000a031916815260200191505b509650505050505050604051809103906000f08015801562000d12573d6000803e3d6000fd5b509050600080018190806001815401808255809150509060018203906000526020600020016000909192909190916101000a81548173ffffffffffffffffffffffffffffffffffffffff021916908373ffffffffffffffffffffffffffffffffffffffff160217905550507f061780c73ddb20753c4ac9776b2c6e272e2a3edcf51cf578d6cc34e150372009816001600080018054905003604051808373ffffffffffffffffffffffffffffffffffffffff1673ffffffffffffffffffffffffffffffffffffffff1681526020018281526020019250505060405180910390a15050505050565b6002806000018054600181600116156101000203166002900480601f01602080910402602001604051908101604052809291908181526020018280546001816001161561010002031660029004801562000e975780601f1062000e6b5761010080835404028352916020019162000e97565b820191906000526020600020905b81548152906001019060200180831162000e7957829003601f168201915b505050505090806001018054600181600116156101000203166002900480601f01602080910402602001604051908101604052809291908181526020018280546001816001161561010002031660029004801562000f395780601f1062000f0d5761010080835404028352916020019162000f39565b820191906000526020600020905b81548152906001019060200180831162000f1b57829003601f168201915b505050505090806002018054600181600116156101000203166002900480601f01602080910402602001604051908101604052809291908181526020018280546001816001161561010002031660029004801562000fdb5780601f1062000faf5761010080835404028352916020019162000fdb565b820191906000526020600020905b81548152906001019060200180831162000fbd57829003601f168201915b5050505050908060030160009054906101000a900473ffffffffffffffffffffffffffffffffffffffff16905084565b80600260030160006101000a81548173ffffffffffffffffffffffffffffffffffffffff021916908373ffffffffffffffffffffffffffffffffffffffff16021790555050565b60008060000180549050905090565b60405161348a8062001073833901905600608060405234801561001057600080fd5b506040516200348a3803806200348a83398101806040528101908080519060200190929190805190602001909291908051820192919060200180519060200190929190805190602001909291905050506080604051908101604052808681526020018581526020018481526020018373ffffffffffffffffffffffffffffffffffffffff1681525060008082015181600001556020820151816001015560408201518160020190805190602001906100c992919061022b565b5060608201518160030160006101000a81548173ffffffffffffffffffffffffffffffffffffffff021916908373ffffffffffffffffffffffffffffffffffffffff1602179055509050506020604051908101604052808273ffffffffffffffffffffffffffffffffffffffff16815250600460008201518160000160006101000a81548173ffffffffffffffffffffffffffffffffffffffff021916908373ffffffffffffffffffffffffffffffffffffffff1602179055509050506040805190810160405280600015158152602001600073ffffffffffffffffffffffffffffffffffffffff16815250600560008201518160000160006101000a81548160ff02191690831515021790555060208201518160000160016101000a81548173ffffffffffffffffffffffffffffffffffffffff021916908373ffffffffffffffffffffffffffffffffffffffff16021790555090505050505050506102d0565b828054600181600116156101000203166002900490600052602060002090601f016020900481019282601f1061026c57805160ff191683800117855561029a565b8280016001018555821561029a579182015b8281111561029957825182559160200191906001019061027e565b5b5090506102a791906102ab565b5090565b6102cd91905b808211156102c95760008160009055506001016102b1565b5090565b90565b6131aa80620002e06000396000f3006080604052600436106100ba576000357c0100000000000000000000000000000000000000000000000000000000900463ffffffff1680630d034df9146100bf5780631a092541146101165780632714bfb9146101a6578063283a893c146102085780635cfbeb771461025f5780635de5f3be146103305780636d43542114610401578063893d20e8146104645780638a4068dd146104bb578063b462b23a1461051d578063efc1243a1461056a578063f4b9c73914610595575b600080fd5b3480156100cb57600080fd5b506100d46105c0565b604051808273ffffffffffffffffffffffffffffffffffffffff1673ffffffffffffffffffffffffffffffffffffffff16815260200191505060405180910390f35b34801561012257600080fd5b5061012b6105ed565b6040518080602001828103825283818151815260200191508051906020019080838360005b8381101561016b578082015181840152602081019050610150565b50505050905090810190601f1680156101985780820380516001836020036101000a031916815260200191505b509250505060405180910390f35b3480156101b257600080fd5b506101bb610692565b60405180831515151581526020018273ffffffffffffffffffffffffffffffffffffffff1673ffffffffffffffffffffffffffffffffffffffff1681526020019250505060405180910390f35b34801561021457600080fd5b5061021d6106d6565b604051808273ffffffffffffffffffffffffffffffffffffffff1673ffffffffffffffffffffffffffffffffffffffff16815260200191505060405180910390f35b34801561026b57600080fd5b50610274610702565b60405180858152602001848152602001806020018373ffffffffffffffffffffffffffffffffffffffff1673ffffffffffffffffffffffffffffffffffffffff168152602001828103825284818151815260200191508051906020019080838360005b838110156102f25780820151818401526020810190506102d7565b50505050905090810190601f16801561031f5780820380516001836020036101000a031916815260200191505b509550505050505060405180910390f35b34801561033c57600080fd5b506103456107d8565b60405180858152602001848152602001806020018373ffffffffffffffffffffffffffffffffffffffff1673ffffffffffffffffffffffffffffffffffffffff168152602001828103825284818151815260200191508051906020019080838360005b838110156103c35780820151818401526020810190506103a8565b50505050905090810190601f1680156103f05780820380516001836020036101000a031916815260200191505b509550505050505060405180910390f35b34801561040d57600080fd5b50610462600480360381019080803573ffffffffffffffffffffffffffffffffffffffff169060200190929190803573ffffffffffffffffffffffffffffffffffffffff1690602001909291905050506108bf565b005b34801561047057600080fd5b50610479610a60565b604051808273ffffffffffffffffffffffffffffffffffffffff1673ffffffffffffffffffffffffffffffffffffffff16815260200191505060405180910390f35b3480156104c757600080fd5b506104d0610a8c565b60405180831515151581526020018273ffffffffffffffffffffffffffffffffffffffff1673ffffffffffffffffffffffffffffffffffffffff1681526020019250505060405180910390f35b34801561052957600080fd5b5061056860048036038101908080359060200190929190803573ffffffffffffffffffffffffffffffffffffffff169060200190929190505050610acb565b005b34801561057657600080fd5b5061057f610e0f565b6040518082815260200191505060405180910390f35b3480156105a157600080fd5b506105aa610e1b565b6040518082815260200191505060405180910390f35b6000600460000160009054906101000a900473ffffffffffffffffffffffffffffffffffffffff16905090565b606060006002018054600181600116156101000203166002900480601f0160208091040260200160405190810160405280929190818152602001828054600181600116156101000203166002900480156106885780601f1061065d57610100808354040283529160200191610688565b820191906000526020600020905b81548152906001019060200180831161066b57829003601f168201915b5050505050905090565b600080600560000160009054906101000a900460ff16600560000160019054906101000a900473ffffffffffffffffffffffffffffffffffffffff16915091509091565b60048060000160009054906101000a900473ffffffffffffffffffffffffffffffffffffffff16905081565b6000806000015490806001015490806002018054600181600116156101000203166002900480601f0160208091040260200160405190810160405280929190818152602001828054600181600116156101000203166002900480156107a85780601f1061077d576101008083540402835291602001916107a8565b820191906000526020600020905b81548152906001019060200180831161078b57829003601f168201915b5050505050908060030160009054906101000a900473ffffffffffffffffffffffffffffffffffffffff16905084565b6000806060600080600001546000600101546000600201600060030160009054906101000a900473ffffffffffffffffffffffffffffffffffffffff16818054600181600116156101000203166002900480601f0160208091040260200160405190810160405280929190818152602001828054600181600116156101000203166002900480156108aa5780601f1061087f576101008083540402835291602001916108aa565b820191906000526020600020905b81548152906001019060200180831161088d57829003601f168201915b50505050509150935093509350935090919293565b600560000160019054906101000a900473ffffffffffffffffffffffffffffffffffffffff1673ffffffffffffffffffffffffffffffffffffffff163373ffffffffffffffffffffffffffffffffffffffff1614151561091e57600080fd5b600060030160009054906101000a900473ffffffffffffffffffffffffffffffffffffffff1673ffffffffffffffffffffffffffffffffffffffff168273ffffffffffffffffffffffffffffffffffffffff1614151561097d57600080fd5b80600060030160006101000a81548173ffffffffffffffffffffffffffffffffffffffff021916908373ffffffffffffffffffffffffffffffffffffffff1602179055506040805190810160405280600015158152602001600073ffffffffffffffffffffffffffffffffffffffff16815250600560008201518160000160006101000a81548160ff02191690831515021790555060208201518160000160016101000a81548173ffffffffffffffffffffffffffffffffffffffff021916908373ffffffffffffffffffffffffffffffffffffffff1602179055509050505050565b60008060030160009054906101000a900473ffffffffffffffffffffffffffffffffffffffff16905090565b60058060000160009054906101000a900460ff16908060000160019054906101000a900473ffffffffffffffffffffffffffffffffffffffff16905082565b600060030160009054906101000a900473ffffffffffffffffffffffffffffffffffffffff1673ffffffffffffffffffffffffffffffffffffffff163373ffffffffffffffffffffffffffffffffffffffff16141515610b2a57600080fd5b600073ffffffffffffffffffffffffffffffffffffffff16600560000160019054906101000a900473ffffffffffffffffffffffffffffffffffffffff1673ffffffffffffffffffffffffffffffffffffffff16141515610b8a57600080fd5b60408051908101604052806001151581526020013084600060030160009054906101000a900473ffffffffffffffffffffffffffffffffffffffff16600460000160009054906101000a900473ffffffffffffffffffffffffffffffffffffffff1673ffffffffffffffffffffffffffffffffffffffff16634d3f73346040518163ffffffff167c0100000000000000000000000000000000000000000000000000000000028152600401602060405180830381600087803b158015610c4f57600080fd5b505af1158015610c63573d6000803e3d6000fd5b505050506040513d6020811015610c7957600080fd5b810190808051906020019092919050505086610c93610e27565b808673ffffffffffffffffffffffffffffffffffffffff1673ffffffffffffffffffffffffffffffffffffffff1681526020018581526020018473ffffffffffffffffffffffffffffffffffffffff1673ffffffffffffffffffffffffffffffffffffffff1681526020018373ffffffffffffffffffffffffffffffffffffffff1673ffffffffffffffffffffffffffffffffffffffff1681526020018273ffffffffffffffffffffffffffffffffffffffff1673ffffffffffffffffffffffffffffffffffffffff16815260200195505050505050604051809103906000f080158015610d85573d6000803e3d6000fd5b5073ffffffffffffffffffffffffffffffffffffffff16815250600560008201518160000160006101000a81548160ff02191690831515021790555060208201518160000160016101000a81548173ffffffffffffffffffffffffffffffffffffffff021916908373ffffffffffffffffffffffffffffffffffffffff1602179055509050505050565b60008060000154905090565b60008060010154905090565b60405161234780610e38833901905600608060405234801561001057600080fd5b5060405160a08061234783398101806040528101908080519060200190929190805190602001909291908051906020019092919080519060200190929190805190602001909291905050508273ffffffffffffffffffffffffffffffffffffffff168573ffffffffffffffffffffffffffffffffffffffff1663893d20e86040518163ffffffff167c0100000000000000000000000000000000000000000000000000000000028152600401602060405180830381600087803b1580156100d657600080fd5b505af11580156100ea573d6000803e3d6000fd5b505050506040513d602081101561010057600080fd5b810190808051906020019092919050505073ffffffffffffffffffffffffffffffffffffffff1614151561013357600080fd5b84600160006101000a81548173ffffffffffffffffffffffffffffffffffffffff021916908373ffffffffffffffffffffffffffffffffffffffff1602179055508360028190555082600460000160006101000a81548173ffffffffffffffffffffffffffffffffffffffff021916908373ffffffffffffffffffffffffffffffffffffffff1602179055508360076001018190555081600b60000160006101000a81548173ffffffffffffffffffffffffffffffffffffffff021916908373ffffffffffffffffffffffffffffffffffffffff16021790555080600060016101000a81548173ffffffffffffffffffffffffffffffffffffffff021916908373ffffffffffffffffffffffffffffffffffffffff16021790555050505050506120e5806102626000396000f300608060405260043610610112576000357c0100000000000000000000000000000000000000000000000000000000900463ffffffff1680630588565f1461011757806307d76c391461015a57806308551a5314610171578063176fd3f0146101fb5780632b20e397146102525780632cca873b146102bf5780632dfb39fd146102ee57806347e79635146103455780637150d8ae14610374578063904c6094146103fe5780639c5320af1461048e5780639d54c79d146104da578063a035b1fe14610531578063a8816d651461055c578063b1c9fe6e146105e2578063bbf898031461061b578063d2753dcc1461065e578063da52ede6146106c7578063dc9f21c11461074d578063ea8a1af0146107b6575b600080fd5b34801561012357600080fd5b50610158600480360381019080803573ffffffffffffffffffffffffffffffffffffffff1690602001909291905050506107cd565b005b34801561016657600080fd5b5061016f610866565b005b34801561017d57600080fd5b50610186610d1d565b604051808773ffffffffffffffffffffffffffffffffffffffff1673ffffffffffffffffffffffffffffffffffffffff16815260200186815260200185151515158152602001841515151581526020018315151515815260200182151515158152602001965050505050505060405180910390f35b34801561020757600080fd5b50610210610d9b565b604051808273ffffffffffffffffffffffffffffffffffffffff1673ffffffffffffffffffffffffffffffffffffffff16815260200191505060405180910390f35b34801561025e57600080fd5b50610267610dc1565b604051808473ffffffffffffffffffffffffffffffffffffffff1673ffffffffffffffffffffffffffffffffffffffff1681526020018315151515815260200182151515158152602001935050505060405180910390f35b3480156102cb57600080fd5b506102ec600480360381019080803515159060200190929190505050610e13565b005b3480156102fa57600080fd5b506103036112c4565b604051808273ffffffffffffffffffffffffffffffffffffffff1673ffffffffffffffffffffffffffffffffffffffff16815260200191505060405180910390f35b34801561035157600080fd5b506103726004803603810190808035151590602001909291905050506112ea565b005b34801561038057600080fd5b506103896114fc565b604051808773ffffffffffffffffffffffffffffffffffffffff1673ffffffffffffffffffffffffffffffffffffffff16815260200186815260200185151515158152602001841515151581526020018315151515815260200182151515158152602001965050505050505060405180910390f35b34801561040a57600080fd5b5061041361157a565b6040518080602001828103825283818151815260200191508051906020019080838360005b83811015610453578082015181840152602081019050610438565b50505050905090810190601f1680156104805780820380516001836020036101000a031916815260200191505b509250505060405180910390f35b34801561049a57600080fd5b506104a3611618565b6040518085815260200184151515158152602001831515151581526020018215151515815260200194505050505060405180910390f35b3480156104e657600080fd5b506104ef611686565b604051808273ffffffffffffffffffffffffffffffffffffffff1673ffffffffffffffffffffffffffffffffffffffff16815260200191505060405180910390f35b34801561053d57600080fd5b506105466116b2565b6040518082815260200191505060405180910390f35b34801561056857600080fd5b506105716116b8565b604051808773ffffffffffffffffffffffffffffffffffffffff1673ffffffffffffffffffffffffffffffffffffffff168152602001868152602001858152602001841515151581526020018315151515815260200182151515158152602001965050505050505060405180910390f35b3480156105ee57600080fd5b506105f76118c3565b6040518082600781111561060757fe5b60ff16815260200191505060405180910390f35b34801561062757600080fd5b5061065c600480360381019080803573ffffffffffffffffffffffffffffffffffffffff1690602001909291905050506118d5565b005b34801561066a57600080fd5b506106c5600480360381019080803590602001908201803590602001908080601f0160208091040260200160405190810160405280939291908181526020018383808284378201915050505050509192919290505050611964565b005b3480156106d357600080fd5b506106dc6119e1565b604051808773ffffffffffffffffffffffffffffffffffffffff1673ffffffffffffffffffffffffffffffffffffffff168152602001868152602001858152602001841515151581526020018315151515815260200182151515158152602001965050505050505060405180910390f35b34801561075957600080fd5b506107b4600480360381019080803590602001908201803590602001908080601f0160208091040260200160405190810160405280939291908181526020018383808284378201915050505050509192919290505050611bec565b005b3480156107c257600080fd5b506107cb611dbd565b005b60008060078111156107db57fe5b6000809054906101000a900460ff1660078111156107f557fe5b14151561080157600080fd5b610809611e20565b151561081457600080fd5b81600a60000160006101000a81548173ffffffffffffffffffffffffffffffffffffffff021916908373ffffffffffffffffffffffffffffffffffffffff1602179055506108626001611e7b565b5050565b61086e611f03565b8061087d575061087c611e20565b5b151561088857600080fd5b600380600781111561089657fe5b6000809054906101000a900460ff1660078111156108b057fe5b1415156108bc57600080fd5b7f737c69225d647e5994eab1a6c301bf6d9232beb2759ae1e27a8966b4732bc48933600060019054906101000a900473ffffffffffffffffffffffffffffffffffffffff1673ffffffffffffffffffffffffffffffffffffffff1663dd62ed3e33306040518363ffffffff167c0100000000000000000000000000000000000000000000000000000000028152600401808373ffffffffffffffffffffffffffffffffffffffff1673ffffffffffffffffffffffffffffffffffffffff1681526020018273ffffffffffffffffffffffffffffffffffffffff1673ffffffffffffffffffffffffffffffffffffffff16815260200192505050602060405180830381600087803b1580156109cf57600080fd5b505af11580156109e3573d6000803e3d6000fd5b505050506040513d60208110156109f957600080fd5b8101908080519060200190929190505050604051808373ffffffffffffffffffffffffffffffffffffffff1673ffffffffffffffffffffffffffffffffffffffff1681526020018281526020019250505060405180910390a1600760010154600060019054906101000a900473ffffffffffffffffffffffffffffffffffffffff1673ffffffffffffffffffffffffffffffffffffffff1663dd62ed3e600760000160009054906101000a900473ffffffffffffffffffffffffffffffffffffffff16306040518363ffffffff167c0100000000000000000000000000000000000000000000000000000000028152600401808373ffffffffffffffffffffffffffffffffffffffff1673ffffffffffffffffffffffffffffffffffffffff1681526020018273ffffffffffffffffffffffffffffffffffffffff1673ffffffffffffffffffffffffffffffffffffffff16815260200192505050602060405180830381600087803b158015610b6e57600080fd5b505af1158015610b82573d6000803e3d6000fd5b505050506040513d6020811015610b9857600080fd5b8101908080519060200190929190505050148015610d0a5750600460010154600060019054906101000a900473ffffffffffffffffffffffffffffffffffffffff1673ffffffffffffffffffffffffffffffffffffffff1663dd62ed3e600460000160009054906101000a900473ffffffffffffffffffffffffffffffffffffffff16306040518363ffffffff167c0100000000000000000000000000000000000000000000000000000000028152600401808373ffffffffffffffffffffffffffffffffffffffff1673ffffffffffffffffffffffffffffffffffffffff1681526020018273ffffffffffffffffffffffffffffffffffffffff1673ffffffffffffffffffffffffffffffffffffffff16815260200192505050602060405180830381600087803b158015610ccd57600080fd5b505af1158015610ce1573d6000803e3d6000fd5b505050506040513d6020811015610cf757600080fd5b8101908080519060200190929190505050145b15610d1a57610d196004611e7b565b5b50565b60048060000160009054906101000a900473ffffffffffffffffffffffffffffffffffffffff16908060010154908060020160009054906101000a900460ff16908060020160019054906101000a900460ff16908060020160029054906101000a900460ff16908060020160039054906101000a900460ff16905086565b600160009054906101000a900473ffffffffffffffffffffffffffffffffffffffff1681565b600b8060000160009054906101000a900473ffffffffffffffffffffffffffffffffffffffff16908060000160149054906101000a900460ff16908060000160159054906101000a900460ff16905083565b610e1b611f5e565b1515610e2657600080fd5b6005806007811115610e3457fe5b6000809054906101000a900460ff166007811115610e4e57fe5b141515610e5a57600080fd5b81600b60000160156101000a81548160ff0219169083151502179055506001600b60000160146101000a81548160ff021916908315150217905550610e9f6006611e7b565b811561117d57600160009054906101000a900473ffffffffffffffffffffffffffffffffffffffff1673ffffffffffffffffffffffffffffffffffffffff16636d435421600460000160009054906101000a900473ffffffffffffffffffffffffffffffffffffffff16600760000160009054906101000a900473ffffffffffffffffffffffffffffffffffffffff166040518363ffffffff167c0100000000000000000000000000000000000000000000000000000000028152600401808373ffffffffffffffffffffffffffffffffffffffff1673ffffffffffffffffffffffffffffffffffffffff1681526020018273ffffffffffffffffffffffffffffffffffffffff1673ffffffffffffffffffffffffffffffffffffffff16815260200192505050600060405180830381600087803b158015610fe057600080fd5b505af1158015610ff4573d6000803e3d6000fd5b50505050600060019054906101000a900473ffffffffffffffffffffffffffffffffffffffff1673ffffffffffffffffffffffffffffffffffffffff166323b872dd600760000160009054906101000a900473ffffffffffffffffffffffffffffffffffffffff16600460000160009054906101000a900473ffffffffffffffffffffffffffffffffffffffff166007600101546040518463ffffffff167c0100000000000000000000000000000000000000000000000000000000028152600401808473ffffffffffffffffffffffffffffffffffffffff1673ffffffffffffffffffffffffffffffffffffffff1681526020018373ffffffffffffffffffffffffffffffffffffffff1673ffffffffffffffffffffffffffffffffffffffff1681526020018281526020019350505050602060405180830381600087803b15801561114057600080fd5b505af1158015611154573d6000803e3d6000fd5b505050506040513d602081101561116a57600080fd5b8101908080519060200190929190505050505b7f5be054805b83147c6c25ca72206a773c7c1f2d4fe187488e466e10ec172f5532600160009054906101000a900473ffffffffffffffffffffffffffffffffffffffff1683600460000160009054906101000a900473ffffffffffffffffffffffffffffffffffffffff16600760000160009054906101000a900473ffffffffffffffffffffffffffffffffffffffff16604051808573ffffffffffffffffffffffffffffffffffffffff1673ffffffffffffffffffffffffffffffffffffffff168152602001841515151581526020018373ffffffffffffffffffffffffffffffffffffffff1673ffffffffffffffffffffffffffffffffffffffff1681526020018273ffffffffffffffffffffffffffffffffffffffff1673ffffffffffffffffffffffffffffffffffffffff16815260200194505050505060405180910390a15050565b600060019054906101000a900473ffffffffffffffffffffffffffffffffffffffff1681565b6112f2611f03565b806113015750611300611e20565b5b151561130c57600080fd5b600480600781111561131a57fe5b6000809054906101000a900460ff16600781111561133457fe5b14151561134057600080fd5b611348611f03565b156113ac57600460020160029054906101000a900460ff1615151561136c57600080fd5b81600460020160036101000a81548160ff0219169083151502179055506001600460020160026101000a81548160ff021916908315150217905550611415565b6113b4611e20565b1561141457600760020160029054906101000a900460ff161515156113d857600080fd5b81600760020160036101000a81548160ff0219169083151502179055506001600760020160026101000a81548160ff0219169083151502179055505b5b7f6987327e18ad4f4fbe7093291548072eaba4360344060c1852238a6876b6bdb73383604051808373ffffffffffffffffffffffffffffffffffffffff1673ffffffffffffffffffffffffffffffffffffffff168152602001821515151581526020019250505060405180910390a1600760020160029054906101000a900460ff1680156114b25750600760020160039054906101000a900460ff165b80156114cd5750600460020160029054906101000a900460ff165b80156114e85750600460020160039054906101000a900460ff165b156114f8576114f76005611e7b565b5b5050565b60078060000160009054906101000a900473ffffffffffffffffffffffffffffffffffffffff16908060010154908060020160009054906101000a900460ff16908060020160019054906101000a900460ff16908060020160029054906101000a900460ff16908060020160039054906101000a900460ff16905086565b60038054600181600116156101000203166002900480601f0160208091040260200160405190810160405280929190818152602001828054600181600116156101000203166002900480156116105780601f106115e557610100808354040283529160200191611610565b820191906000526020600020905b8154815290600101906020018083116115f357829003601f168201915b505050505081565b6000806000806000809054906101000a900460ff16600781111561163857fe5b6000600380546001816001161561010002031660029004905011600b60000160149054906101000a900460ff16600b60000160159054906101000a900460ff16935093509350935090919293565b600a8060000160009054906101000a900473ffffffffffffffffffffffffffffffffffffffff16905081565b60025481565b600080600080600080600760000160009054906101000a900473ffffffffffffffffffffffffffffffffffffffff16600760010154600360078111156116fa57fe5b6000809054906101000a900460ff16600781111561171457fe5b1161186f57600060019054906101000a900473ffffffffffffffffffffffffffffffffffffffff1673ffffffffffffffffffffffffffffffffffffffff1663dd62ed3e600760000160009054906101000a900473ffffffffffffffffffffffffffffffffffffffff16306040518363ffffffff167c0100000000000000000000000000000000000000000000000000000000028152600401808373ffffffffffffffffffffffffffffffffffffffff1673ffffffffffffffffffffffffffffffffffffffff1681526020018273ffffffffffffffffffffffffffffffffffffffff1673ffffffffffffffffffffffffffffffffffffffff16815260200192505050602060405180830381600087803b15801561182f57600080fd5b505af1158015611843573d6000803e3d6000fd5b505050506040513d602081101561185957600080fd5b8101908080519060200190929190505050611876565b6007600101545b600760020160019054906101000a900460ff16600760020160029054906101000a900460ff16600760020160039054906101000a900460ff16955095509550955095509550909192939495565b6000809054906101000a900460ff1681565b60008060078111156118e357fe5b6000809054906101000a900460ff1660078111156118fd57fe5b14151561190957600080fd5b611911611f03565b151561191c57600080fd5b81600760000160006101000a81548173ffffffffffffffffffffffffffffffffffffffff021916908373ffffffffffffffffffffffffffffffffffffffff1602179055505050565b61196c611fb9565b151561197757600080fd5b600180600781111561198557fe5b6000809054906101000a900460ff16600781111561199f57fe5b1415156119ab57600080fd5b60008251141515156119bc57600080fd5b81600390805190602001906119d2929190612014565b506119dd6002611e7b565b5050565b600080600080600080600460000160009054906101000a900473ffffffffffffffffffffffffffffffffffffffff1660046001015460036007811115611a2357fe5b6000809054906101000a900460ff166007811115611a3d57fe5b11611b9857600060019054906101000a900473ffffffffffffffffffffffffffffffffffffffff1673ffffffffffffffffffffffffffffffffffffffff1663dd62ed3e600460000160009054906101000a900473ffffffffffffffffffffffffffffffffffffffff16306040518363ffffffff167c0100000000000000000000000000000000000000000000000000000000028152600401808373ffffffffffffffffffffffffffffffffffffffff1673ffffffffffffffffffffffffffffffffffffffff1681526020018273ffffffffffffffffffffffffffffffffffffffff1673ffffffffffffffffffffffffffffffffffffffff16815260200192505050602060405180830381600087803b158015611b5857600080fd5b505af1158015611b6c573d6000803e3d6000fd5b505050506040513d6020811015611b8257600080fd5b8101908080519060200190929190505050611b9f565b6004600101545b600460020160019054906101000a900460ff16600460020160029054906101000a900460ff16600460020160039054906101000a900460ff16955095509550955095509550909192939495565b611bf4611f03565b80611c035750611c02611e20565b5b1515611c0e57600080fd5b6002806007811115611c1c57fe5b6000809054906101000a900460ff166007811115611c3657fe5b141515611c4257600080fd5b816040518082805190602001908083835b602083101515611c785780518252602082019150602081019050602083039250611c53565b6001836020036101000a03801982511681845116808217855250505050505090500191505060405180910390206000191660036040518082805460018160011615610100020316600290048015611d065780601f10611ce4576101008083540402835291820191611d06565b820191906000526020600020905b815481529060010190602001808311611cf2575b50509150506040518091039020600019161415611d7b57611d25611f03565b15611d4d576001600460020160016101000a81548160ff021916908315150217905550611d7a565b611d55611e20565b15611d79576001600760020160016101000a81548160ff0219169083151502179055505b5b5b600460020160019054906101000a900460ff168015611da95750600760020160019054906101000a900460ff165b15611db957611db86003611e7b565b5b5050565b611dc5611f03565b80611dd45750611dd3611e20565b5b1515611ddf57600080fd5b6005806007811115611ded57fe5b6000809054906101000a900460ff166007811115611e0757fe5b101515611e1357600080fd5b611e1d6007611e7b565b50565b6000600760000160009054906101000a900473ffffffffffffffffffffffffffffffffffffffff1673ffffffffffffffffffffffffffffffffffffffff163373ffffffffffffffffffffffffffffffffffffffff1614905090565b7f397e19cc95daee46ec657cb4185007d81b62d29f95038943e9b631b54944a5d36000809054906101000a900460ff166007811115611eb657fe5b826007811115611ec257fe5b604051808381526020018281526020019250505060405180910390a1806000806101000a81548160ff02191690836007811115611efb57fe5b021790555050565b6000600460000160009054906101000a900473ffffffffffffffffffffffffffffffffffffffff1673ffffffffffffffffffffffffffffffffffffffff163373ffffffffffffffffffffffffffffffffffffffff1614905090565b6000600b60000160009054906101000a900473ffffffffffffffffffffffffffffffffffffffff1673ffffffffffffffffffffffffffffffffffffffff163373ffffffffffffffffffffffffffffffffffffffff1614905090565b6000600a60000160009054906101000a900473ffffffffffffffffffffffffffffffffffffffff1673ffffffffffffffffffffffffffffffffffffffff163373ffffffffffffffffffffffffffffffffffffffff1614905090565b828054600181600116156101000203166002900490600052602060002090601f016020900481019282601f1061205557805160ff1916838001178555612083565b82800160010185558215612083579182015b82811115612082578251825591602001919060010190612067565b5b5090506120909190612094565b5090565b6120b691905b808211156120b257600081600090555060010161209a565b5090565b905600a165627a7a72305820d91230e654b52df5d42efd55aa4f2b3cd1ee29974c9844fffad7ca4bf64fb34f0029a165627a7a723058209e37d7083cef901f292b3360a39d48c97b2b3ded7587686887ece899eabaf10d0029a165627a7a7230582051330d3273833b23ef422dde6eef31b78ea32e86e66a29bc86498590958c7b410029",
  "source": "pragma solidity ^0.4.17;\r\n\r\nimport \"./Property.sol\";\r\n\r\ncontract LandRegistry {\r\n\r\n    enum EntryCode { Presentation, Inscription }\r\n\r\n    event EntrySubmission(uint entryCode, address property, string description, address document);\r\n    event PropertyRegistered(address property, uint index);\r\n\r\n    struct PropertyRegister {\r\n        address[] list;\r\n        mapping (address => bool) registered;\r\n        // mapping (address => address[]) byOwner //Why should we store this. If we want to know the property owner we can do it thorugh Property contract\r\n    }\r\n\r\n    struct LandRegistryInfo {\r\n        string autonomousCommunity;\r\n        string name;\r\n        string description;\r\n        address registrar;\r\n        //string registrarPk;\r\n    }\r\n\r\n\r\n\r\n    PropertyRegister properties;\r\n    LandRegistryInfo public landRegistry;\r\n   \r\n\r\n    function LandRegistry(string _autonomousCommunityName, string _registryName, string _registryDescription) public {\r\n        landRegistry = LandRegistryInfo({\r\n            autonomousCommunity: _autonomousCommunityName,\r\n            name: _registryName,\r\n            description: _registryDescription,\r\n            registrar: 0x0\r\n        });  \r\n    }\r\n\r\n    /***********************************************\r\n     *  Info getters\r\n     */\r\n\r\n    function getRegistrar() public view returns (address registrar) {\r\n        return landRegistry.registrar;\r\n    }\r\n\r\n    function getLandRegistryInfo() public view returns (string autonomuousCommunity, string name, string description, address registrar) {\r\n        return (\r\n            landRegistry.autonomousCommunity,\r\n            landRegistry.name,\r\n            landRegistry.description,\r\n            landRegistry.registrar\r\n        );\r\n    }\r\n\r\n    /***********************************************\r\n     *  Property Getters\r\n     */\r\n\r\n    function getAllProperties() public view returns (address[]) {\r\n        return properties.list;\r\n    }\r\n\r\n    function getNumberOfProperties() public view returns (uint) {\r\n        return properties.list.length;\r\n    }\r\n\r\n    function getPropertyAt(uint index) public view returns (address) {\r\n        return properties.list[index];\r\n    }\r\n\r\n    /***********************************************\r\n     *  Land Registry Logics\r\n     */\r\n\r\n    function registerEntry(uint entryCode, address property, string description, address document) public onlyRegistrar {\r\n        emit EntrySubmission(entryCode, property, description, document);\r\n    }\r\n\r\n    function nameRegistrar(address _registrar) public {\r\n        landRegistry.registrar = _registrar;\r\n    }\r\n\r\n    function registerProperty(uint IDUFIR, uint CRU, string description, address owner) public onlyRegistrar {\r\n        Property property = new Property(IDUFIR, CRU, description, owner, this); \r\n        properties.list.push(address(property));  \r\n        PropertyRegistered(address(property), properties.list.length -1);\r\n    }\r\n\r\n    modifier onlyRegistrar() {\r\n        require(msg.sender == landRegistry.registrar);\r\n        _;\r\n    }\r\n}",
  "sourcePath": "C:\\Users\\Elias\\Documents\\GitHub\\angular-tfg\\truffle\\contracts\\LandRegistry.sol",
  "compiler": {
    "name": "solc",
    "version": "0.4.24+commit.e67f0147.Emscripten.clang"
  },
  "schemaVersion": "2.0.0",
  "updatedAt": "2018-06-04T18:19:20.942Z"
}