{
  "contractName": "LandRegistry",
  "abi": [
    {
      "constant": true,
      "inputs": [],
      "name": "name",
      "outputs": [
        {
          "name": "",
          "type": "string"
        }
      ],
      "payable": false,
      "stateMutability": "view",
      "type": "function"
    },
    {
      "constant": true,
      "inputs": [
        {
          "name": "",
          "type": "address"
        }
      ],
      "name": "isAdmin",
      "outputs": [
        {
          "name": "",
          "type": "bool"
        }
      ],
      "payable": false,
      "stateMutability": "view",
      "type": "function"
    },
    {
      "constant": true,
      "inputs": [],
      "name": "registrar",
      "outputs": [
        {
          "name": "",
          "type": "address"
        }
      ],
      "payable": false,
      "stateMutability": "view",
      "type": "function"
    },
    {
      "constant": true,
      "inputs": [
        {
          "name": "",
          "type": "address"
        },
        {
          "name": "",
          "type": "uint256"
        }
      ],
      "name": "adminLevel",
      "outputs": [
        {
          "name": "",
          "type": "bool"
        }
      ],
      "payable": false,
      "stateMutability": "view",
      "type": "function"
    },
    {
      "constant": true,
      "inputs": [],
      "name": "province",
      "outputs": [
        {
          "name": "",
          "type": "string"
        }
      ],
      "payable": false,
      "stateMutability": "view",
      "type": "function"
    },
    {
      "constant": false,
      "inputs": [
        {
          "name": "admin",
          "type": "address"
        },
        {
          "name": "level",
          "type": "uint256"
        }
      ],
      "name": "addAdmin",
      "outputs": [],
      "payable": false,
      "stateMutability": "nonpayable",
      "type": "function"
    },
    {
      "constant": true,
      "inputs": [],
      "name": "email",
      "outputs": [
        {
          "name": "",
          "type": "string"
        }
      ],
      "payable": false,
      "stateMutability": "view",
      "type": "function"
    },
    {
      "constant": true,
      "inputs": [],
      "name": "telephone",
      "outputs": [
        {
          "name": "",
          "type": "string"
        }
      ],
      "payable": false,
      "stateMutability": "view",
      "type": "function"
    },
    {
      "constant": true,
      "inputs": [
        {
          "name": "",
          "type": "address"
        }
      ],
      "name": "isRegistered",
      "outputs": [
        {
          "name": "",
          "type": "bool"
        }
      ],
      "payable": false,
      "stateMutability": "view",
      "type": "function"
    },
    {
      "constant": true,
      "inputs": [],
      "name": "addressInfo",
      "outputs": [
        {
          "name": "",
          "type": "string"
        }
      ],
      "payable": false,
      "stateMutability": "view",
      "type": "function"
    },
    {
      "constant": true,
      "inputs": [],
      "name": "fax",
      "outputs": [
        {
          "name": "",
          "type": "string"
        }
      ],
      "payable": false,
      "stateMutability": "view",
      "type": "function"
    },
    {
      "inputs": [
        {
          "name": "_name",
          "type": "string"
        },
        {
          "name": "_addressInfo",
          "type": "string"
        },
        {
          "name": "_province",
          "type": "string"
        },
        {
          "name": "_telephone",
          "type": "string"
        },
        {
          "name": "_fax",
          "type": "string"
        },
        {
          "name": "_email",
          "type": "string"
        }
      ],
      "payable": false,
      "stateMutability": "nonpayable",
      "type": "constructor"
    },
    {
      "anonymous": false,
      "inputs": [
        {
          "indexed": false,
          "name": "property",
          "type": "address"
        }
      ],
      "name": "PropertyCreated",
      "type": "event"
    },
    {
      "anonymous": false,
      "inputs": [
        {
          "indexed": false,
          "name": "identifier",
          "type": "uint256"
        },
        {
          "indexed": false,
          "name": "description",
          "type": "string"
        },
        {
          "indexed": false,
          "name": "document",
          "type": "address"
        },
        {
          "indexed": false,
          "name": "registrar",
          "type": "address"
        }
      ],
      "name": "DiaryBook",
      "type": "event"
    },
    {
      "anonymous": false,
      "inputs": [
        {
          "indexed": false,
          "name": "inscriptionType",
          "type": "uint8"
        },
        {
          "indexed": false,
          "name": "property",
          "type": "address"
        },
        {
          "indexed": false,
          "name": "identifier",
          "type": "uint256"
        },
        {
          "indexed": false,
          "name": "description",
          "type": "string"
        },
        {
          "indexed": false,
          "name": "document",
          "type": "address"
        }
      ],
      "name": "InscriptionBook",
      "type": "event"
    },
    {
      "anonymous": false,
      "inputs": [
        {
          "indexed": false,
          "name": "subject",
          "type": "address"
        },
        {
          "indexed": false,
          "name": "identifier",
          "type": "uint256"
        },
        {
          "indexed": false,
          "name": "description",
          "type": "string"
        },
        {
          "indexed": false,
          "name": "document",
          "type": "address"
        }
      ],
      "name": "IncapacitationBook",
      "type": "event"
    },
    {
      "anonymous": false,
      "inputs": [
        {
          "indexed": true,
          "name": "IDUFIR",
          "type": "uint256"
        },
        {
          "indexed": true,
          "name": "CRU",
          "type": "uint256"
        },
        {
          "indexed": false,
          "name": "firstRegistration",
          "type": "bool"
        },
        {
          "indexed": false,
          "name": "property",
          "type": "address"
        },
        {
          "indexed": false,
          "name": "owner",
          "type": "address"
        }
      ],
      "name": "PropertyRegistration",
      "type": "event"
    },
    {
      "constant": true,
      "inputs": [],
      "name": "getLandRegistryInfo",
      "outputs": [
        {
          "name": "",
          "type": "string"
        },
        {
          "name": "",
          "type": "string"
        },
        {
          "name": "",
          "type": "string"
        },
        {
          "name": "",
          "type": "string"
        },
        {
          "name": "",
          "type": "string"
        },
        {
          "name": "",
          "type": "string"
        },
        {
          "name": "",
          "type": "address"
        }
      ],
      "payable": false,
      "stateMutability": "view",
      "type": "function"
    },
    {
      "constant": false,
      "inputs": [
        {
          "name": "_registrar",
          "type": "address"
        }
      ],
      "name": "setRegistrar",
      "outputs": [],
      "payable": false,
      "stateMutability": "nonpayable",
      "type": "function"
    },
    {
      "constant": false,
      "inputs": [
        {
          "name": "identifier",
          "type": "uint256"
        },
        {
          "name": "description",
          "type": "string"
        },
        {
          "name": "document",
          "type": "address"
        }
      ],
      "name": "addPresentationEntry",
      "outputs": [],
      "payable": false,
      "stateMutability": "nonpayable",
      "type": "function"
    },
    {
      "constant": false,
      "inputs": [
        {
          "name": "property",
          "type": "address"
        },
        {
          "name": "identifier",
          "type": "uint256"
        },
        {
          "name": "description",
          "type": "string"
        },
        {
          "name": "document",
          "type": "address"
        }
      ],
      "name": "addInscriptionEntry",
      "outputs": [],
      "payable": false,
      "stateMutability": "nonpayable",
      "type": "function"
    },
    {
      "constant": false,
      "inputs": [
        {
          "name": "property",
          "type": "address"
        },
        {
          "name": "identifier",
          "type": "uint256"
        },
        {
          "name": "description",
          "type": "string"
        },
        {
          "name": "document",
          "type": "address"
        }
      ],
      "name": "addCancelationEntry",
      "outputs": [],
      "payable": false,
      "stateMutability": "nonpayable",
      "type": "function"
    },
    {
      "constant": false,
      "inputs": [
        {
          "name": "property",
          "type": "address"
        },
        {
          "name": "identifier",
          "type": "uint256"
        },
        {
          "name": "description",
          "type": "string"
        },
        {
          "name": "document",
          "type": "address"
        }
      ],
      "name": "addMarginalNoteEntry",
      "outputs": [],
      "payable": false,
      "stateMutability": "nonpayable",
      "type": "function"
    },
    {
      "constant": false,
      "inputs": [
        {
          "name": "subject",
          "type": "address"
        },
        {
          "name": "identifier",
          "type": "uint256"
        },
        {
          "name": "description",
          "type": "string"
        },
        {
          "name": "document",
          "type": "address"
        }
      ],
      "name": "addIncapacitationEntry",
      "outputs": [],
      "payable": false,
      "stateMutability": "nonpayable",
      "type": "function"
    },
    {
      "constant": false,
      "inputs": [
        {
          "name": "IDUFIR",
          "type": "uint256"
        },
        {
          "name": "CRU",
          "type": "uint256"
        },
        {
          "name": "description",
          "type": "string"
        },
        {
          "name": "owner",
          "type": "address"
        }
      ],
      "name": "createProperty",
      "outputs": [],
      "payable": false,
      "stateMutability": "nonpayable",
      "type": "function"
    },
    {
      "constant": false,
      "inputs": [
        {
          "name": "property",
          "type": "address"
        },
        {
          "name": "identifier",
          "type": "uint256"
        },
        {
          "name": "description",
          "type": "string"
        },
        {
          "name": "document",
          "type": "address"
        }
      ],
      "name": "register",
      "outputs": [],
      "payable": false,
      "stateMutability": "nonpayable",
      "type": "function"
    }
  ],
  "bytecode": "0x60806040523480156200001157600080fd5b5060405162005a0238038062005a0283398101806040528101908080518201929190602001805182019291906020018051820192919060200180518201929190602001805182019291906020018051820192919050505060016000803373ffffffffffffffffffffffffffffffffffffffff1673ffffffffffffffffffffffffffffffffffffffff16815260200190815260200160002060006101000a81548160ff02191690831515021790555060018060003373ffffffffffffffffffffffffffffffffffffffff1673ffffffffffffffffffffffffffffffffffffffff168152602001908152602001600020600080815260200190815260200160002060006101000a81548160ff02191690831515021790555085600290805190602001906200013f929190620001c9565b50846003908051906020019062000158929190620001c9565b50836004908051906020019062000171929190620001c9565b5082600590805190602001906200018a929190620001c9565b508160069080519060200190620001a3929190620001c9565b508060079080519060200190620001bc929190620001c9565b5050505050505062000278565b828054600181600116156101000203166002900490600052602060002090601f016020900481019282601f106200020c57805160ff19168380011785556200023d565b828001600101855582156200023d579182015b828111156200023c5782518255916020019190600101906200021f565b5b5090506200024c919062000250565b5090565b6200027591905b808211156200027157600081600090555060010162000257565b5090565b90565b61577a80620002886000396000f30060806040526004361062000127576000357c0100000000000000000000000000000000000000000000000000000000900463ffffffff16806306fdde03146200012c5780630af270b614620001c257806324d7806c14620002785780632b20e39714620002d65780633178270214620003305780633297ed8d1462000624578063525b0083146200068c5780635df10c6b14620007425780636209cb6314620007d85780637fcb29c9146200086e578063820e93f514620008be57806393acaa5914620009545780639431170514620009ea578063b10d8f3e1462000aa0578063c3c5a5471462000b56578063eb39f9141462000bb4578063ebed15771462000c4a578063ef690ad41462000d00578063faab9d391462000d96578063fc9af9f41462000ddc575b600080fd5b3480156200013957600080fd5b506200014462000e7c565b6040518080602001828103825283818151815260200191508051906020019080838360005b838110156200018657808201518184015260208101905062000169565b50505050905090810190601f168015620001b45780820380516001836020036101000a031916815260200191505b509250505060405180910390f35b348015620001cf57600080fd5b5062000276600480360381019080803573ffffffffffffffffffffffffffffffffffffffff16906020019092919080359060200190929190803590602001908201803590602001908080601f0160208091040260200160405190810160405280939291908181526020018383808284378201915050505050509192919290803573ffffffffffffffffffffffffffffffffffffffff16906020019092919050505062000f1e565b005b3480156200028557600080fd5b50620002bc600480360381019080803573ffffffffffffffffffffffffffffffffffffffff169060200190929190505050620010a8565b604051808215151515815260200191505060405180910390f35b348015620002e357600080fd5b50620002ee620010c8565b604051808273ffffffffffffffffffffffffffffffffffffffff1673ffffffffffffffffffffffffffffffffffffffff16815260200191505060405180910390f35b3480156200033d57600080fd5b5062000348620010ee565b604051808060200180602001806020018060200180602001806020018873ffffffffffffffffffffffffffffffffffffffff1673ffffffffffffffffffffffffffffffffffffffff16815260200187810387528e818151815260200191508051906020019080838360005b83811015620003d0578082015181840152602081019050620003b3565b50505050905090810190601f168015620003fe5780820380516001836020036101000a031916815260200191505b5087810386528d818151815260200191508051906020019080838360005b83811015620004395780820151818401526020810190506200041c565b50505050905090810190601f168015620004675780820380516001836020036101000a031916815260200191505b5087810385528c818151815260200191508051906020019080838360005b83811015620004a257808201518184015260208101905062000485565b50505050905090810190601f168015620004d05780820380516001836020036101000a031916815260200191505b5087810384528b818151815260200191508051906020019080838360005b838110156200050b578082015181840152602081019050620004ee565b50505050905090810190601f168015620005395780820380516001836020036101000a031916815260200191505b5087810383528a818151815260200191508051906020019080838360005b838110156200057457808201518184015260208101905062000557565b50505050905090810190601f168015620005a25780820380516001836020036101000a031916815260200191505b50878103825289818151815260200191508051906020019080838360005b83811015620005dd578082015181840152602081019050620005c0565b50505050905090810190601f1680156200060b5780820380516001836020036101000a031916815260200191505b509d505050505050505050505050505060405180910390f35b3480156200063157600080fd5b5062000672600480360381019080803573ffffffffffffffffffffffffffffffffffffffff16906020019092919080359060200190929190505050620014ff565b604051808215151515815260200191505060405180910390f35b3480156200069957600080fd5b5062000740600480360381019080803573ffffffffffffffffffffffffffffffffffffffff16906020019092919080359060200190929190803590602001908201803590602001908080601f0160208091040260200160405190810160405280939291908181526020018383808284378201915050505050509192919290803573ffffffffffffffffffffffffffffffffffffffff1690602001909291905050506200152e565b005b3480156200074f57600080fd5b50620007d660048036038101908080359060200190929190803590602001908201803590602001908080601f0160208091040260200160405190810160405280939291908181526020018383808284378201915050505050509192919290803573ffffffffffffffffffffffffffffffffffffffff169060200190929190505050620016b8565b005b348015620007e557600080fd5b50620007f06200184b565b6040518080602001828103825283818151815260200191508051906020019080838360005b838110156200083257808201518184015260208101905062000815565b50505050905090810190601f168015620008605780820380516001836020036101000a031916815260200191505b509250505060405180910390f35b3480156200087b57600080fd5b50620008bc600480360381019080803573ffffffffffffffffffffffffffffffffffffffff16906020019092919080359060200190929190505050620018ed565b005b348015620008cb57600080fd5b50620008d662001a72565b6040518080602001828103825283818151815260200191508051906020019080838360005b8381101562000918578082015181840152602081019050620008fb565b50505050905090810190601f168015620009465780820380516001836020036101000a031916815260200191505b509250505060405180910390f35b3480156200096157600080fd5b506200096c62001b14565b6040518080602001828103825283818151815260200191508051906020019080838360005b83811015620009ae57808201518184015260208101905062000991565b50505050905090810190601f168015620009dc5780820380516001836020036101000a031916815260200191505b509250505060405180910390f35b348015620009f757600080fd5b5062000a9e600480360381019080803573ffffffffffffffffffffffffffffffffffffffff16906020019092919080359060200190929190803590602001908201803590602001908080601f0160208091040260200160405190810160405280939291908181526020018383808284378201915050505050509192919290803573ffffffffffffffffffffffffffffffffffffffff16906020019092919050505062001bb6565b005b34801562000aad57600080fd5b5062000b54600480360381019080803573ffffffffffffffffffffffffffffffffffffffff16906020019092919080359060200190929190803590602001908201803590602001908080601f0160208091040260200160405190810160405280939291908181526020018383808284378201915050505050509192919290803573ffffffffffffffffffffffffffffffffffffffff16906020019092919050505062001ea8565b005b34801562000b6357600080fd5b5062000b9a600480360381019080803573ffffffffffffffffffffffffffffffffffffffff1690602001909291905050506200201a565b604051808215151515815260200191505060405180910390f35b34801562000bc157600080fd5b5062000bcc6200203a565b6040518080602001828103825283818151815260200191508051906020019080838360005b8381101562000c0e57808201518184015260208101905062000bf1565b50505050905090810190601f16801562000c3c5780820380516001836020036101000a031916815260200191505b509250505060405180910390f35b34801562000c5757600080fd5b5062000cfe600480360381019080803573ffffffffffffffffffffffffffffffffffffffff16906020019092919080359060200190929190803590602001908201803590602001908080601f0160208091040260200160405190810160405280939291908181526020018383808284378201915050505050509192919290803573ffffffffffffffffffffffffffffffffffffffff169060200190929190505050620020dc565b005b34801562000d0d57600080fd5b5062000d1862002266565b6040518080602001828103825283818151815260200191508051906020019080838360005b8381101562000d5a57808201518184015260208101905062000d3d565b50505050905090810190601f16801562000d885780820380516001836020036101000a031916815260200191505b509250505060405180910390f35b34801562000da357600080fd5b5062000dda600480360381019080803573ffffffffffffffffffffffffffffffffffffffff16906020019092919050505062002308565b005b34801562000de957600080fd5b5062000e7a6004803603810190808035906020019092919080359060200190929190803590602001908201803590602001908080601f0160208091040260200160405190810160405280939291908181526020018383808284378201915050505050509192919290803573ffffffffffffffffffffffffffffffffffffffff1690602001909291905050506200240e565b005b60028054600181600116156101000203166002900480601f01602080910402602001604051908101604052809291908181526020018280546001816001161561010002031660029004801562000f165780601f1062000eea5761010080835404028352916020019162000f16565b820191906000526020600020905b81548152906001019060200180831162000ef857829003601f168201915b505050505081565b600860009054906101000a900473ffffffffffffffffffffffffffffffffffffffff1673ffffffffffffffffffffffffffffffffffffffff163373ffffffffffffffffffffffffffffffffffffffff1614151562000f7b57600080fd5b7f077dda6c4ce58502a43320769db36357dfbfbb3facd164c0d2054d037ac9a7eb6000858585856040518086600281111562000fb357fe5b60ff1681526020018573ffffffffffffffffffffffffffffffffffffffff1673ffffffffffffffffffffffffffffffffffffffff168152602001848152602001806020018373ffffffffffffffffffffffffffffffffffffffff1673ffffffffffffffffffffffffffffffffffffffff168152602001828103825284818151815260200191508051906020019080838360005b838110156200106357808201518184015260208101905062001046565b50505050905090810190601f168015620010915780820380516001836020036101000a031916815260200191505b50965050505050505060405180910390a150505050565b60006020528060005260406000206000915054906101000a900460ff1681565b600860009054906101000a900473ffffffffffffffffffffffffffffffffffffffff1681565b6060806060806060806000600260036004600560066007600860009054906101000a900473ffffffffffffffffffffffffffffffffffffffff16868054600181600116156101000203166002900480601f016020809104026020016040519081016040528092919081815260200182805460018160011615610100020316600290048015620011c15780601f106200119557610100808354040283529160200191620011c1565b820191906000526020600020905b815481529060010190602001808311620011a357829003601f168201915b50505050509650858054600181600116156101000203166002900480601f016020809104026020016040519081016040528092919081815260200182805460018160011615610100020316600290048015620012615780601f10620012355761010080835404028352916020019162001261565b820191906000526020600020905b8154815290600101906020018083116200124357829003601f168201915b50505050509550848054600181600116156101000203166002900480601f016020809104026020016040519081016040528092919081815260200182805460018160011615610100020316600290048015620013015780601f10620012d55761010080835404028352916020019162001301565b820191906000526020600020905b815481529060010190602001808311620012e357829003601f168201915b50505050509450838054600181600116156101000203166002900480601f016020809104026020016040519081016040528092919081815260200182805460018160011615610100020316600290048015620013a15780601f106200137557610100808354040283529160200191620013a1565b820191906000526020600020905b8154815290600101906020018083116200138357829003601f168201915b50505050509350828054600181600116156101000203166002900480601f016020809104026020016040519081016040528092919081815260200182805460018160011615610100020316600290048015620014415780601f10620014155761010080835404028352916020019162001441565b820191906000526020600020905b8154815290600101906020018083116200142357829003601f168201915b50505050509250818054600181600116156101000203166002900480601f016020809104026020016040519081016040528092919081815260200182805460018160011615610100020316600290048015620014e15780601f10620014b557610100808354040283529160200191620014e1565b820191906000526020600020905b815481529060010190602001808311620014c357829003601f168201915b50505050509150965096509650965096509650965090919293949596565b60016020528160005260406000206020528060005260406000206000915091509054906101000a900460ff1681565b600860009054906101000a900473ffffffffffffffffffffffffffffffffffffffff1673ffffffffffffffffffffffffffffffffffffffff163373ffffffffffffffffffffffffffffffffffffffff161415156200158b57600080fd5b7f077dda6c4ce58502a43320769db36357dfbfbb3facd164c0d2054d037ac9a7eb60028585858560405180866002811115620015c357fe5b60ff1681526020018573ffffffffffffffffffffffffffffffffffffffff1673ffffffffffffffffffffffffffffffffffffffff168152602001848152602001806020018373ffffffffffffffffffffffffffffffffffffffff1673ffffffffffffffffffffffffffffffffffffffff168152602001828103825284818151815260200191508051906020019080838360005b838110156200167357808201518184015260208101905062001656565b50505050905090810190601f168015620016a15780820380516001836020036101000a031916815260200191505b50965050505050505060405180910390a150505050565b600860009054906101000a900473ffffffffffffffffffffffffffffffffffffffff1673ffffffffffffffffffffffffffffffffffffffff163373ffffffffffffffffffffffffffffffffffffffff161415156200171557600080fd5b7f85ab745dcbb35f0ef2596c74a028c7f0ba9928a1ffc0c46c59866ebbe18579d0838383600860009054906101000a900473ffffffffffffffffffffffffffffffffffffffff1660405180858152602001806020018473ffffffffffffffffffffffffffffffffffffffff1673ffffffffffffffffffffffffffffffffffffffff1681526020018373ffffffffffffffffffffffffffffffffffffffff1673ffffffffffffffffffffffffffffffffffffffff168152602001828103825285818151815260200191508051906020019080838360005b8381101562001808578082015181840152602081019050620017eb565b50505050905090810190601f168015620018365780820380516001836020036101000a031916815260200191505b509550505050505060405180910390a1505050565b60048054600181600116156101000203166002900480601f016020809104026020016040519081016040528092919081815260200182805460018160011615610100020316600290048015620018e55780601f10620018b957610100808354040283529160200191620018e5565b820191906000526020600020905b815481529060010190602001808311620018c757829003601f168201915b505050505081565b60008060003373ffffffffffffffffffffffffffffffffffffffff1673ffffffffffffffffffffffffffffffffffffffff16815260200190815260200160002060009054906101000a900460ff168015620019a25750600160003373ffffffffffffffffffffffffffffffffffffffff1673ffffffffffffffffffffffffffffffffffffffff168152602001908152602001600020600082815260200190815260200160002060009054906101000a900460ff165b1515620019ae57600080fd5b60016000808573ffffffffffffffffffffffffffffffffffffffff1673ffffffffffffffffffffffffffffffffffffffff16815260200190815260200160002060006101000a81548160ff02191690831515021790555060018060008573ffffffffffffffffffffffffffffffffffffffff1673ffffffffffffffffffffffffffffffffffffffff168152602001908152602001600020600084815260200190815260200160002060006101000a81548160ff021916908315150217905550505050565b60078054600181600116156101000203166002900480601f01602080910402602001604051908101604052809291908181526020018280546001816001161561010002031660029004801562001b0c5780601f1062001ae05761010080835404028352916020019162001b0c565b820191906000526020600020905b81548152906001019060200180831162001aee57829003601f168201915b505050505081565b60058054600181600116156101000203166002900480601f01602080910402602001604051908101604052809291908181526020018280546001816001161561010002031660029004801562001bae5780601f1062001b825761010080835404028352916020019162001bae565b820191906000526020600020905b81548152906001019060200180831162001b9057829003601f168201915b505050505081565b600080600080600860009054906101000a900473ffffffffffffffffffffffffffffffffffffffff1673ffffffffffffffffffffffffffffffffffffffff163373ffffffffffffffffffffffffffffffffffffffff1614151562001c1957600080fd5b600960008973ffffffffffffffffffffffffffffffffffffffff1673ffffffffffffffffffffffffffffffffffffffff16815260200190815260200160002060009054906101000a900460ff161593508773ffffffffffffffffffffffffffffffffffffffff16635de5f3be6040518163ffffffff167c0100000000000000000000000000000000000000000000000000000000028152600401600060405180830381600087803b15801562001cce57600080fd5b505af115801562001ce3573d6000803e3d6000fd5b505050506040513d6000823e3d601f19601f82011682018060405250608081101562001d0e57600080fd5b810190808051906020019092919080519060200190929190805164010000000081111562001d3b57600080fd5b8281019050602081018481111562001d5257600080fd5b815185600182028301116401000000008211171562001d7057600080fd5b50509291906020018051906020019092919050505090508093508194508295505050506001600960008a73ffffffffffffffffffffffffffffffffffffffff1673ffffffffffffffffffffffffffffffffffffffff16815260200190815260200160002060006101000a81548160ff02191690831515021790555081837facd67e61b3afe18cf0d7ec117ccf3e0bdefe980e4c0173821dc2e50e9a672168868b8560405180841515151581526020018373ffffffffffffffffffffffffffffffffffffffff1673ffffffffffffffffffffffffffffffffffffffff1681526020018273ffffffffffffffffffffffffffffffffffffffff1673ffffffffffffffffffffffffffffffffffffffff168152602001935050505060405180910390a362001e9e8888888862000f1e565b5050505050505050565b600860009054906101000a900473ffffffffffffffffffffffffffffffffffffffff1673ffffffffffffffffffffffffffffffffffffffff163373ffffffffffffffffffffffffffffffffffffffff1614151562001f0557600080fd5b7ff61f3ebd9559725763cc2618019ad34cc9933d2f52e84df5f9a74fc62e47f25a84848484604051808573ffffffffffffffffffffffffffffffffffffffff1673ffffffffffffffffffffffffffffffffffffffff168152602001848152602001806020018373ffffffffffffffffffffffffffffffffffffffff1673ffffffffffffffffffffffffffffffffffffffff168152602001828103825284818151815260200191508051906020019080838360005b8381101562001fd657808201518184015260208101905062001fb9565b50505050905090810190601f168015620020045780820380516001836020036101000a031916815260200191505b509550505050505060405180910390a150505050565b60096020528060005260406000206000915054906101000a900460ff1681565b60038054600181600116156101000203166002900480601f016020809104026020016040519081016040528092919081815260200182805460018160011615610100020316600290048015620020d45780601f10620020a857610100808354040283529160200191620020d4565b820191906000526020600020905b815481529060010190602001808311620020b657829003601f168201915b505050505081565b600860009054906101000a900473ffffffffffffffffffffffffffffffffffffffff1673ffffffffffffffffffffffffffffffffffffffff163373ffffffffffffffffffffffffffffffffffffffff161415156200213957600080fd5b7f077dda6c4ce58502a43320769db36357dfbfbb3facd164c0d2054d037ac9a7eb600185858585604051808660028111156200217157fe5b60ff1681526020018573ffffffffffffffffffffffffffffffffffffffff1673ffffffffffffffffffffffffffffffffffffffff168152602001848152602001806020018373ffffffffffffffffffffffffffffffffffffffff1673ffffffffffffffffffffffffffffffffffffffff168152602001828103825284818151815260200191508051906020019080838360005b838110156200222157808201518184015260208101905062002204565b50505050905090810190601f1680156200224f5780820380516001836020036101000a031916815260200191505b50965050505050505060405180910390a150505050565b60068054600181600116156101000203166002900480601f016020809104026020016040519081016040528092919081815260200182805460018160011615610100020316600290048015620023005780601f10620022d45761010080835404028352916020019162002300565b820191906000526020600020905b815481529060010190602001808311620022e257829003601f168201915b505050505081565b60008060003373ffffffffffffffffffffffffffffffffffffffff1673ffffffffffffffffffffffffffffffffffffffff16815260200190815260200160002060009054906101000a900460ff168015620023bd5750600160003373ffffffffffffffffffffffffffffffffffffffff1673ffffffffffffffffffffffffffffffffffffffff168152602001908152602001600020600082815260200190815260200160002060009054906101000a900460ff165b1515620023c957600080fd5b81600860006101000a81548173ffffffffffffffffffffffffffffffffffffffff021916908373ffffffffffffffffffffffffffffffffffffffff1602179055505050565b6000600860009054906101000a900473ffffffffffffffffffffffffffffffffffffffff1673ffffffffffffffffffffffffffffffffffffffff163373ffffffffffffffffffffffffffffffffffffffff161415156200246d57600080fd5b84848484306200247c620025ec565b80868152602001858152602001806020018473ffffffffffffffffffffffffffffffffffffffff1673ffffffffffffffffffffffffffffffffffffffff1681526020018373ffffffffffffffffffffffffffffffffffffffff1673ffffffffffffffffffffffffffffffffffffffff168152602001828103825285818151815260200191508051906020019080838360005b838110156200252b5780820151818401526020810190506200250e565b50505050905090810190601f168015620025595780820380516001836020036101000a031916815260200191505b509650505050505050604051809103906000f0801580156200257f573d6000803e3d6000fd5b5090507f05f35573428dbee5ccc6f8cc1b3fd7124c4c5b206a288190526c8dbcceb7d2e481604051808273ffffffffffffffffffffffffffffffffffffffff1673ffffffffffffffffffffffffffffffffffffffff16815260200191505060405180910390a15050505050565b60405161315180620025fe833901905600608060405234801561001057600080fd5b5060405161315138038061315183398101806040528101908080519060200190929190805190602001909291908051820192919060200180519060200190929190805190602001909291905050508460008190555083600181905550826002908051906020019061008292919061010f565b5081600360006101000a81548173ffffffffffffffffffffffffffffffffffffffff021916908373ffffffffffffffffffffffffffffffffffffffff16021790555080600460006101000a81548173ffffffffffffffffffffffffffffffffffffffff021916908373ffffffffffffffffffffffffffffffffffffffff16021790555050505050506101b4565b828054600181600116156101000203166002900490600052602060002090601f016020900481019282601f1061015057805160ff191683800117855561017e565b8280016001018555821561017e579182015b8281111561017d578251825591602001919060010190610162565b5b50905061018b919061018f565b5090565b6101b191905b808211156101ad576000816000905550600101610195565b5090565b90565b612f8e806101c36000396000f3006080604052600436106100c5576000357c0100000000000000000000000000000000000000000000000000000000900463ffffffff1680631a092541146100ca5780635de5f3be1461015a5780636d4354211461022b5780637284e4161461028e5780637a1ba2341461031e578063893d20e8146103495780638da5cb5b146103a0578063a670353c146103f7578063aa9f37f014610422578063b462b23a14610479578063bd4dc024146104c6578063efc1243a1461051d578063f4b9c73914610548575b600080fd5b3480156100d657600080fd5b506100df610573565b6040518080602001828103825283818151815260200191508051906020019080838360005b8381101561011f578082015181840152602081019050610104565b50505050905090810190601f16801561014c5780820380516001836020036101000a031916815260200191505b509250505060405180910390f35b34801561016657600080fd5b5061016f610615565b60405180858152602001848152602001806020018373ffffffffffffffffffffffffffffffffffffffff1673ffffffffffffffffffffffffffffffffffffffff168152602001828103825284818151815260200191508051906020019080838360005b838110156101ed5780820151818401526020810190506101d2565b50505050905090810190601f16801561021a5780820380516001836020036101000a031916815260200191505b509550505050505060405180910390f35b34801561023757600080fd5b5061028c600480360381019080803573ffffffffffffffffffffffffffffffffffffffff169060200190929190803573ffffffffffffffffffffffffffffffffffffffff1690602001909291905050506106f0565b005b34801561029a57600080fd5b506102a36107d3565b6040518080602001828103825283818151815260200191508051906020019080838360005b838110156102e35780820151818401526020810190506102c8565b50505050905090810190601f1680156103105780820380516001836020036101000a031916815260200191505b509250505060405180910390f35b34801561032a57600080fd5b50610333610871565b6040518082815260200191505060405180910390f35b34801561035557600080fd5b5061035e610877565b604051808273ffffffffffffffffffffffffffffffffffffffff1673ffffffffffffffffffffffffffffffffffffffff16815260200191505060405180910390f35b3480156103ac57600080fd5b506103b56108a1565b604051808273ffffffffffffffffffffffffffffffffffffffff1673ffffffffffffffffffffffffffffffffffffffff16815260200191505060405180910390f35b34801561040357600080fd5b5061040c6108c7565b6040518082815260200191505060405180910390f35b34801561042e57600080fd5b506104376108cd565b604051808273ffffffffffffffffffffffffffffffffffffffff1673ffffffffffffffffffffffffffffffffffffffff16815260200191505060405180910390f35b34801561048557600080fd5b506104c460048036038101908080359060200190929190803573ffffffffffffffffffffffffffffffffffffffff1690602001909291905050506108f3565b005b3480156104d257600080fd5b506104db610bd2565b604051808273ffffffffffffffffffffffffffffffffffffffff1673ffffffffffffffffffffffffffffffffffffffff16815260200191505060405180910390f35b34801561052957600080fd5b50610532610bf8565b6040518082815260200191505060405180910390f35b34801561055457600080fd5b5061055d610c01565b6040518082815260200191505060405180910390f35b606060028054600181600116156101000203166002900480601f01602080910402602001604051908101604052809291908181526020018280546001816001161561010002031660029004801561060b5780601f106105e05761010080835404028352916020019161060b565b820191906000526020600020905b8154815290600101906020018083116105ee57829003601f168201915b5050505050905090565b6000806060600080546001546002600360009054906101000a900473ffffffffffffffffffffffffffffffffffffffff16818054600181600116156101000203166002900480601f0160208091040260200160405190810160405280929190818152602001828054600181600116156101000203166002900480156106db5780601f106106b0576101008083540402835291602001916106db565b820191906000526020600020905b8154815290600101906020018083116106be57829003601f168201915b50505050509150935093509350935090919293565b600560009054906101000a900473ffffffffffffffffffffffffffffffffffffffff1673ffffffffffffffffffffffffffffffffffffffff163373ffffffffffffffffffffffffffffffffffffffff1614151561074c57600080fd5b80600360006101000a81548173ffffffffffffffffffffffffffffffffffffffff021916908373ffffffffffffffffffffffffffffffffffffffff1602179055506000600560006101000a81548173ffffffffffffffffffffffffffffffffffffffff021916908373ffffffffffffffffffffffffffffffffffffffff1602179055505050565b60028054600181600116156101000203166002900480601f0160208091040260200160405190810160405280929190818152602001828054600181600116156101000203166002900480156108695780601f1061083e57610100808354040283529160200191610869565b820191906000526020600020905b81548152906001019060200180831161084c57829003601f168201915b505050505081565b60015481565b6000600360009054906101000a900473ffffffffffffffffffffffffffffffffffffffff16905090565b600360009054906101000a900473ffffffffffffffffffffffffffffffffffffffff1681565b60005481565b600560009054906101000a900473ffffffffffffffffffffffffffffffffffffffff1681565b600360009054906101000a900473ffffffffffffffffffffffffffffffffffffffff1673ffffffffffffffffffffffffffffffffffffffff163373ffffffffffffffffffffffffffffffffffffffff1614151561094f57600080fd5b600073ffffffffffffffffffffffffffffffffffffffff16600560009054906101000a900473ffffffffffffffffffffffffffffffffffffffff1673ffffffffffffffffffffffffffffffffffffffff161415156109ac57600080fd5b3082600360009054906101000a900473ffffffffffffffffffffffffffffffffffffffff16600460009054906101000a900473ffffffffffffffffffffffffffffffffffffffff1673ffffffffffffffffffffffffffffffffffffffff16632b20e3976040518163ffffffff167c0100000000000000000000000000000000000000000000000000000000028152600401602060405180830381600087803b158015610a5757600080fd5b505af1158015610a6b573d6000803e3d6000fd5b505050506040513d6020811015610a8157600080fd5b810190808051906020019092919050505084610a9b610c0b565b808673ffffffffffffffffffffffffffffffffffffffff1673ffffffffffffffffffffffffffffffffffffffff1681526020018581526020018473ffffffffffffffffffffffffffffffffffffffff1673ffffffffffffffffffffffffffffffffffffffff1681526020018373ffffffffffffffffffffffffffffffffffffffff1673ffffffffffffffffffffffffffffffffffffffff1681526020018273ffffffffffffffffffffffffffffffffffffffff1673ffffffffffffffffffffffffffffffffffffffff16815260200195505050505050604051809103906000f080158015610b8d573d6000803e3d6000fd5b50600560006101000a81548173ffffffffffffffffffffffffffffffffffffffff021916908373ffffffffffffffffffffffffffffffffffffffff1602179055505050565b600460009054906101000a900473ffffffffffffffffffffffffffffffffffffffff1681565b60008054905090565b6000600154905090565b60405161234780610c1c833901905600608060405234801561001057600080fd5b5060405160a08061234783398101806040528101908080519060200190929190805190602001909291908051906020019092919080519060200190929190805190602001909291905050508273ffffffffffffffffffffffffffffffffffffffff168573ffffffffffffffffffffffffffffffffffffffff1663893d20e86040518163ffffffff167c0100000000000000000000000000000000000000000000000000000000028152600401602060405180830381600087803b1580156100d657600080fd5b505af11580156100ea573d6000803e3d6000fd5b505050506040513d602081101561010057600080fd5b810190808051906020019092919050505073ffffffffffffffffffffffffffffffffffffffff1614151561013357600080fd5b84600160006101000a81548173ffffffffffffffffffffffffffffffffffffffff021916908373ffffffffffffffffffffffffffffffffffffffff1602179055508360028190555082600460000160006101000a81548173ffffffffffffffffffffffffffffffffffffffff021916908373ffffffffffffffffffffffffffffffffffffffff1602179055508360076001018190555081600b60000160006101000a81548173ffffffffffffffffffffffffffffffffffffffff021916908373ffffffffffffffffffffffffffffffffffffffff16021790555080600060016101000a81548173ffffffffffffffffffffffffffffffffffffffff021916908373ffffffffffffffffffffffffffffffffffffffff16021790555050505050506120e5806102626000396000f300608060405260043610610112576000357c0100000000000000000000000000000000000000000000000000000000900463ffffffff1680630588565f1461011757806307d76c391461015a57806308551a5314610171578063176fd3f0146101fb5780632b20e397146102525780632cca873b146102bf5780632dfb39fd146102ee57806347e79635146103455780637150d8ae14610374578063904c6094146103fe5780639c5320af1461048e5780639d54c79d146104da578063a035b1fe14610531578063a8816d651461055c578063b1c9fe6e146105e2578063bbf898031461061b578063d2753dcc1461065e578063da52ede6146106c7578063dc9f21c11461074d578063ea8a1af0146107b6575b600080fd5b34801561012357600080fd5b50610158600480360381019080803573ffffffffffffffffffffffffffffffffffffffff1690602001909291905050506107cd565b005b34801561016657600080fd5b5061016f610866565b005b34801561017d57600080fd5b50610186610d1d565b604051808773ffffffffffffffffffffffffffffffffffffffff1673ffffffffffffffffffffffffffffffffffffffff16815260200186815260200185151515158152602001841515151581526020018315151515815260200182151515158152602001965050505050505060405180910390f35b34801561020757600080fd5b50610210610d9b565b604051808273ffffffffffffffffffffffffffffffffffffffff1673ffffffffffffffffffffffffffffffffffffffff16815260200191505060405180910390f35b34801561025e57600080fd5b50610267610dc1565b604051808473ffffffffffffffffffffffffffffffffffffffff1673ffffffffffffffffffffffffffffffffffffffff1681526020018315151515815260200182151515158152602001935050505060405180910390f35b3480156102cb57600080fd5b506102ec600480360381019080803515159060200190929190505050610e13565b005b3480156102fa57600080fd5b506103036112c4565b604051808273ffffffffffffffffffffffffffffffffffffffff1673ffffffffffffffffffffffffffffffffffffffff16815260200191505060405180910390f35b34801561035157600080fd5b506103726004803603810190808035151590602001909291905050506112ea565b005b34801561038057600080fd5b506103896114fc565b604051808773ffffffffffffffffffffffffffffffffffffffff1673ffffffffffffffffffffffffffffffffffffffff16815260200186815260200185151515158152602001841515151581526020018315151515815260200182151515158152602001965050505050505060405180910390f35b34801561040a57600080fd5b5061041361157a565b6040518080602001828103825283818151815260200191508051906020019080838360005b83811015610453578082015181840152602081019050610438565b50505050905090810190601f1680156104805780820380516001836020036101000a031916815260200191505b509250505060405180910390f35b34801561049a57600080fd5b506104a3611618565b6040518085815260200184151515158152602001831515151581526020018215151515815260200194505050505060405180910390f35b3480156104e657600080fd5b506104ef611686565b604051808273ffffffffffffffffffffffffffffffffffffffff1673ffffffffffffffffffffffffffffffffffffffff16815260200191505060405180910390f35b34801561053d57600080fd5b506105466116b2565b6040518082815260200191505060405180910390f35b34801561056857600080fd5b506105716116b8565b604051808773ffffffffffffffffffffffffffffffffffffffff1673ffffffffffffffffffffffffffffffffffffffff168152602001868152602001858152602001841515151581526020018315151515815260200182151515158152602001965050505050505060405180910390f35b3480156105ee57600080fd5b506105f76118c3565b6040518082600781111561060757fe5b60ff16815260200191505060405180910390f35b34801561062757600080fd5b5061065c600480360381019080803573ffffffffffffffffffffffffffffffffffffffff1690602001909291905050506118d5565b005b34801561066a57600080fd5b506106c5600480360381019080803590602001908201803590602001908080601f0160208091040260200160405190810160405280939291908181526020018383808284378201915050505050509192919290505050611964565b005b3480156106d357600080fd5b506106dc6119e1565b604051808773ffffffffffffffffffffffffffffffffffffffff1673ffffffffffffffffffffffffffffffffffffffff168152602001868152602001858152602001841515151581526020018315151515815260200182151515158152602001965050505050505060405180910390f35b34801561075957600080fd5b506107b4600480360381019080803590602001908201803590602001908080601f0160208091040260200160405190810160405280939291908181526020018383808284378201915050505050509192919290505050611bec565b005b3480156107c257600080fd5b506107cb611dbd565b005b60008060078111156107db57fe5b6000809054906101000a900460ff1660078111156107f557fe5b14151561080157600080fd5b610809611e20565b151561081457600080fd5b81600a60000160006101000a81548173ffffffffffffffffffffffffffffffffffffffff021916908373ffffffffffffffffffffffffffffffffffffffff1602179055506108626001611e7b565b5050565b61086e611f03565b8061087d575061087c611e20565b5b151561088857600080fd5b600380600781111561089657fe5b6000809054906101000a900460ff1660078111156108b057fe5b1415156108bc57600080fd5b7f737c69225d647e5994eab1a6c301bf6d9232beb2759ae1e27a8966b4732bc48933600060019054906101000a900473ffffffffffffffffffffffffffffffffffffffff1673ffffffffffffffffffffffffffffffffffffffff1663dd62ed3e33306040518363ffffffff167c0100000000000000000000000000000000000000000000000000000000028152600401808373ffffffffffffffffffffffffffffffffffffffff1673ffffffffffffffffffffffffffffffffffffffff1681526020018273ffffffffffffffffffffffffffffffffffffffff1673ffffffffffffffffffffffffffffffffffffffff16815260200192505050602060405180830381600087803b1580156109cf57600080fd5b505af11580156109e3573d6000803e3d6000fd5b505050506040513d60208110156109f957600080fd5b8101908080519060200190929190505050604051808373ffffffffffffffffffffffffffffffffffffffff1673ffffffffffffffffffffffffffffffffffffffff1681526020018281526020019250505060405180910390a1600760010154600060019054906101000a900473ffffffffffffffffffffffffffffffffffffffff1673ffffffffffffffffffffffffffffffffffffffff1663dd62ed3e600760000160009054906101000a900473ffffffffffffffffffffffffffffffffffffffff16306040518363ffffffff167c0100000000000000000000000000000000000000000000000000000000028152600401808373ffffffffffffffffffffffffffffffffffffffff1673ffffffffffffffffffffffffffffffffffffffff1681526020018273ffffffffffffffffffffffffffffffffffffffff1673ffffffffffffffffffffffffffffffffffffffff16815260200192505050602060405180830381600087803b158015610b6e57600080fd5b505af1158015610b82573d6000803e3d6000fd5b505050506040513d6020811015610b9857600080fd5b8101908080519060200190929190505050148015610d0a5750600460010154600060019054906101000a900473ffffffffffffffffffffffffffffffffffffffff1673ffffffffffffffffffffffffffffffffffffffff1663dd62ed3e600460000160009054906101000a900473ffffffffffffffffffffffffffffffffffffffff16306040518363ffffffff167c0100000000000000000000000000000000000000000000000000000000028152600401808373ffffffffffffffffffffffffffffffffffffffff1673ffffffffffffffffffffffffffffffffffffffff1681526020018273ffffffffffffffffffffffffffffffffffffffff1673ffffffffffffffffffffffffffffffffffffffff16815260200192505050602060405180830381600087803b158015610ccd57600080fd5b505af1158015610ce1573d6000803e3d6000fd5b505050506040513d6020811015610cf757600080fd5b8101908080519060200190929190505050145b15610d1a57610d196004611e7b565b5b50565b60048060000160009054906101000a900473ffffffffffffffffffffffffffffffffffffffff16908060010154908060020160009054906101000a900460ff16908060020160019054906101000a900460ff16908060020160029054906101000a900460ff16908060020160039054906101000a900460ff16905086565b600160009054906101000a900473ffffffffffffffffffffffffffffffffffffffff1681565b600b8060000160009054906101000a900473ffffffffffffffffffffffffffffffffffffffff16908060000160149054906101000a900460ff16908060000160159054906101000a900460ff16905083565b610e1b611f5e565b1515610e2657600080fd5b6005806007811115610e3457fe5b6000809054906101000a900460ff166007811115610e4e57fe5b141515610e5a57600080fd5b81600b60000160156101000a81548160ff0219169083151502179055506001600b60000160146101000a81548160ff021916908315150217905550610e9f6006611e7b565b811561117d57600160009054906101000a900473ffffffffffffffffffffffffffffffffffffffff1673ffffffffffffffffffffffffffffffffffffffff16636d435421600460000160009054906101000a900473ffffffffffffffffffffffffffffffffffffffff16600760000160009054906101000a900473ffffffffffffffffffffffffffffffffffffffff166040518363ffffffff167c0100000000000000000000000000000000000000000000000000000000028152600401808373ffffffffffffffffffffffffffffffffffffffff1673ffffffffffffffffffffffffffffffffffffffff1681526020018273ffffffffffffffffffffffffffffffffffffffff1673ffffffffffffffffffffffffffffffffffffffff16815260200192505050600060405180830381600087803b158015610fe057600080fd5b505af1158015610ff4573d6000803e3d6000fd5b50505050600060019054906101000a900473ffffffffffffffffffffffffffffffffffffffff1673ffffffffffffffffffffffffffffffffffffffff166323b872dd600760000160009054906101000a900473ffffffffffffffffffffffffffffffffffffffff16600460000160009054906101000a900473ffffffffffffffffffffffffffffffffffffffff166007600101546040518463ffffffff167c0100000000000000000000000000000000000000000000000000000000028152600401808473ffffffffffffffffffffffffffffffffffffffff1673ffffffffffffffffffffffffffffffffffffffff1681526020018373ffffffffffffffffffffffffffffffffffffffff1673ffffffffffffffffffffffffffffffffffffffff1681526020018281526020019350505050602060405180830381600087803b15801561114057600080fd5b505af1158015611154573d6000803e3d6000fd5b505050506040513d602081101561116a57600080fd5b8101908080519060200190929190505050505b7f5be054805b83147c6c25ca72206a773c7c1f2d4fe187488e466e10ec172f5532600160009054906101000a900473ffffffffffffffffffffffffffffffffffffffff1683600460000160009054906101000a900473ffffffffffffffffffffffffffffffffffffffff16600760000160009054906101000a900473ffffffffffffffffffffffffffffffffffffffff16604051808573ffffffffffffffffffffffffffffffffffffffff1673ffffffffffffffffffffffffffffffffffffffff168152602001841515151581526020018373ffffffffffffffffffffffffffffffffffffffff1673ffffffffffffffffffffffffffffffffffffffff1681526020018273ffffffffffffffffffffffffffffffffffffffff1673ffffffffffffffffffffffffffffffffffffffff16815260200194505050505060405180910390a15050565b600060019054906101000a900473ffffffffffffffffffffffffffffffffffffffff1681565b6112f2611f03565b806113015750611300611e20565b5b151561130c57600080fd5b600480600781111561131a57fe5b6000809054906101000a900460ff16600781111561133457fe5b14151561134057600080fd5b611348611f03565b156113ac57600460020160029054906101000a900460ff1615151561136c57600080fd5b81600460020160036101000a81548160ff0219169083151502179055506001600460020160026101000a81548160ff021916908315150217905550611415565b6113b4611e20565b1561141457600760020160029054906101000a900460ff161515156113d857600080fd5b81600760020160036101000a81548160ff0219169083151502179055506001600760020160026101000a81548160ff0219169083151502179055505b5b7f6987327e18ad4f4fbe7093291548072eaba4360344060c1852238a6876b6bdb73383604051808373ffffffffffffffffffffffffffffffffffffffff1673ffffffffffffffffffffffffffffffffffffffff168152602001821515151581526020019250505060405180910390a1600760020160029054906101000a900460ff1680156114b25750600760020160039054906101000a900460ff165b80156114cd5750600460020160029054906101000a900460ff165b80156114e85750600460020160039054906101000a900460ff165b156114f8576114f76005611e7b565b5b5050565b60078060000160009054906101000a900473ffffffffffffffffffffffffffffffffffffffff16908060010154908060020160009054906101000a900460ff16908060020160019054906101000a900460ff16908060020160029054906101000a900460ff16908060020160039054906101000a900460ff16905086565b60038054600181600116156101000203166002900480601f0160208091040260200160405190810160405280929190818152602001828054600181600116156101000203166002900480156116105780601f106115e557610100808354040283529160200191611610565b820191906000526020600020905b8154815290600101906020018083116115f357829003601f168201915b505050505081565b6000806000806000809054906101000a900460ff16600781111561163857fe5b6000600380546001816001161561010002031660029004905011600b60000160149054906101000a900460ff16600b60000160159054906101000a900460ff16935093509350935090919293565b600a8060000160009054906101000a900473ffffffffffffffffffffffffffffffffffffffff16905081565b60025481565b600080600080600080600760000160009054906101000a900473ffffffffffffffffffffffffffffffffffffffff16600760010154600360078111156116fa57fe5b6000809054906101000a900460ff16600781111561171457fe5b1161186f57600060019054906101000a900473ffffffffffffffffffffffffffffffffffffffff1673ffffffffffffffffffffffffffffffffffffffff1663dd62ed3e600760000160009054906101000a900473ffffffffffffffffffffffffffffffffffffffff16306040518363ffffffff167c0100000000000000000000000000000000000000000000000000000000028152600401808373ffffffffffffffffffffffffffffffffffffffff1673ffffffffffffffffffffffffffffffffffffffff1681526020018273ffffffffffffffffffffffffffffffffffffffff1673ffffffffffffffffffffffffffffffffffffffff16815260200192505050602060405180830381600087803b15801561182f57600080fd5b505af1158015611843573d6000803e3d6000fd5b505050506040513d602081101561185957600080fd5b8101908080519060200190929190505050611876565b6007600101545b600760020160019054906101000a900460ff16600760020160029054906101000a900460ff16600760020160039054906101000a900460ff16955095509550955095509550909192939495565b6000809054906101000a900460ff1681565b60008060078111156118e357fe5b6000809054906101000a900460ff1660078111156118fd57fe5b14151561190957600080fd5b611911611f03565b151561191c57600080fd5b81600760000160006101000a81548173ffffffffffffffffffffffffffffffffffffffff021916908373ffffffffffffffffffffffffffffffffffffffff1602179055505050565b61196c611fb9565b151561197757600080fd5b600180600781111561198557fe5b6000809054906101000a900460ff16600781111561199f57fe5b1415156119ab57600080fd5b60008251141515156119bc57600080fd5b81600390805190602001906119d2929190612014565b506119dd6002611e7b565b5050565b600080600080600080600460000160009054906101000a900473ffffffffffffffffffffffffffffffffffffffff1660046001015460036007811115611a2357fe5b6000809054906101000a900460ff166007811115611a3d57fe5b11611b9857600060019054906101000a900473ffffffffffffffffffffffffffffffffffffffff1673ffffffffffffffffffffffffffffffffffffffff1663dd62ed3e600460000160009054906101000a900473ffffffffffffffffffffffffffffffffffffffff16306040518363ffffffff167c0100000000000000000000000000000000000000000000000000000000028152600401808373ffffffffffffffffffffffffffffffffffffffff1673ffffffffffffffffffffffffffffffffffffffff1681526020018273ffffffffffffffffffffffffffffffffffffffff1673ffffffffffffffffffffffffffffffffffffffff16815260200192505050602060405180830381600087803b158015611b5857600080fd5b505af1158015611b6c573d6000803e3d6000fd5b505050506040513d6020811015611b8257600080fd5b8101908080519060200190929190505050611b9f565b6004600101545b600460020160019054906101000a900460ff16600460020160029054906101000a900460ff16600460020160039054906101000a900460ff16955095509550955095509550909192939495565b611bf4611f03565b80611c035750611c02611e20565b5b1515611c0e57600080fd5b6002806007811115611c1c57fe5b6000809054906101000a900460ff166007811115611c3657fe5b141515611c4257600080fd5b816040518082805190602001908083835b602083101515611c785780518252602082019150602081019050602083039250611c53565b6001836020036101000a03801982511681845116808217855250505050505090500191505060405180910390206000191660036040518082805460018160011615610100020316600290048015611d065780601f10611ce4576101008083540402835291820191611d06565b820191906000526020600020905b815481529060010190602001808311611cf2575b50509150506040518091039020600019161415611d7b57611d25611f03565b15611d4d576001600460020160016101000a81548160ff021916908315150217905550611d7a565b611d55611e20565b15611d79576001600760020160016101000a81548160ff0219169083151502179055505b5b5b600460020160019054906101000a900460ff168015611da95750600760020160019054906101000a900460ff165b15611db957611db86003611e7b565b5b5050565b611dc5611f03565b80611dd45750611dd3611e20565b5b1515611ddf57600080fd5b6005806007811115611ded57fe5b6000809054906101000a900460ff166007811115611e0757fe5b101515611e1357600080fd5b611e1d6007611e7b565b50565b6000600760000160009054906101000a900473ffffffffffffffffffffffffffffffffffffffff1673ffffffffffffffffffffffffffffffffffffffff163373ffffffffffffffffffffffffffffffffffffffff1614905090565b7f397e19cc95daee46ec657cb4185007d81b62d29f95038943e9b631b54944a5d36000809054906101000a900460ff166007811115611eb657fe5b826007811115611ec257fe5b604051808381526020018281526020019250505060405180910390a1806000806101000a81548160ff02191690836007811115611efb57fe5b021790555050565b6000600460000160009054906101000a900473ffffffffffffffffffffffffffffffffffffffff1673ffffffffffffffffffffffffffffffffffffffff163373ffffffffffffffffffffffffffffffffffffffff1614905090565b6000600b60000160009054906101000a900473ffffffffffffffffffffffffffffffffffffffff1673ffffffffffffffffffffffffffffffffffffffff163373ffffffffffffffffffffffffffffffffffffffff1614905090565b6000600a60000160009054906101000a900473ffffffffffffffffffffffffffffffffffffffff1673ffffffffffffffffffffffffffffffffffffffff163373ffffffffffffffffffffffffffffffffffffffff1614905090565b828054600181600116156101000203166002900490600052602060002090601f016020900481019282601f1061205557805160ff1916838001178555612083565b82800160010185558215612083579182015b82811115612082578251825591602001919060010190612067565b5b5090506120909190612094565b5090565b6120b691905b808211156120b257600081600090555060010161209a565b5090565b905600a165627a7a72305820945f7f42ac1575ee34a8359fccca4d7c578fbcdcc2c4357ebcf41661679cfde40029a165627a7a7230582006c96d8b771a9be64b4c1dfc3684125fc255afb9e1f649e7fed013d2e62aed120029a165627a7a72305820c579e94dad19a02355f7187b7fc44e44eeb1454fa90138c2d3a8a354c13098a00029",
  "source": "pragma solidity ^0.4.17;\r\n\r\nimport \"./Property.sol\";\r\nimport \"./MultiAdmin.sol\";\r\n\r\ncontract LandRegistry is MultiAdmin {\r\n\r\n    enum InscriptionType { Inscription, Cancelation, MarginalNote }\r\n\r\n    event PropertyCreated(address property);\r\n    event DiaryBook(uint identifier, string description, address document, address registrar);\r\n    event InscriptionBook(InscriptionType inscriptionType, address property, uint identifier, string description, address document);\r\n    event IncapacitationBook(address subject, uint identifier, string description, address document);\r\n    event PropertyRegistration(uint indexed IDUFIR, uint indexed CRU, bool firstRegistration, address property, address owner);\r\n\r\n    string public name;\r\n    string public addressInfo; // Street - Town [Postcode]\r\n    string public province;\r\n    string public telephone;\r\n    string public fax;\r\n    string public email;\r\n    \r\n    address public registrar;\r\n\r\n    mapping (address => bool) public isRegistered;\r\n   \r\n\r\n    function LandRegistry(string _name, string _addressInfo, string _province, string _telephone, string _fax, string _email) public {\r\n        name = _name;\r\n        addressInfo = _addressInfo;\r\n        province = _province;\r\n        telephone = _telephone;\r\n        fax = _fax;\r\n        email = _email;\r\n    }\r\n\r\n    /***********************************************\r\n     *  Info getters\r\n     */\r\n\r\n\r\n    function getLandRegistryInfo() public view returns (string, string, string, string, string, string, address) {\r\n        return (name, addressInfo, province, telephone, fax, email, registrar);\r\n    }\r\n\r\n    /***********************************************\r\n     *  Land Registry Logics\r\n     */\r\n\r\n    function setRegistrar(address _registrar) public onlyAdmin(0) {\r\n        registrar = _registrar;\r\n    }\r\n\r\n    function addPresentationEntry(uint identifier, string description, address document) public onlyRegistrar {\r\n        emit DiaryBook(identifier, description, document, registrar);\r\n    }\r\n\r\n    function addInscriptionEntry(address property, uint identifier, string description, address document) public onlyRegistrar {\r\n        emit InscriptionBook(InscriptionType.Inscription, property, identifier, description, document);\r\n    }\r\n\r\n    function addCancelationEntry(address property, uint identifier, string description, address document) public onlyRegistrar {\r\n        emit InscriptionBook(InscriptionType.Cancelation, property, identifier, description, document);\r\n    }\r\n\r\n    function addMarginalNoteEntry(address property, uint identifier, string description, address document) public onlyRegistrar {\r\n        emit InscriptionBook(InscriptionType.MarginalNote, property, identifier, description, document);\r\n    }\r\n\r\n    function addIncapacitationEntry(address subject, uint identifier, string description, address document) public onlyRegistrar {\r\n        emit IncapacitationBook(subject, identifier, description, document);\r\n    }\r\n\r\n    function createProperty(uint IDUFIR, uint CRU, string description, address owner) public onlyRegistrar {\r\n        Property property = new Property(IDUFIR, CRU, description, owner, this); \r\n        emit PropertyCreated(property);\r\n    }\r\n\r\n    function register(address property, uint identifier, string description, address document) public onlyRegistrar {\r\n        bool firstRegistration = !isRegistered[property];\r\n        uint IDUFIR;\r\n        uint CRU;\r\n        address owner;\r\n        (IDUFIR, CRU,, owner) = Property(property).getPropertyInfo();\r\n\r\n        isRegistered[property] = true;\r\n        emit PropertyRegistration(IDUFIR, CRU, firstRegistration, property, owner);\r\n        addInscriptionEntry(property, identifier, description, document);\r\n    }\r\n\r\n\r\n    modifier onlyRegistrar() {\r\n        require(msg.sender == registrar);\r\n        _;\r\n    }\r\n}",
  "sourcePath": "C:\\Users\\Elias\\Documents\\GitHub\\angular-tfg\\truffle\\contracts\\LandRegistry.sol",
  "compiler": {
    "name": "solc",
    "version": "0.4.24+commit.e67f0147.Emscripten.clang"
  },
  "schemaVersion": "2.0.0",
  "updatedAt": "2018-06-06T18:00:13.969Z"
}