{
  "contractName": "LandRegistry",
  "abi": [
    {
      "constant": true,
      "inputs": [],
      "name": "name",
      "outputs": [
        {
          "name": "",
          "type": "string"
        }
      ],
      "payable": false,
      "stateMutability": "view",
      "type": "function"
    },
    {
      "constant": true,
      "inputs": [
        {
          "name": "",
          "type": "address"
        }
      ],
      "name": "isAdmin",
      "outputs": [
        {
          "name": "",
          "type": "bool"
        }
      ],
      "payable": false,
      "stateMutability": "view",
      "type": "function"
    },
    {
      "constant": true,
      "inputs": [],
      "name": "registrar",
      "outputs": [
        {
          "name": "",
          "type": "address"
        }
      ],
      "payable": false,
      "stateMutability": "view",
      "type": "function"
    },
    {
      "constant": true,
      "inputs": [
        {
          "name": "",
          "type": "address"
        },
        {
          "name": "",
          "type": "uint256"
        }
      ],
      "name": "adminLevel",
      "outputs": [
        {
          "name": "",
          "type": "bool"
        }
      ],
      "payable": false,
      "stateMutability": "view",
      "type": "function"
    },
    {
      "constant": true,
      "inputs": [],
      "name": "province",
      "outputs": [
        {
          "name": "",
          "type": "string"
        }
      ],
      "payable": false,
      "stateMutability": "view",
      "type": "function"
    },
    {
      "constant": false,
      "inputs": [
        {
          "name": "admin",
          "type": "address"
        },
        {
          "name": "level",
          "type": "uint256"
        }
      ],
      "name": "addAdmin",
      "outputs": [],
      "payable": false,
      "stateMutability": "nonpayable",
      "type": "function"
    },
    {
      "constant": true,
      "inputs": [],
      "name": "email",
      "outputs": [
        {
          "name": "",
          "type": "string"
        }
      ],
      "payable": false,
      "stateMutability": "view",
      "type": "function"
    },
    {
      "constant": true,
      "inputs": [],
      "name": "telephone",
      "outputs": [
        {
          "name": "",
          "type": "string"
        }
      ],
      "payable": false,
      "stateMutability": "view",
      "type": "function"
    },
    {
      "constant": true,
      "inputs": [],
      "name": "publicFinance",
      "outputs": [
        {
          "name": "",
          "type": "address"
        }
      ],
      "payable": false,
      "stateMutability": "view",
      "type": "function"
    },
    {
      "constant": true,
      "inputs": [
        {
          "name": "",
          "type": "address"
        }
      ],
      "name": "isRegistered",
      "outputs": [
        {
          "name": "",
          "type": "bool"
        }
      ],
      "payable": false,
      "stateMutability": "view",
      "type": "function"
    },
    {
      "constant": true,
      "inputs": [],
      "name": "addressInfo",
      "outputs": [
        {
          "name": "",
          "type": "string"
        }
      ],
      "payable": false,
      "stateMutability": "view",
      "type": "function"
    },
    {
      "constant": true,
      "inputs": [],
      "name": "fax",
      "outputs": [
        {
          "name": "",
          "type": "string"
        }
      ],
      "payable": false,
      "stateMutability": "view",
      "type": "function"
    },
    {
      "inputs": [
        {
          "name": "_name",
          "type": "string"
        },
        {
          "name": "_addressInfo",
          "type": "string"
        },
        {
          "name": "_province",
          "type": "string"
        },
        {
          "name": "_telephone",
          "type": "string"
        },
        {
          "name": "_fax",
          "type": "string"
        },
        {
          "name": "_email",
          "type": "string"
        }
      ],
      "payable": false,
      "stateMutability": "nonpayable",
      "type": "constructor"
    },
    {
      "anonymous": false,
      "inputs": [
        {
          "indexed": false,
          "name": "property",
          "type": "address"
        }
      ],
      "name": "PropertyCreated",
      "type": "event"
    },
    {
      "anonymous": false,
      "inputs": [
        {
          "indexed": false,
          "name": "identifier",
          "type": "uint256"
        },
        {
          "indexed": false,
          "name": "description",
          "type": "string"
        },
        {
          "indexed": false,
          "name": "document",
          "type": "address"
        },
        {
          "indexed": false,
          "name": "registrar",
          "type": "address"
        }
      ],
      "name": "DiaryBook",
      "type": "event"
    },
    {
      "anonymous": false,
      "inputs": [
        {
          "indexed": false,
          "name": "inscriptionType",
          "type": "uint8"
        },
        {
          "indexed": false,
          "name": "property",
          "type": "address"
        },
        {
          "indexed": false,
          "name": "identifier",
          "type": "uint256"
        },
        {
          "indexed": false,
          "name": "description",
          "type": "string"
        },
        {
          "indexed": false,
          "name": "document",
          "type": "address"
        }
      ],
      "name": "InscriptionBook",
      "type": "event"
    },
    {
      "anonymous": false,
      "inputs": [
        {
          "indexed": false,
          "name": "subject",
          "type": "address"
        },
        {
          "indexed": false,
          "name": "identifier",
          "type": "uint256"
        },
        {
          "indexed": false,
          "name": "description",
          "type": "string"
        },
        {
          "indexed": false,
          "name": "document",
          "type": "address"
        }
      ],
      "name": "IncapacitationBook",
      "type": "event"
    },
    {
      "anonymous": false,
      "inputs": [
        {
          "indexed": true,
          "name": "IDUFIR",
          "type": "uint256"
        },
        {
          "indexed": true,
          "name": "CRU",
          "type": "uint256"
        },
        {
          "indexed": false,
          "name": "firstRegistration",
          "type": "bool"
        },
        {
          "indexed": false,
          "name": "property",
          "type": "address"
        },
        {
          "indexed": false,
          "name": "owner",
          "type": "address"
        }
      ],
      "name": "PropertyRegistration",
      "type": "event"
    },
    {
      "constant": true,
      "inputs": [],
      "name": "getLandRegistryInfo",
      "outputs": [
        {
          "name": "",
          "type": "string"
        },
        {
          "name": "",
          "type": "string"
        },
        {
          "name": "",
          "type": "string"
        },
        {
          "name": "",
          "type": "string"
        },
        {
          "name": "",
          "type": "string"
        },
        {
          "name": "",
          "type": "string"
        },
        {
          "name": "",
          "type": "address"
        }
      ],
      "payable": false,
      "stateMutability": "view",
      "type": "function"
    },
    {
      "constant": false,
      "inputs": [
        {
          "name": "_publicFinance",
          "type": "address"
        }
      ],
      "name": "setPublicFinance",
      "outputs": [],
      "payable": false,
      "stateMutability": "nonpayable",
      "type": "function"
    },
    {
      "constant": false,
      "inputs": [
        {
          "name": "_registrar",
          "type": "address"
        }
      ],
      "name": "setRegistrar",
      "outputs": [],
      "payable": false,
      "stateMutability": "nonpayable",
      "type": "function"
    },
    {
      "constant": false,
      "inputs": [
        {
          "name": "identifier",
          "type": "uint256"
        },
        {
          "name": "description",
          "type": "string"
        },
        {
          "name": "document",
          "type": "address"
        }
      ],
      "name": "addPresentationEntry",
      "outputs": [],
      "payable": false,
      "stateMutability": "nonpayable",
      "type": "function"
    },
    {
      "constant": false,
      "inputs": [
        {
          "name": "property",
          "type": "address"
        },
        {
          "name": "identifier",
          "type": "uint256"
        },
        {
          "name": "description",
          "type": "string"
        },
        {
          "name": "document",
          "type": "address"
        }
      ],
      "name": "addInscriptionEntry",
      "outputs": [],
      "payable": false,
      "stateMutability": "nonpayable",
      "type": "function"
    },
    {
      "constant": false,
      "inputs": [
        {
          "name": "property",
          "type": "address"
        },
        {
          "name": "identifier",
          "type": "uint256"
        },
        {
          "name": "description",
          "type": "string"
        },
        {
          "name": "document",
          "type": "address"
        }
      ],
      "name": "addCancelationEntry",
      "outputs": [],
      "payable": false,
      "stateMutability": "nonpayable",
      "type": "function"
    },
    {
      "constant": false,
      "inputs": [
        {
          "name": "property",
          "type": "address"
        },
        {
          "name": "identifier",
          "type": "uint256"
        },
        {
          "name": "description",
          "type": "string"
        },
        {
          "name": "document",
          "type": "address"
        }
      ],
      "name": "addMarginalNoteEntry",
      "outputs": [],
      "payable": false,
      "stateMutability": "nonpayable",
      "type": "function"
    },
    {
      "constant": false,
      "inputs": [
        {
          "name": "subject",
          "type": "address"
        },
        {
          "name": "identifier",
          "type": "uint256"
        },
        {
          "name": "description",
          "type": "string"
        },
        {
          "name": "document",
          "type": "address"
        }
      ],
      "name": "addIncapacitationEntry",
      "outputs": [],
      "payable": false,
      "stateMutability": "nonpayable",
      "type": "function"
    },
    {
      "constant": false,
      "inputs": [
        {
          "name": "property",
          "type": "address"
        },
        {
          "name": "identifier",
          "type": "uint256"
        },
        {
          "name": "description",
          "type": "string"
        },
        {
          "name": "document",
          "type": "address"
        }
      ],
      "name": "register",
      "outputs": [],
      "payable": false,
      "stateMutability": "nonpayable",
      "type": "function"
    }
  ],
  "bytecode": "0x60806040523480156200001157600080fd5b50604051620028223803806200282283398101806040528101908080518201929190602001805182019291906020018051820192919060200180518201929190602001805182019291906020018051820192919050505060016000803373ffffffffffffffffffffffffffffffffffffffff1673ffffffffffffffffffffffffffffffffffffffff16815260200190815260200160002060006101000a81548160ff02191690831515021790555060018060003373ffffffffffffffffffffffffffffffffffffffff1673ffffffffffffffffffffffffffffffffffffffff168152602001908152602001600020600080815260200190815260200160002060006101000a81548160ff02191690831515021790555085600290805190602001906200013f929190620001c9565b50846003908051906020019062000158929190620001c9565b50836004908051906020019062000171929190620001c9565b5082600590805190602001906200018a929190620001c9565b508160069080519060200190620001a3929190620001c9565b508060079080519060200190620001bc929190620001c9565b5050505050505062000278565b828054600181600116156101000203166002900490600052602060002090601f016020900481019282601f106200020c57805160ff19168380011785556200023d565b828001600101855582156200023d579182015b828111156200023c5782518255916020019190600101906200021f565b5b5090506200024c919062000250565b5090565b6200027591905b808211156200027157600081600090555060010162000257565b5090565b90565b61259a80620002886000396000f30060806040526004361061011d576000357c0100000000000000000000000000000000000000000000000000000000900463ffffffff16806306fdde03146101225780630af270b6146101b257806324d7806c146102655780632b20e397146102c057806331782702146103175780633297ed8d146105f657806333f82a621461065b578063525b00831461069e5780635df10c6b146107515780636209cb63146107e45780637fcb29c914610874578063820e93f5146108c157806393acaa5914610951578063941005cf146109e15780639431170514610a38578063b10d8f3e14610aeb578063c3c5a54714610b9e578063eb39f91414610bf9578063ebed157714610c89578063ef690ad414610d3c578063faab9d3914610dcc575b600080fd5b34801561012e57600080fd5b50610137610e0f565b6040518080602001828103825283818151815260200191508051906020019080838360005b8381101561017757808201518184015260208101905061015c565b50505050905090810190601f1680156101a45780820380516001836020036101000a031916815260200191505b509250505060405180910390f35b3480156101be57600080fd5b50610263600480360381019080803573ffffffffffffffffffffffffffffffffffffffff16906020019092919080359060200190929190803590602001908201803590602001908080601f0160208091040260200160405190810160405280939291908181526020018383808284378201915050505050509192919290803573ffffffffffffffffffffffffffffffffffffffff169060200190929190505050610ead565b005b34801561027157600080fd5b506102a6600480360381019080803573ffffffffffffffffffffffffffffffffffffffff169060200190929190505050611032565b604051808215151515815260200191505060405180910390f35b3480156102cc57600080fd5b506102d5611052565b604051808273ffffffffffffffffffffffffffffffffffffffff1673ffffffffffffffffffffffffffffffffffffffff16815260200191505060405180910390f35b34801561032357600080fd5b5061032c611078565b604051808060200180602001806020018060200180602001806020018873ffffffffffffffffffffffffffffffffffffffff1673ffffffffffffffffffffffffffffffffffffffff16815260200187810387528e818151815260200191508051906020019080838360005b838110156103b2578082015181840152602081019050610397565b50505050905090810190601f1680156103df5780820380516001836020036101000a031916815260200191505b5087810386528d818151815260200191508051906020019080838360005b838110156104185780820151818401526020810190506103fd565b50505050905090810190601f1680156104455780820380516001836020036101000a031916815260200191505b5087810385528c818151815260200191508051906020019080838360005b8381101561047e578082015181840152602081019050610463565b50505050905090810190601f1680156104ab5780820380516001836020036101000a031916815260200191505b5087810384528b818151815260200191508051906020019080838360005b838110156104e45780820151818401526020810190506104c9565b50505050905090810190601f1680156105115780820380516001836020036101000a031916815260200191505b5087810383528a818151815260200191508051906020019080838360005b8381101561054a57808201518184015260208101905061052f565b50505050905090810190601f1680156105775780820380516001836020036101000a031916815260200191505b50878103825289818151815260200191508051906020019080838360005b838110156105b0578082015181840152602081019050610595565b50505050905090810190601f1680156105dd5780820380516001836020036101000a031916815260200191505b509d505050505050505050505050505060405180910390f35b34801561060257600080fd5b50610641600480360381019080803573ffffffffffffffffffffffffffffffffffffffff16906020019092919080359060200190929190505050611471565b604051808215151515815260200191505060405180910390f35b34801561066757600080fd5b5061069c600480360381019080803573ffffffffffffffffffffffffffffffffffffffff1690602001909291905050506114a0565b005b3480156106aa57600080fd5b5061074f600480360381019080803573ffffffffffffffffffffffffffffffffffffffff16906020019092919080359060200190929190803590602001908201803590602001908080601f0160208091040260200160405190810160405280939291908181526020018383808284378201915050505050509192919290803573ffffffffffffffffffffffffffffffffffffffff1690602001909291905050506115a4565b005b34801561075d57600080fd5b506107e260048036038101908080359060200190929190803590602001908201803590602001908080601f0160208091040260200160405190810160405280939291908181526020018383808284378201915050505050509192919290803573ffffffffffffffffffffffffffffffffffffffff169060200190929190505050611729565b005b3480156107f057600080fd5b506107f96118b8565b6040518080602001828103825283818151815260200191508051906020019080838360005b8381101561083957808201518184015260208101905061081e565b50505050905090810190601f1680156108665780820380516001836020036101000a031916815260200191505b509250505060405180910390f35b34801561088057600080fd5b506108bf600480360381019080803573ffffffffffffffffffffffffffffffffffffffff16906020019092919080359060200190929190505050611956565b005b3480156108cd57600080fd5b506108d6611ad9565b6040518080602001828103825283818151815260200191508051906020019080838360005b838110156109165780820151818401526020810190506108fb565b50505050905090810190601f1680156109435780820380516001836020036101000a031916815260200191505b509250505060405180910390f35b34801561095d57600080fd5b50610966611b77565b6040518080602001828103825283818151815260200191508051906020019080838360005b838110156109a657808201518184015260208101905061098b565b50505050905090810190601f1680156109d35780820380516001836020036101000a031916815260200191505b509250505060405180910390f35b3480156109ed57600080fd5b506109f6611c15565b604051808273ffffffffffffffffffffffffffffffffffffffff1673ffffffffffffffffffffffffffffffffffffffff16815260200191505060405180910390f35b348015610a4457600080fd5b50610ae9600480360381019080803573ffffffffffffffffffffffffffffffffffffffff16906020019092919080359060200190929190803590602001908201803590602001908080601f0160208091040260200160405190810160405280939291908181526020018383808284378201915050505050509192919290803573ffffffffffffffffffffffffffffffffffffffff169060200190929190505050611c3b565b005b348015610af757600080fd5b50610b9c600480360381019080803573ffffffffffffffffffffffffffffffffffffffff16906020019092919080359060200190929190803590602001908201803590602001908080601f0160208091040260200160405190810160405280939291908181526020018383808284378201915050505050509192919290803573ffffffffffffffffffffffffffffffffffffffff16906020019092919050505061201b565b005b348015610baa57600080fd5b50610bdf600480360381019080803573ffffffffffffffffffffffffffffffffffffffff169060200190929190505050612189565b604051808215151515815260200191505060405180910390f35b348015610c0557600080fd5b50610c0e6121a9565b6040518080602001828103825283818151815260200191508051906020019080838360005b83811015610c4e578082015181840152602081019050610c33565b50505050905090810190601f168015610c7b5780820380516001836020036101000a031916815260200191505b509250505060405180910390f35b348015610c9557600080fd5b50610d3a600480360381019080803573ffffffffffffffffffffffffffffffffffffffff16906020019092919080359060200190929190803590602001908201803590602001908080601f0160208091040260200160405190810160405280939291908181526020018383808284378201915050505050509192919290803573ffffffffffffffffffffffffffffffffffffffff169060200190929190505050612247565b005b348015610d4857600080fd5b50610d516123cc565b6040518080602001828103825283818151815260200191508051906020019080838360005b83811015610d91578082015181840152602081019050610d76565b50505050905090810190601f168015610dbe5780820380516001836020036101000a031916815260200191505b509250505060405180910390f35b348015610dd857600080fd5b50610e0d600480360381019080803573ffffffffffffffffffffffffffffffffffffffff16906020019092919050505061246a565b005b60028054600181600116156101000203166002900480601f016020809104026020016040519081016040528092919081815260200182805460018160011615610100020316600290048015610ea55780601f10610e7a57610100808354040283529160200191610ea5565b820191906000526020600020905b815481529060010190602001808311610e8857829003601f168201915b505050505081565b600960009054906101000a900473ffffffffffffffffffffffffffffffffffffffff1673ffffffffffffffffffffffffffffffffffffffff163373ffffffffffffffffffffffffffffffffffffffff16141515610f0957600080fd5b7f077dda6c4ce58502a43320769db36357dfbfbb3facd164c0d2054d037ac9a7eb60008585858560405180866002811115610f4057fe5b60ff1681526020018573ffffffffffffffffffffffffffffffffffffffff1673ffffffffffffffffffffffffffffffffffffffff168152602001848152602001806020018373ffffffffffffffffffffffffffffffffffffffff1673ffffffffffffffffffffffffffffffffffffffff168152602001828103825284818151815260200191508051906020019080838360005b83811015610fee578082015181840152602081019050610fd3565b50505050905090810190601f16801561101b5780820380516001836020036101000a031916815260200191505b50965050505050505060405180910390a150505050565b60006020528060005260406000206000915054906101000a900460ff1681565b600960009054906101000a900473ffffffffffffffffffffffffffffffffffffffff1681565b6060806060806060806000600260036004600560066007600960009054906101000a900473ffffffffffffffffffffffffffffffffffffffff16868054600181600116156101000203166002900480601f0160208091040260200160405190810160405280929190818152602001828054600181600116156101000203166002900480156111475780601f1061111c57610100808354040283529160200191611147565b820191906000526020600020905b81548152906001019060200180831161112a57829003601f168201915b50505050509650858054600181600116156101000203166002900480601f0160208091040260200160405190810160405280929190818152602001828054600181600116156101000203166002900480156111e35780601f106111b8576101008083540402835291602001916111e3565b820191906000526020600020905b8154815290600101906020018083116111c657829003601f168201915b50505050509550848054600181600116156101000203166002900480601f01602080910402602001604051908101604052809291908181526020018280546001816001161561010002031660029004801561127f5780601f106112545761010080835404028352916020019161127f565b820191906000526020600020905b81548152906001019060200180831161126257829003601f168201915b50505050509450838054600181600116156101000203166002900480601f01602080910402602001604051908101604052809291908181526020018280546001816001161561010002031660029004801561131b5780601f106112f05761010080835404028352916020019161131b565b820191906000526020600020905b8154815290600101906020018083116112fe57829003601f168201915b50505050509350828054600181600116156101000203166002900480601f0160208091040260200160405190810160405280929190818152602001828054600181600116156101000203166002900480156113b75780601f1061138c576101008083540402835291602001916113b7565b820191906000526020600020905b81548152906001019060200180831161139a57829003601f168201915b50505050509250818054600181600116156101000203166002900480601f0160208091040260200160405190810160405280929190818152602001828054600181600116156101000203166002900480156114535780601f1061142857610100808354040283529160200191611453565b820191906000526020600020905b81548152906001019060200180831161143657829003601f168201915b50505050509150965096509650965096509650965090919293949596565b60016020528160005260406000206020528060005260406000206000915091509054906101000a900460ff1681565b60008060003373ffffffffffffffffffffffffffffffffffffffff1673ffffffffffffffffffffffffffffffffffffffff16815260200190815260200160002060009054906101000a900460ff1680156115545750600160003373ffffffffffffffffffffffffffffffffffffffff1673ffffffffffffffffffffffffffffffffffffffff168152602001908152602001600020600082815260200190815260200160002060009054906101000a900460ff165b151561155f57600080fd5b81600860006101000a81548173ffffffffffffffffffffffffffffffffffffffff021916908373ffffffffffffffffffffffffffffffffffffffff1602179055505050565b600960009054906101000a900473ffffffffffffffffffffffffffffffffffffffff1673ffffffffffffffffffffffffffffffffffffffff163373ffffffffffffffffffffffffffffffffffffffff1614151561160057600080fd5b7f077dda6c4ce58502a43320769db36357dfbfbb3facd164c0d2054d037ac9a7eb6002858585856040518086600281111561163757fe5b60ff1681526020018573ffffffffffffffffffffffffffffffffffffffff1673ffffffffffffffffffffffffffffffffffffffff168152602001848152602001806020018373ffffffffffffffffffffffffffffffffffffffff1673ffffffffffffffffffffffffffffffffffffffff168152602001828103825284818151815260200191508051906020019080838360005b838110156116e55780820151818401526020810190506116ca565b50505050905090810190601f1680156117125780820380516001836020036101000a031916815260200191505b50965050505050505060405180910390a150505050565b600960009054906101000a900473ffffffffffffffffffffffffffffffffffffffff1673ffffffffffffffffffffffffffffffffffffffff163373ffffffffffffffffffffffffffffffffffffffff1614151561178557600080fd5b7f85ab745dcbb35f0ef2596c74a028c7f0ba9928a1ffc0c46c59866ebbe18579d0838383600960009054906101000a900473ffffffffffffffffffffffffffffffffffffffff1660405180858152602001806020018473ffffffffffffffffffffffffffffffffffffffff1673ffffffffffffffffffffffffffffffffffffffff1681526020018373ffffffffffffffffffffffffffffffffffffffff1673ffffffffffffffffffffffffffffffffffffffff168152602001828103825285818151815260200191508051906020019080838360005b8381101561187657808201518184015260208101905061185b565b50505050905090810190601f1680156118a35780820380516001836020036101000a031916815260200191505b509550505050505060405180910390a1505050565b60048054600181600116156101000203166002900480601f01602080910402602001604051908101604052809291908181526020018280546001816001161561010002031660029004801561194e5780601f106119235761010080835404028352916020019161194e565b820191906000526020600020905b81548152906001019060200180831161193157829003601f168201915b505050505081565b60008060003373ffffffffffffffffffffffffffffffffffffffff1673ffffffffffffffffffffffffffffffffffffffff16815260200190815260200160002060009054906101000a900460ff168015611a0a5750600160003373ffffffffffffffffffffffffffffffffffffffff1673ffffffffffffffffffffffffffffffffffffffff168152602001908152602001600020600082815260200190815260200160002060009054906101000a900460ff165b1515611a1557600080fd5b60016000808573ffffffffffffffffffffffffffffffffffffffff1673ffffffffffffffffffffffffffffffffffffffff16815260200190815260200160002060006101000a81548160ff02191690831515021790555060018060008573ffffffffffffffffffffffffffffffffffffffff1673ffffffffffffffffffffffffffffffffffffffff168152602001908152602001600020600084815260200190815260200160002060006101000a81548160ff021916908315150217905550505050565b60078054600181600116156101000203166002900480601f016020809104026020016040519081016040528092919081815260200182805460018160011615610100020316600290048015611b6f5780601f10611b4457610100808354040283529160200191611b6f565b820191906000526020600020905b815481529060010190602001808311611b5257829003601f168201915b505050505081565b60058054600181600116156101000203166002900480601f016020809104026020016040519081016040528092919081815260200182805460018160011615610100020316600290048015611c0d5780601f10611be257610100808354040283529160200191611c0d565b820191906000526020600020905b815481529060010190602001808311611bf057829003601f168201915b505050505081565b600860009054906101000a900473ffffffffffffffffffffffffffffffffffffffff1681565b6000806000806000600960009054906101000a900473ffffffffffffffffffffffffffffffffffffffff1673ffffffffffffffffffffffffffffffffffffffff163373ffffffffffffffffffffffffffffffffffffffff16141515611c9f57600080fd5b8894503073ffffffffffffffffffffffffffffffffffffffff168573ffffffffffffffffffffffffffffffffffffffff1663bd4dc0246040518163ffffffff167c0100000000000000000000000000000000000000000000000000000000028152600401602060405180830381600087803b158015611d1d57600080fd5b505af1158015611d31573d6000803e3d6000fd5b505050506040513d6020811015611d4757600080fd5b810190808051906020019092919050505073ffffffffffffffffffffffffffffffffffffffff16141515611d7a57600080fd5b600a60008a73ffffffffffffffffffffffffffffffffffffffff1673ffffffffffffffffffffffffffffffffffffffff16815260200190815260200160002060009054906101000a900460ff161593508473ffffffffffffffffffffffffffffffffffffffff16635de5f3be6040518163ffffffff167c0100000000000000000000000000000000000000000000000000000000028152600401600060405180830381600087803b158015611e2e57600080fd5b505af1158015611e42573d6000803e3d6000fd5b505050506040513d6000823e3d601f19601f8201168201806040525060c0811015611e6c57600080fd5b8101908080519060200190929190805190602001909291908051640100000000811115611e9857600080fd5b82810190506020810184811115611eae57600080fd5b8151856001820283011164010000000082111715611ecb57600080fd5b5050929190602001805190602001909291908051906020019092919080519060200190929190505050909192509050508093508194508295505050506001600a60008b73ffffffffffffffffffffffffffffffffffffffff1673ffffffffffffffffffffffffffffffffffffffff16815260200190815260200160002060006101000a81548160ff02191690831515021790555081837facd67e61b3afe18cf0d7ec117ccf3e0bdefe980e4c0173821dc2e50e9a672168868c8560405180841515151581526020018373ffffffffffffffffffffffffffffffffffffffff1673ffffffffffffffffffffffffffffffffffffffff1681526020018273ffffffffffffffffffffffffffffffffffffffff1673ffffffffffffffffffffffffffffffffffffffff168152602001935050505060405180910390a361201089898989610ead565b505050505050505050565b600960009054906101000a900473ffffffffffffffffffffffffffffffffffffffff1673ffffffffffffffffffffffffffffffffffffffff163373ffffffffffffffffffffffffffffffffffffffff1614151561207757600080fd5b7ff61f3ebd9559725763cc2618019ad34cc9933d2f52e84df5f9a74fc62e47f25a84848484604051808573ffffffffffffffffffffffffffffffffffffffff1673ffffffffffffffffffffffffffffffffffffffff168152602001848152602001806020018373ffffffffffffffffffffffffffffffffffffffff1673ffffffffffffffffffffffffffffffffffffffff168152602001828103825284818151815260200191508051906020019080838360005b8381101561214657808201518184015260208101905061212b565b50505050905090810190601f1680156121735780820380516001836020036101000a031916815260200191505b509550505050505060405180910390a150505050565b600a6020528060005260406000206000915054906101000a900460ff1681565b60038054600181600116156101000203166002900480601f01602080910402602001604051908101604052809291908181526020018280546001816001161561010002031660029004801561223f5780601f106122145761010080835404028352916020019161223f565b820191906000526020600020905b81548152906001019060200180831161222257829003601f168201915b505050505081565b600960009054906101000a900473ffffffffffffffffffffffffffffffffffffffff1673ffffffffffffffffffffffffffffffffffffffff163373ffffffffffffffffffffffffffffffffffffffff161415156122a357600080fd5b7f077dda6c4ce58502a43320769db36357dfbfbb3facd164c0d2054d037ac9a7eb600185858585604051808660028111156122da57fe5b60ff1681526020018573ffffffffffffffffffffffffffffffffffffffff1673ffffffffffffffffffffffffffffffffffffffff168152602001848152602001806020018373ffffffffffffffffffffffffffffffffffffffff1673ffffffffffffffffffffffffffffffffffffffff168152602001828103825284818151815260200191508051906020019080838360005b8381101561238857808201518184015260208101905061236d565b50505050905090810190601f1680156123b55780820380516001836020036101000a031916815260200191505b50965050505050505060405180910390a150505050565b60068054600181600116156101000203166002900480601f0160208091040260200160405190810160405280929190818152602001828054600181600116156101000203166002900480156124625780601f1061243757610100808354040283529160200191612462565b820191906000526020600020905b81548152906001019060200180831161244557829003601f168201915b505050505081565b60008060003373ffffffffffffffffffffffffffffffffffffffff1673ffffffffffffffffffffffffffffffffffffffff16815260200190815260200160002060009054906101000a900460ff16801561251e5750600160003373ffffffffffffffffffffffffffffffffffffffff1673ffffffffffffffffffffffffffffffffffffffff168152602001908152602001600020600082815260200190815260200160002060009054906101000a900460ff165b151561252957600080fd5b81600960006101000a81548173ffffffffffffffffffffffffffffffffffffffff021916908373ffffffffffffffffffffffffffffffffffffffff16021790555050505600a165627a7a72305820e018fe1889cbf1ae55df33c6ced561dab16702b6518f0f553f3d80fb3276fc840029",
  "source": "pragma solidity ^0.4.17;\r\n\r\nimport \"./Property.sol\";\r\nimport \"./MultiAdmin.sol\";\r\nimport \"./PublicFinance.sol\";\r\n\r\ncontract LandRegistry is MultiAdmin {\r\n\r\n    enum InscriptionType { Inscription, Cancelation, MarginalNote }\r\n\r\n    event PropertyCreated(address property);\r\n    event DiaryBook(uint identifier, string description, address document, address registrar);\r\n    event InscriptionBook(InscriptionType inscriptionType, address property, uint identifier, string description, address document);\r\n    event IncapacitationBook(address subject, uint identifier, string description, address document);\r\n    event PropertyRegistration(uint indexed IDUFIR, uint indexed CRU, bool firstRegistration, address property, address owner);\r\n\r\n    string public name;\r\n    string public addressInfo; // Street - Town [Postcode]\r\n    string public province;\r\n    string public telephone;\r\n    string public fax;\r\n    string public email;\r\n\r\n    PublicFinance public publicFinance;\r\n    \r\n    address public registrar;\r\n\r\n    mapping (address => bool) public isRegistered;\r\n   \r\n\r\n    function LandRegistry(string _name, string _addressInfo, string _province, string _telephone, string _fax, string _email) public {\r\n        name = _name;\r\n        addressInfo = _addressInfo;\r\n        province = _province;\r\n        telephone = _telephone;\r\n        fax = _fax;\r\n        email = _email;\r\n    }\r\n\r\n    /***********************************************\r\n     *  Info getters\r\n     */\r\n\r\n\r\n    function getLandRegistryInfo() public view returns (string, string, string, string, string, string, address) {\r\n        return (name, addressInfo, province, telephone, fax, email, registrar);\r\n    }\r\n\r\n    /***********************************************\r\n     *  Land Registry Logics\r\n     */\r\n\r\n    function setPublicFinance(address _publicFinance) public onlyAdmin(0) {\r\n        publicFinance = PublicFinance(_publicFinance);\r\n    }\r\n\r\n    function setRegistrar(address _registrar) public onlyAdmin(0) {\r\n        registrar = _registrar;\r\n    }\r\n\r\n    function addPresentationEntry(uint identifier, string description, address document) public onlyRegistrar {\r\n        emit DiaryBook(identifier, description, document, registrar);\r\n    }\r\n\r\n    function addInscriptionEntry(address property, uint identifier, string description, address document) public onlyRegistrar {\r\n        emit InscriptionBook(InscriptionType.Inscription, property, identifier, description, document);\r\n    }\r\n\r\n    function addCancelationEntry(address property, uint identifier, string description, address document) public onlyRegistrar {\r\n        emit InscriptionBook(InscriptionType.Cancelation, property, identifier, description, document);\r\n    }\r\n\r\n    function addMarginalNoteEntry(address property, uint identifier, string description, address document) public onlyRegistrar {\r\n        emit InscriptionBook(InscriptionType.MarginalNote, property, identifier, description, document);\r\n    }\r\n\r\n    function addIncapacitationEntry(address subject, uint identifier, string description, address document) public onlyRegistrar {\r\n        emit IncapacitationBook(subject, identifier, description, document);\r\n    }\r\n\r\n    function register(address property, uint identifier, string description, address document) public onlyRegistrar {\r\n        Property newProperty = Property(property);\r\n        require(newProperty.landRegistry() == address(this));\r\n        bool firstRegistration = !isRegistered[property];\r\n        uint IDUFIR;\r\n        uint CRU;\r\n        address owner;\r\n        (IDUFIR, CRU,, owner,,) = newProperty.getPropertyInfo();\r\n\r\n        isRegistered[property] = true;\r\n        emit PropertyRegistration(IDUFIR, CRU, firstRegistration, property, owner);\r\n        addInscriptionEntry(property, identifier, description, document);\r\n    }\r\n\r\n\r\n    modifier onlyRegistrar() {\r\n        require(msg.sender == registrar);\r\n        _;\r\n    }\r\n}",
  "sourcePath": "C:\\Users\\Elias\\Documents\\GitHub\\angular-tfg\\truffle\\contracts\\LandRegistry.sol",
  "compiler": {
    "name": "solc",
    "version": "0.4.24+commit.e67f0147.Emscripten.clang"
  },
  "schemaVersion": "2.0.0",
  "updatedAt": "2018-06-12T19:07:29.482Z"
}