{
  "contractName": "MultiAdmin",
  "abi": [
    {
      "constant": true,
      "inputs": [
        {
          "name": "",
          "type": "address"
        }
      ],
      "name": "isAdmin",
      "outputs": [
        {
          "name": "",
          "type": "bool"
        }
      ],
      "payable": false,
      "stateMutability": "view",
      "type": "function"
    },
    {
      "constant": true,
      "inputs": [
        {
          "name": "",
          "type": "address"
        },
        {
          "name": "",
          "type": "uint256"
        }
      ],
      "name": "adminLevel",
      "outputs": [
        {
          "name": "",
          "type": "bool"
        }
      ],
      "payable": false,
      "stateMutability": "view",
      "type": "function"
    },
    {
      "inputs": [],
      "payable": false,
      "stateMutability": "nonpayable",
      "type": "constructor"
    },
    {
      "constant": false,
      "inputs": [
        {
          "name": "admin",
          "type": "address"
        },
        {
          "name": "level",
          "type": "uint256"
        }
      ],
      "name": "addAdmin",
      "outputs": [],
      "payable": false,
      "stateMutability": "nonpayable",
      "type": "function"
    }
  ],
  "bytecode": "0x608060405234801561001057600080fd5b5060016000803373ffffffffffffffffffffffffffffffffffffffff1673ffffffffffffffffffffffffffffffffffffffff16815260200190815260200160002060006101000a81548160ff02191690831515021790555060018060003373ffffffffffffffffffffffffffffffffffffffff1673ffffffffffffffffffffffffffffffffffffffff168152602001908152602001600020600080815260200190815260200160002060006101000a81548160ff021916908315150217905550610367806100df6000396000f300608060405260043610610057576000357c0100000000000000000000000000000000000000000000000000000000900463ffffffff16806324d7806c1461005c5780633297ed8d146100b75780637fcb29c91461011c575b600080fd5b34801561006857600080fd5b5061009d600480360381019080803573ffffffffffffffffffffffffffffffffffffffff169060200190929190505050610169565b604051808215151515815260200191505060405180910390f35b3480156100c357600080fd5b50610102600480360381019080803573ffffffffffffffffffffffffffffffffffffffff16906020019092919080359060200190929190505050610189565b604051808215151515815260200191505060405180910390f35b34801561012857600080fd5b50610167600480360381019080803573ffffffffffffffffffffffffffffffffffffffff169060200190929190803590602001909291905050506101b8565b005b60006020528060005260406000206000915054906101000a900460ff1681565b60016020528160005260406000206020528060005260406000206000915091509054906101000a900460ff1681565b60008060003373ffffffffffffffffffffffffffffffffffffffff1673ffffffffffffffffffffffffffffffffffffffff16815260200190815260200160002060009054906101000a900460ff16801561026c5750600160003373ffffffffffffffffffffffffffffffffffffffff1673ffffffffffffffffffffffffffffffffffffffff168152602001908152602001600020600082815260200190815260200160002060009054906101000a900460ff165b151561027757600080fd5b60016000808573ffffffffffffffffffffffffffffffffffffffff1673ffffffffffffffffffffffffffffffffffffffff16815260200190815260200160002060006101000a81548160ff02191690831515021790555060018060008573ffffffffffffffffffffffffffffffffffffffff1673ffffffffffffffffffffffffffffffffffffffff168152602001908152602001600020600084815260200190815260200160002060006101000a81548160ff0219169083151502179055505050505600a165627a7a72305820f07a6f83f445f175128cc4a2f23c28c4f30eb92da45f8f43654074eb2d2e5fb70029",
  "source": "pragma solidity ^0.4.17;\r\n\r\ncontract MultiAdmin {\r\n    \r\n    mapping(address => bool) public isAdmin;\r\n    mapping(address => mapping(uint => bool)) public adminLevel;\r\n\r\n    function MultiAdmin() public {\r\n        isAdmin[msg.sender] = true;\r\n        adminLevel[msg.sender][0] = true;\r\n    }\r\n\r\n    function addAdmin(address admin, uint level) public onlyAdmin(0) {\r\n        isAdmin[admin] = true;\r\n        adminLevel[admin][level] = true;\r\n    }\r\n\r\n    modifier onlyAdmin(uint requiredLevel) {\r\n        require(isAdmin[msg.sender] && adminLevel[msg.sender][requiredLevel]);\r\n        _;\r\n    }\r\n\r\n    modifier onlyAdmins(uint[] requiredLevels) {\r\n        bool allowed = false;\r\n        for (uint i = 0; i < requiredLevels.length; i++) {\r\n            if (adminLevel[msg.sender][requiredLevels[i]]) {\r\n                allowed = true;\r\n                break;\r\n            }\r\n        }\r\n        require(allowed);\r\n        _;\r\n    }\r\n\r\n    \r\n}",
  "sourcePath": "C:\\Users\\Elias\\Documents\\GitHub\\angular-tfg\\truffle\\contracts\\MultiAdmin.sol",
  "compiler": {
    "name": "solc",
    "version": "0.4.24+commit.e67f0147.Emscripten.clang"
  },
  "schemaVersion": "2.0.0",
  "updatedAt": "2018-06-11T15:13:31.870Z"
}