{
  "contractName": "Property",
  "abi": [
    {
      "constant": true,
      "inputs": [],
      "name": "description",
      "outputs": [
        {
          "name": "",
          "type": "string"
        }
      ],
      "payable": false,
      "stateMutability": "view",
      "type": "function"
    },
    {
      "constant": true,
      "inputs": [],
      "name": "CRU",
      "outputs": [
        {
          "name": "",
          "type": "uint256"
        }
      ],
      "payable": false,
      "stateMutability": "view",
      "type": "function"
    },
    {
      "constant": true,
      "inputs": [],
      "name": "owner",
      "outputs": [
        {
          "name": "",
          "type": "address"
        }
      ],
      "payable": false,
      "stateMutability": "view",
      "type": "function"
    },
    {
      "constant": true,
      "inputs": [],
      "name": "IDUFIR",
      "outputs": [
        {
          "name": "",
          "type": "uint256"
        }
      ],
      "payable": false,
      "stateMutability": "view",
      "type": "function"
    },
    {
      "constant": true,
      "inputs": [],
      "name": "purchaseContract",
      "outputs": [
        {
          "name": "",
          "type": "address"
        }
      ],
      "payable": false,
      "stateMutability": "view",
      "type": "function"
    },
    {
      "constant": true,
      "inputs": [],
      "name": "landRegistry",
      "outputs": [
        {
          "name": "",
          "type": "address"
        }
      ],
      "payable": false,
      "stateMutability": "view",
      "type": "function"
    },
    {
      "inputs": [
        {
          "name": "_IDUFIR",
          "type": "uint256"
        },
        {
          "name": "_CRU",
          "type": "uint256"
        },
        {
          "name": "_description",
          "type": "string"
        },
        {
          "name": "_owner",
          "type": "address"
        },
        {
          "name": "_landRegistry",
          "type": "address"
        }
      ],
      "payable": false,
      "stateMutability": "nonpayable",
      "type": "constructor"
    },
    {
      "constant": true,
      "inputs": [],
      "name": "getPropertyInfo",
      "outputs": [
        {
          "name": "_IDUFIR",
          "type": "uint256"
        },
        {
          "name": "_CRU",
          "type": "uint256"
        },
        {
          "name": "_description",
          "type": "string"
        },
        {
          "name": "_owner",
          "type": "address"
        }
      ],
      "payable": false,
      "stateMutability": "view",
      "type": "function"
    },
    {
      "constant": false,
      "inputs": [
        {
          "name": "_purchaseContract",
          "type": "address"
        }
      ],
      "name": "setPurchaseContract",
      "outputs": [],
      "payable": false,
      "stateMutability": "nonpayable",
      "type": "function"
    },
    {
      "constant": false,
      "inputs": [],
      "name": "resolvePurchase",
      "outputs": [],
      "payable": false,
      "stateMutability": "nonpayable",
      "type": "function"
    }
  ],
  "bytecode": "0x60806040523480156200001157600080fd5b50604051620011ca380380620011ca833981018060405281019080805190602001909291908051906020019092919080518201929190602001805190602001909291908051906020019092919050505080600460006101000a81548173ffffffffffffffffffffffffffffffffffffffff021916908373ffffffffffffffffffffffffffffffffffffffff160217905550600460009054906101000a900473ffffffffffffffffffffffffffffffffffffffff1673ffffffffffffffffffffffffffffffffffffffff16632b20e3976040518163ffffffff167c0100000000000000000000000000000000000000000000000000000000028152600401602060405180830381600087803b1580156200012957600080fd5b505af11580156200013e573d6000803e3d6000fd5b505050506040513d60208110156200015557600080fd5b810190808051906020019092919050505073ffffffffffffffffffffffffffffffffffffffff163373ffffffffffffffffffffffffffffffffffffffff16141515620001a057600080fd5b84600081905550836001819055508260029080519060200190620001c692919062000213565b5081600360006101000a81548173ffffffffffffffffffffffffffffffffffffffff021916908373ffffffffffffffffffffffffffffffffffffffff1602179055505050505050620002c2565b828054600181600116156101000203166002900490600052602060002090601f016020900481019282601f106200025657805160ff191683800117855562000287565b8280016001018555821562000287579182015b828111156200028657825182559160200191906001019062000269565b5b5090506200029691906200029a565b5090565b620002bf91905b80821115620002bb576000816000905550600101620002a1565b5090565b90565b610ef880620002d26000396000f300608060405260043610610099576000357c0100000000000000000000000000000000000000000000000000000000900463ffffffff1680635de5f3be1461009e5780637284e4161461016f5780637a1ba234146101ff5780638da5cb5b1461022a578063a670353c14610281578063aa9f37f0146102ac578063bd4dc02414610303578063e43a460a1461035a578063f010655a1461039d575b600080fd5b3480156100aa57600080fd5b506100b36103b4565b60405180858152602001848152602001806020018373ffffffffffffffffffffffffffffffffffffffff1673ffffffffffffffffffffffffffffffffffffffff168152602001828103825284818151815260200191508051906020019080838360005b83811015610131578082015181840152602081019050610116565b50505050905090810190601f16801561015e5780820380516001836020036101000a031916815260200191505b509550505050505060405180910390f35b34801561017b57600080fd5b5061018461048f565b6040518080602001828103825283818151815260200191508051906020019080838360005b838110156101c45780820151818401526020810190506101a9565b50505050905090810190601f1680156101f15780820380516001836020036101000a031916815260200191505b509250505060405180910390f35b34801561020b57600080fd5b5061021461052d565b6040518082815260200191505060405180910390f35b34801561023657600080fd5b5061023f610533565b604051808273ffffffffffffffffffffffffffffffffffffffff1673ffffffffffffffffffffffffffffffffffffffff16815260200191505060405180910390f35b34801561028d57600080fd5b50610296610559565b6040518082815260200191505060405180910390f35b3480156102b857600080fd5b506102c161055f565b604051808273ffffffffffffffffffffffffffffffffffffffff1673ffffffffffffffffffffffffffffffffffffffff16815260200191505060405180910390f35b34801561030f57600080fd5b50610318610585565b604051808273ffffffffffffffffffffffffffffffffffffffff1673ffffffffffffffffffffffffffffffffffffffff16815260200191505060405180910390f35b34801561036657600080fd5b5061039b600480360381019080803573ffffffffffffffffffffffffffffffffffffffff1690602001909291905050506105ab565b005b3480156103a957600080fd5b506103b2610a72565b005b6000806060600080546001546002600360009054906101000a900473ffffffffffffffffffffffffffffffffffffffff16818054600181600116156101000203166002900480601f01602080910402602001604051908101604052809291908181526020018280546001816001161561010002031660029004801561047a5780601f1061044f5761010080835404028352916020019161047a565b820191906000526020600020905b81548152906001019060200180831161045d57829003601f168201915b50505050509150935093509350935090919293565b60028054600181600116156101000203166002900480601f0160208091040260200160405190810160405280929190818152602001828054600181600116156101000203166002900480156105255780601f106104fa57610100808354040283529160200191610525565b820191906000526020600020905b81548152906001019060200180831161050857829003601f168201915b505050505081565b60015481565b600360009054906101000a900473ffffffffffffffffffffffffffffffffffffffff1681565b60005481565b600560009054906101000a900473ffffffffffffffffffffffffffffffffffffffff1681565b600460009054906101000a900473ffffffffffffffffffffffffffffffffffffffff1681565b600360009054906101000a900473ffffffffffffffffffffffffffffffffffffffff1673ffffffffffffffffffffffffffffffffffffffff163373ffffffffffffffffffffffffffffffffffffffff1614151561060757600080fd5b600073ffffffffffffffffffffffffffffffffffffffff16600560009054906101000a900473ffffffffffffffffffffffffffffffffffffffff1673ffffffffffffffffffffffffffffffffffffffff1614151561066457600080fd5b80600560006101000a81548173ffffffffffffffffffffffffffffffffffffffff021916908373ffffffffffffffffffffffffffffffffffffffff1602179055503073ffffffffffffffffffffffffffffffffffffffff16600560009054906101000a900473ffffffffffffffffffffffffffffffffffffffff1673ffffffffffffffffffffffffffffffffffffffff1663176fd3f06040518163ffffffff167c0100000000000000000000000000000000000000000000000000000000028152600401602060405180830381600087803b15801561074257600080fd5b505af1158015610756573d6000803e3d6000fd5b505050506040513d602081101561076c57600080fd5b810190808051906020019092919050505073ffffffffffffffffffffffffffffffffffffffff161480156108ad5750600360009054906101000a900473ffffffffffffffffffffffffffffffffffffffff1673ffffffffffffffffffffffffffffffffffffffff16600560009054906101000a900473ffffffffffffffffffffffffffffffffffffffff1673ffffffffffffffffffffffffffffffffffffffff1663dbd0e1b66040518163ffffffff167c0100000000000000000000000000000000000000000000000000000000028152600401602060405180830381600087803b15801561085a57600080fd5b505af115801561086e573d6000803e3d6000fd5b505050506040513d602081101561088457600080fd5b810190808051906020019092919050505073ffffffffffffffffffffffffffffffffffffffff16145b8015610a645750600460009054906101000a900473ffffffffffffffffffffffffffffffffffffffff1673ffffffffffffffffffffffffffffffffffffffff16632b20e3976040518163ffffffff167c0100000000000000000000000000000000000000000000000000000000028152600401602060405180830381600087803b15801561093a57600080fd5b505af115801561094e573d6000803e3d6000fd5b505050506040513d602081101561096457600080fd5b810190808051906020019092919050505073ffffffffffffffffffffffffffffffffffffffff16600560009054906101000a900473ffffffffffffffffffffffffffffffffffffffff1673ffffffffffffffffffffffffffffffffffffffff16634d3f73346040518163ffffffff167c0100000000000000000000000000000000000000000000000000000000028152600401602060405180830381600087803b158015610a1157600080fd5b505af1158015610a25573d6000803e3d6000fd5b505050506040513d6020811015610a3b57600080fd5b810190808051906020019092919050505073ffffffffffffffffffffffffffffffffffffffff16145b1515610a6f57600080fd5b50565b600560009054906101000a900473ffffffffffffffffffffffffffffffffffffffff1673ffffffffffffffffffffffffffffffffffffffff163373ffffffffffffffffffffffffffffffffffffffff16148015610b8c5750600560009054906101000a900473ffffffffffffffffffffffffffffffffffffffff1673ffffffffffffffffffffffffffffffffffffffff16637ae46b866040518163ffffffff167c0100000000000000000000000000000000000000000000000000000000028152600401602060405180830381600087803b158015610b5057600080fd5b505af1158015610b64573d6000803e3d6000fd5b505050506040513d6020811015610b7a57600080fd5b81019080805190602001909291905050505b1515610b9757600080fd5b600560009054906101000a900473ffffffffffffffffffffffffffffffffffffffff1673ffffffffffffffffffffffffffffffffffffffff166254b5cd6040518163ffffffff167c0100000000000000000000000000000000000000000000000000000000028152600401602060405180830381600087803b158015610c1c57600080fd5b505af1158015610c30573d6000803e3d6000fd5b505050506040513d6020811015610c4657600080fd5b810190808051906020019092919050505015610de757610de6600560009054906101000a900473ffffffffffffffffffffffffffffffffffffffff1673ffffffffffffffffffffffffffffffffffffffff1663dbd0e1b66040518163ffffffff167c0100000000000000000000000000000000000000000000000000000000028152600401602060405180830381600087803b158015610ce557600080fd5b505af1158015610cf9573d6000803e3d6000fd5b505050506040513d6020811015610d0f57600080fd5b8101908080519060200190929190505050600560009054906101000a900473ffffffffffffffffffffffffffffffffffffffff1673ffffffffffffffffffffffffffffffffffffffff1663603daf9a6040518163ffffffff167c0100000000000000000000000000000000000000000000000000000000028152600401602060405180830381600087803b158015610da657600080fd5b505af1158015610dba573d6000803e3d6000fd5b505050506040513d6020811015610dd057600080fd5b8101908080519060200190929190505050610e2b565b5b6000600560006101000a81548173ffffffffffffffffffffffffffffffffffffffff021916908373ffffffffffffffffffffffffffffffffffffffff160217905550565b600360009054906101000a900473ffffffffffffffffffffffffffffffffffffffff1673ffffffffffffffffffffffffffffffffffffffff168273ffffffffffffffffffffffffffffffffffffffff16141515610e8757600080fd5b80600360006101000a81548173ffffffffffffffffffffffffffffffffffffffff021916908373ffffffffffffffffffffffffffffffffffffffff16021790555050505600a165627a7a72305820b75cefdf879233b64da137f33786ef1c6fb3a35bb96203143c32626a8b4764800029",
  "source": "pragma solidity ^0.4.17;\r\n\r\nimport \"./LandRegistry.sol\";\r\nimport \"./PurchaseContract.sol\";\r\n\r\ncontract Property {\r\n\r\n    /***********************************************\r\n     *  Property Attributes\r\n     */\r\n\r\n    uint public IDUFIR;\r\n    uint public CRU;\r\n    string public description;\r\n    address public owner;\r\n    LandRegistry public landRegistry;\r\n    PurchaseContract public purchaseContract;\r\n\r\n    function Property(uint _IDUFIR, uint _CRU, string _description, address _owner, address _landRegistry) public {\r\n        landRegistry = LandRegistry(_landRegistry);\r\n        require(msg.sender == landRegistry.registrar());\r\n        IDUFIR = _IDUFIR;\r\n        CRU = _CRU;\r\n        description = _description;\r\n        owner = _owner;\r\n        \r\n    }\r\n\r\n    /***********************************************\r\n     *  Property Getters\r\n     */\r\n\r\n    function getPropertyInfo() public view returns (uint _IDUFIR, uint _CRU, string _description, address _owner) {\r\n        return (IDUFIR, CRU, description, owner);\r\n    }\r\n\r\n    /***********************************************\r\n     *  Property Logics\r\n     */\r\n\r\n    function setPurchaseContract(address _purchaseContract) public onlyOwner {\r\n        require(purchaseContract == PurchaseContract(0));\r\n        purchaseContract = PurchaseContract(_purchaseContract);\r\n        require(purchaseContract.property() == address(this) && purchaseContract.getSeller() == owner && purchaseContract.getRegistrar() == landRegistry.registrar());\r\n    }\r\n\r\n    function resolvePurchase() public {\r\n        require(msg.sender == address(purchaseContract) && purchaseContract.hasCalificated());\r\n        if(purchaseContract.calification()) {\r\n            transferOwnership(purchaseContract.getSeller(), purchaseContract.getBuyer());\r\n        } \r\n        purchaseContract = PurchaseContract(0); \r\n    }\r\n\r\n    function transferOwnership(address currentOwner, address newOwner) internal  {\r\n        require(currentOwner == owner);\r\n        owner = newOwner;\r\n    }\r\n\r\n    modifier onlyOwner() {\r\n        require(msg.sender == owner);\r\n        _;\r\n    }\r\n}",
  "sourcePath": "C:\\Users\\Elias\\Documents\\GitHub\\angular-tfg\\truffle\\contracts\\Property.sol",
  "compiler": {
    "name": "solc",
    "version": "0.4.24+commit.e67f0147.Emscripten.clang"
  },
  "schemaVersion": "2.0.0",
  "updatedAt": "2018-06-08T18:31:14.801Z"
}