{
  "contractName": "PurchaseAndSale",
  "abi": [
    {
      "constant": true,
      "inputs": [
        {
          "name": "",
          "type": "address"
        }
      ],
      "name": "signer",
      "outputs": [
        {
          "name": "validated",
          "type": "bool"
        },
        {
          "name": "signed",
          "type": "bool"
        },
        {
          "name": "earnestMoneyPaid",
          "type": "uint256"
        },
        {
          "name": "totalDue",
          "type": "uint256"
        },
        {
          "name": "totalPaid",
          "type": "uint256"
        },
        {
          "name": "canceled",
          "type": "bool"
        }
      ],
      "payable": false,
      "stateMutability": "view",
      "type": "function"
    },
    {
      "constant": true,
      "inputs": [],
      "name": "seller",
      "outputs": [
        {
          "name": "",
          "type": "address"
        }
      ],
      "payable": false,
      "stateMutability": "view",
      "type": "function"
    },
    {
      "constant": true,
      "inputs": [],
      "name": "earnestMoney",
      "outputs": [
        {
          "name": "",
          "type": "uint256"
        }
      ],
      "payable": false,
      "stateMutability": "view",
      "type": "function"
    },
    {
      "constant": true,
      "inputs": [],
      "name": "property",
      "outputs": [
        {
          "name": "",
          "type": "address"
        }
      ],
      "payable": false,
      "stateMutability": "view",
      "type": "function"
    },
    {
      "constant": true,
      "inputs": [],
      "name": "euroToken",
      "outputs": [
        {
          "name": "",
          "type": "address"
        }
      ],
      "payable": false,
      "stateMutability": "view",
      "type": "function"
    },
    {
      "constant": true,
      "inputs": [],
      "name": "qualification",
      "outputs": [
        {
          "name": "",
          "type": "bool"
        }
      ],
      "payable": false,
      "stateMutability": "view",
      "type": "function"
    },
    {
      "constant": true,
      "inputs": [],
      "name": "purchaseAndSaleContractHash",
      "outputs": [
        {
          "name": "",
          "type": "string"
        }
      ],
      "payable": false,
      "stateMutability": "view",
      "type": "function"
    },
    {
      "constant": true,
      "inputs": [],
      "name": "buyer",
      "outputs": [
        {
          "name": "",
          "type": "address"
        }
      ],
      "payable": false,
      "stateMutability": "view",
      "type": "function"
    },
    {
      "constant": true,
      "inputs": [],
      "name": "publicFinance",
      "outputs": [
        {
          "name": "",
          "type": "address"
        }
      ],
      "payable": false,
      "stateMutability": "view",
      "type": "function"
    },
    {
      "constant": true,
      "inputs": [],
      "name": "notary",
      "outputs": [
        {
          "name": "",
          "type": "address"
        }
      ],
      "payable": false,
      "stateMutability": "view",
      "type": "function"
    },
    {
      "constant": true,
      "inputs": [],
      "name": "price",
      "outputs": [
        {
          "name": "",
          "type": "uint256"
        }
      ],
      "payable": false,
      "stateMutability": "view",
      "type": "function"
    },
    {
      "constant": true,
      "inputs": [],
      "name": "state",
      "outputs": [
        {
          "name": "",
          "type": "uint8"
        }
      ],
      "payable": false,
      "stateMutability": "view",
      "type": "function"
    },
    {
      "inputs": [
        {
          "name": "_property",
          "type": "address"
        },
        {
          "name": "_buyer",
          "type": "address"
        },
        {
          "name": "_price",
          "type": "uint256"
        },
        {
          "name": "_earnestMoney",
          "type": "uint256"
        }
      ],
      "payable": false,
      "stateMutability": "nonpayable",
      "type": "constructor"
    },
    {
      "constant": false,
      "inputs": [],
      "name": "cancel",
      "outputs": [],
      "payable": false,
      "stateMutability": "nonpayable",
      "type": "function"
    },
    {
      "constant": false,
      "inputs": [
        {
          "name": "_notary",
          "type": "address"
        }
      ],
      "name": "addNotary",
      "outputs": [],
      "payable": false,
      "stateMutability": "nonpayable",
      "type": "function"
    },
    {
      "constant": false,
      "inputs": [],
      "name": "payEarnestMoney",
      "outputs": [],
      "payable": false,
      "stateMutability": "nonpayable",
      "type": "function"
    },
    {
      "constant": false,
      "inputs": [
        {
          "name": "_purchaseAndSaleContractHash",
          "type": "string"
        }
      ],
      "name": "setPurchaseAndSaleContractHash",
      "outputs": [],
      "payable": false,
      "stateMutability": "nonpayable",
      "type": "function"
    },
    {
      "constant": false,
      "inputs": [
        {
          "name": "_purchaseAndSaleContractHash",
          "type": "string"
        }
      ],
      "name": "validatePurchaseAndSaleContractHash",
      "outputs": [],
      "payable": false,
      "stateMutability": "nonpayable",
      "type": "function"
    },
    {
      "constant": false,
      "inputs": [],
      "name": "payOutstandingPayments",
      "outputs": [],
      "payable": false,
      "stateMutability": "nonpayable",
      "type": "function"
    },
    {
      "constant": false,
      "inputs": [],
      "name": "sign",
      "outputs": [],
      "payable": false,
      "stateMutability": "nonpayable",
      "type": "function"
    },
    {
      "constant": false,
      "inputs": [
        {
          "name": "_qualification",
          "type": "bool"
        }
      ],
      "name": "qualify",
      "outputs": [],
      "payable": false,
      "stateMutability": "nonpayable",
      "type": "function"
    },
    {
      "constant": true,
      "inputs": [],
      "name": "getPurchaseAndSaleInfo",
      "outputs": [
        {
          "name": "_property",
          "type": "address"
        },
        {
          "name": "_publicFinance",
          "type": "address"
        },
        {
          "name": "_euroToken",
          "type": "address"
        },
        {
          "name": "_state",
          "type": "uint256"
        },
        {
          "name": "_price",
          "type": "uint256"
        },
        {
          "name": "_earnestMoney",
          "type": "uint256"
        },
        {
          "name": "_purchaseAndSaleContractHash",
          "type": "string"
        },
        {
          "name": "_qualification",
          "type": "bool"
        },
        {
          "name": "_seller",
          "type": "address"
        },
        {
          "name": "_buyer",
          "type": "address"
        },
        {
          "name": "_notary",
          "type": "address"
        }
      ],
      "payable": false,
      "stateMutability": "view",
      "type": "function"
    },
    {
      "constant": true,
      "inputs": [
        {
          "name": "_signer",
          "type": "address"
        }
      ],
      "name": "getSignerInfo",
      "outputs": [
        {
          "name": "_validated",
          "type": "bool"
        },
        {
          "name": "_signed",
          "type": "bool"
        },
        {
          "name": "_earnestMoneyPaid",
          "type": "uint256"
        },
        {
          "name": "_totalDue",
          "type": "uint256"
        },
        {
          "name": "_totalPaid",
          "type": "uint256"
        },
        {
          "name": "_canceled",
          "type": "bool"
        }
      ],
      "payable": false,
      "stateMutability": "view",
      "type": "function"
    },
    {
      "constant": true,
      "inputs": [
        {
          "name": "_signer",
          "type": "address"
        }
      ],
      "name": "getSignerPaymentRecipients",
      "outputs": [
        {
          "name": "_recipients",
          "type": "address[]"
        }
      ],
      "payable": false,
      "stateMutability": "view",
      "type": "function"
    },
    {
      "constant": true,
      "inputs": [
        {
          "name": "_signer",
          "type": "address"
        },
        {
          "name": "_recipient",
          "type": "address"
        }
      ],
      "name": "getSignerDueWith",
      "outputs": [
        {
          "name": "_due",
          "type": "uint256"
        }
      ],
      "payable": false,
      "stateMutability": "view",
      "type": "function"
    },
    {
      "constant": true,
      "inputs": [
        {
          "name": "unknown",
          "type": "address"
        }
      ],
      "name": "isSeller",
      "outputs": [
        {
          "name": "",
          "type": "bool"
        }
      ],
      "payable": false,
      "stateMutability": "view",
      "type": "function"
    },
    {
      "constant": true,
      "inputs": [
        {
          "name": "unknown",
          "type": "address"
        }
      ],
      "name": "isBuyer",
      "outputs": [
        {
          "name": "",
          "type": "bool"
        }
      ],
      "payable": false,
      "stateMutability": "view",
      "type": "function"
    },
    {
      "constant": true,
      "inputs": [
        {
          "name": "unknown",
          "type": "address"
        }
      ],
      "name": "isNotary",
      "outputs": [
        {
          "name": "",
          "type": "bool"
        }
      ],
      "payable": false,
      "stateMutability": "view",
      "type": "function"
    },
    {
      "constant": true,
      "inputs": [
        {
          "name": "unknown",
          "type": "address"
        }
      ],
      "name": "isRegistrar",
      "outputs": [
        {
          "name": "",
          "type": "bool"
        }
      ],
      "payable": false,
      "stateMutability": "view",
      "type": "function"
    },
    {
      "constant": true,
      "inputs": [
        {
          "name": "unknown",
          "type": "address"
        }
      ],
      "name": "isSigner",
      "outputs": [
        {
          "name": "",
          "type": "bool"
        }
      ],
      "payable": false,
      "stateMutability": "view",
      "type": "function"
    },
    {
      "constant": true,
      "inputs": [],
      "name": "hasBeenCanceled",
      "outputs": [
        {
          "name": "",
          "type": "bool"
        }
      ],
      "payable": false,
      "stateMutability": "view",
      "type": "function"
    },
    {
      "constant": true,
      "inputs": [],
      "name": "hasBeenQualified",
      "outputs": [
        {
          "name": "",
          "type": "bool"
        }
      ],
      "payable": false,
      "stateMutability": "view",
      "type": "function"
    }
  ],
  "bytecode": "0x60806040523480156200001157600080fd5b5060405160808062004f9783398101806040528101908080519060200190929190805190602001909291908051906020019092919080519060200190929190505050838073ffffffffffffffffffffffffffffffffffffffff16638da5cb5b6040518163ffffffff167c0100000000000000000000000000000000000000000000000000000000028152600401602060405180830381600087803b158015620000b957600080fd5b505af1158015620000ce573d6000803e3d6000fd5b505050506040513d6020811015620000e557600080fd5b810190808051906020019092919050505073ffffffffffffffffffffffffffffffffffffffff163373ffffffffffffffffffffffffffffffffffffffff161415156200013057600080fd5b81831115156200013f57600080fd5b846000806101000a81548173ffffffffffffffffffffffffffffffffffffffff021916908373ffffffffffffffffffffffffffffffffffffffff1602179055506000809054906101000a900473ffffffffffffffffffffffffffffffffffffffff1673ffffffffffffffffffffffffffffffffffffffff1663bd4dc0246040518163ffffffff167c0100000000000000000000000000000000000000000000000000000000028152600401602060405180830381600087803b1580156200020557600080fd5b505af11580156200021a573d6000803e3d6000fd5b505050506040513d60208110156200023157600080fd5b810190808051906020019092919050505073ffffffffffffffffffffffffffffffffffffffff1663941005cf6040518163ffffffff167c0100000000000000000000000000000000000000000000000000000000028152600401602060405180830381600087803b158015620002a657600080fd5b505af1158015620002bb573d6000803e3d6000fd5b505050506040513d6020811015620002d257600080fd5b8101908080519060200190929190505050600160006101000a81548173ffffffffffffffffffffffffffffffffffffffff021916908373ffffffffffffffffffffffffffffffffffffffff160217905550600160009054906101000a900473ffffffffffffffffffffffffffffffffffffffff1673ffffffffffffffffffffffffffffffffffffffff16632dfb39fd6040518163ffffffff167c0100000000000000000000000000000000000000000000000000000000028152600401602060405180830381600087803b158015620003aa57600080fd5b505af1158015620003bf573d6000803e3d6000fd5b505050506040513d6020811015620003d657600080fd5b8101908080519060200190929190505050600260006101000a81548173ffffffffffffffffffffffffffffffffffffffff021916908373ffffffffffffffffffffffffffffffffffffffff1602179055506000600260146101000a81548160ff021916908360088111156200044757fe5b021790555082600381905550816004819055506000809054906101000a900473ffffffffffffffffffffffffffffffffffffffff1673ffffffffffffffffffffffffffffffffffffffff16638da5cb5b6040518163ffffffff167c0100000000000000000000000000000000000000000000000000000000028152600401602060405180830381600087803b158015620004e057600080fd5b505af1158015620004f5573d6000803e3d6000fd5b505050506040513d60208110156200050c57600080fd5b8101908080519060200190929190505050600660016101000a81548173ffffffffffffffffffffffffffffffffffffffff021916908373ffffffffffffffffffffffffffffffffffffffff16021790555083600760006101000a81548173ffffffffffffffffffffffffffffffffffffffff021916908373ffffffffffffffffffffffffffffffffffffffff160217905550620006f6600760009054906101000a900473ffffffffffffffffffffffffffffffffffffffff16600160009054906101000a900473ffffffffffffffffffffffffffffffffffffffff16600160009054906101000a900473ffffffffffffffffffffffffffffffffffffffff1673ffffffffffffffffffffffffffffffffffffffff16630c31290d6003546040518263ffffffff167c010000000000000000000000000000000000000000000000000000000002815260040180807f4954500000000000000000000000000000000000000000000000000000000000815250602001828152602001915050602060405180830381600087803b158015620006a457600080fd5b505af1158015620006b9573d6000803e3d6000fd5b505050506040513d6020811015620006d057600080fd5b810190808051906020019092919050505062000767640100000000026401000000009004565b6200075c600760009054906101000a900473ffffffffffffffffffffffffffffffffffffffff16600660019054906101000a900473ffffffffffffffffffffffffffffffffffffffff166004546003540362000767640100000000026401000000009004565b505050505062000b28565b620007818362000a74640100000000026401000000009004565b80620007a35750620007a28362000ace640100000000026401000000009004565b5b1515620007af57600080fd5b6000600860008573ffffffffffffffffffffffffffffffffffffffff1673ffffffffffffffffffffffffffffffffffffffff16815260200190815260200160002060050160008473ffffffffffffffffffffffffffffffffffffffff1673ffffffffffffffffffffffffffffffffffffffff168152602001908152602001600020541415620008df57600860008473ffffffffffffffffffffffffffffffffffffffff1673ffffffffffffffffffffffffffffffffffffffff1681526020019081526020016000206004018290806001815401808255809150509060018203906000526020600020016000909192909190916101000a81548173ffffffffffffffffffffffffffffffffffffffff021916908373ffffffffffffffffffffffffffffffffffffffff160217905550505b80600860008573ffffffffffffffffffffffffffffffffffffffff1673ffffffffffffffffffffffffffffffffffffffff16815260200190815260200160002060050160008473ffffffffffffffffffffffffffffffffffffffff1673ffffffffffffffffffffffffffffffffffffffff1681526020019081526020016000205401600860008573ffffffffffffffffffffffffffffffffffffffff1673ffffffffffffffffffffffffffffffffffffffff16815260200190815260200160002060050160008473ffffffffffffffffffffffffffffffffffffffff1673ffffffffffffffffffffffffffffffffffffffff1681526020019081526020016000208190555080600860008573ffffffffffffffffffffffffffffffffffffffff1673ffffffffffffffffffffffffffffffffffffffff1681526020019081526020016000206002015401600860008573ffffffffffffffffffffffffffffffffffffffff1673ffffffffffffffffffffffffffffffffffffffff16815260200190815260200160002060020181905550505050565b6000600660019054906101000a900473ffffffffffffffffffffffffffffffffffffffff1673ffffffffffffffffffffffffffffffffffffffff168273ffffffffffffffffffffffffffffffffffffffff16149050919050565b6000600760009054906101000a900473ffffffffffffffffffffffffffffffffffffffff1673ffffffffffffffffffffffffffffffffffffffff168273ffffffffffffffffffffffffffffffffffffffff16149050919050565b61445f8062000b386000396000f30060806040526004361061018b576000357c0100000000000000000000000000000000000000000000000000000000900463ffffffff1680630536b723146101905780630588565f1461021657806308551a53146102595780630b3ed30f146102b0578063176fd3f0146102db57806318ab0f7e146103325780632a55feec146103495780632ca15122146103a45780632dfb39fd146103bb5780633b2c22b01461041257806344c4ba3e146104415780634f58bff6146104aa5780635d0e2195146104d95780636d8529f8146105695780637150d8ae1461074b5780637df73e27146107a257806391b227ee146107fd578063941005cf146108745780639d54c79d146108cb578063a035b1fe14610922578063a4a6a36a1461094d578063c19d93fb146109e5578063c5c4ab0314610a1e578063d5db72eb14610a4d578063e2a3962d14610aa8578063ea8a1af014610ad7578063ed56b3e114610aee578063ee95feaf14610b74578063f13eed9714610bcf578063f2aee0a614610c2a578063f91de6f514610c41575b600080fd5b34801561019c57600080fd5b506101d1600480360381019080803573ffffffffffffffffffffffffffffffffffffffff169060200190929190505050610caa565b60405180871515151581526020018615151515815260200185815260200184815260200183815260200182151515158152602001965050505050505060405180910390f35b34801561022257600080fd5b50610257600480360381019080803573ffffffffffffffffffffffffffffffffffffffff169060200190929190505050610d0d565b005b34801561026557600080fd5b5061026e610da5565b604051808273ffffffffffffffffffffffffffffffffffffffff1673ffffffffffffffffffffffffffffffffffffffff16815260200191505060405180910390f35b3480156102bc57600080fd5b506102c5610dcb565b6040518082815260200191505060405180910390f35b3480156102e757600080fd5b506102f0610dd1565b604051808273ffffffffffffffffffffffffffffffffffffffff1673ffffffffffffffffffffffffffffffffffffffff16815260200191505060405180910390f35b34801561033e57600080fd5b50610347610df6565b005b34801561035557600080fd5b5061038a600480360381019080803573ffffffffffffffffffffffffffffffffffffffff1690602001909291905050506115cc565b604051808215151515815260200191505060405180910390f35b3480156103b057600080fd5b506103b9611626565b005b3480156103c757600080fd5b506103d0611823565b604051808273ffffffffffffffffffffffffffffffffffffffff1673ffffffffffffffffffffffffffffffffffffffff16815260200191505060405180910390f35b34801561041e57600080fd5b50610427611849565b604051808215151515815260200191505060405180910390f35b34801561044d57600080fd5b506104a8600480360381019080803590602001908201803590602001908080601f016020809104026020016040519081016040528093929190818152602001838380828437820191505050505050919291929050505061185c565b005b3480156104b657600080fd5b506104bf6118da565b604051808215151515815260200191505060405180910390f35b3480156104e557600080fd5b506104ee611909565b6040518080602001828103825283818151815260200191508051906020019080838360005b8381101561052e578082015181840152602081019050610513565b50505050905090810190601f16801561055b5780820380516001836020036101000a031916815260200191505b509250505060405180910390f35b34801561057557600080fd5b5061057e6119a7565b604051808c73ffffffffffffffffffffffffffffffffffffffff1673ffffffffffffffffffffffffffffffffffffffff1681526020018b73ffffffffffffffffffffffffffffffffffffffff1673ffffffffffffffffffffffffffffffffffffffff1681526020018a73ffffffffffffffffffffffffffffffffffffffff1673ffffffffffffffffffffffffffffffffffffffff16815260200189815260200188815260200187815260200180602001861515151581526020018573ffffffffffffffffffffffffffffffffffffffff1673ffffffffffffffffffffffffffffffffffffffff1681526020018473ffffffffffffffffffffffffffffffffffffffff1673ffffffffffffffffffffffffffffffffffffffff1681526020018373ffffffffffffffffffffffffffffffffffffffff1673ffffffffffffffffffffffffffffffffffffffff168152602001828103825287818151815260200191508051906020019080838360005b838110156107065780820151818401526020810190506106eb565b50505050905090810190601f1680156107335780820380516001836020036101000a031916815260200191505b509c5050505050505050505050505060405180910390f35b34801561075757600080fd5b50610760611b84565b604051808273ffffffffffffffffffffffffffffffffffffffff1673ffffffffffffffffffffffffffffffffffffffff16815260200191505060405180910390f35b3480156107ae57600080fd5b506107e3600480360381019080803573ffffffffffffffffffffffffffffffffffffffff169060200190929190505050611baa565b604051808215151515815260200191505060405180910390f35b34801561080957600080fd5b5061085e600480360381019080803573ffffffffffffffffffffffffffffffffffffffff169060200190929190803573ffffffffffffffffffffffffffffffffffffffff169060200190929190505050611bcc565b6040518082815260200191505060405180910390f35b34801561088057600080fd5b50610889611c56565b604051808273ffffffffffffffffffffffffffffffffffffffff1673ffffffffffffffffffffffffffffffffffffffff16815260200191505060405180910390f35b3480156108d757600080fd5b506108e0611c7c565b604051808273ffffffffffffffffffffffffffffffffffffffff1673ffffffffffffffffffffffffffffffffffffffff16815260200191505060405180910390f35b34801561092e57600080fd5b50610937611ca2565b6040518082815260200191505060405180910390f35b34801561095957600080fd5b5061098e600480360381019080803573ffffffffffffffffffffffffffffffffffffffff169060200190929190505050611ca8565b6040518080602001828103825283818151815260200191508051906020019060200280838360005b838110156109d15780820151818401526020810190506109b6565b505050509050019250505060405180910390f35b3480156109f157600080fd5b506109fa611d78565b60405180826008811115610a0a57fe5b60ff16815260200191505060405180910390f35b348015610a2a57600080fd5b50610a4b600480360381019080803515159060200190929190505050611d8b565b005b348015610a5957600080fd5b50610a8e600480360381019080803573ffffffffffffffffffffffffffffffffffffffff169060200190929190505050611ec4565b604051808215151515815260200191505060405180910390f35b348015610ab457600080fd5b50610abd612059565b604051808215151515815260200191505060405180910390f35b348015610ae357600080fd5b50610aec612089565b005b348015610afa57600080fd5b50610b2f600480360381019080803573ffffffffffffffffffffffffffffffffffffffff169060200190929190505050612bc0565b60405180871515151581526020018615151515815260200185815260200184815260200183815260200182151515158152602001965050505050505060405180910390f35b348015610b8057600080fd5b50610bb5600480360381019080803573ffffffffffffffffffffffffffffffffffffffff169060200190929190505050612d97565b604051808215151515815260200191505060405180910390f35b348015610bdb57600080fd5b50610c10600480360381019080803573ffffffffffffffffffffffffffffffffffffffff169060200190929190505050612df1565b604051808215151515815260200191505060405180910390f35b348015610c3657600080fd5b50610c3f612e4b565b005b348015610c4d57600080fd5b50610ca8600480360381019080803590602001908201803590602001908080601f01602080910402602001604051908101604052809392919081815260200183838082843782019150505050505091929192905050506134dd565b005b60086020528060005260406000206000915090508060000160009054906101000a900460ff16908060000160019054906101000a900460ff16908060010154908060020154908060030154908060060160009054906101000a900460ff16905086565b610d16336115cc565b1515610d2157600080fd5b6000806008811115610d2f57fe5b600260149054906101000a900460ff166008811115610d4a57fe5b141515610d5657600080fd5b81600960006101000a81548173ffffffffffffffffffffffffffffffffffffffff021916908373ffffffffffffffffffffffffffffffffffffffff160217905550610da1600161375d565b5050565b600660019054906101000a900473ffffffffffffffffffffffffffffffffffffffff1681565b60045481565b6000809054906101000a900473ffffffffffffffffffffffffffffffffffffffff1681565b600080610e0233611baa565b1515610e0d57600080fd5b6004806008811115610e1b57fe5b600260149054906101000a900460ff166008811115610e3657fe5b141515610e4257600080fd5b600860003373ffffffffffffffffffffffffffffffffffffffff1673ffffffffffffffffffffffffffffffffffffffff16815260200190815260200160002060020154600860003373ffffffffffffffffffffffffffffffffffffffff1673ffffffffffffffffffffffffffffffffffffffff168152602001908152602001600020600301541415610ed357600080fd5b600260009054906101000a900473ffffffffffffffffffffffffffffffffffffffff1673ffffffffffffffffffffffffffffffffffffffff1663dd62ed3e33306040518363ffffffff167c0100000000000000000000000000000000000000000000000000000000028152600401808373ffffffffffffffffffffffffffffffffffffffff1673ffffffffffffffffffffffffffffffffffffffff1681526020018273ffffffffffffffffffffffffffffffffffffffff1673ffffffffffffffffffffffffffffffffffffffff16815260200192505050602060405180830381600087803b158015610fc457600080fd5b505af1158015610fd8573d6000803e3d6000fd5b505050506040513d6020811015610fee57600080fd5b81019080805190602001909291905050509250600860003373ffffffffffffffffffffffffffffffffffffffff1673ffffffffffffffffffffffffffffffffffffffff16815260200190815260200160002060030154600860003373ffffffffffffffffffffffffffffffffffffffff1673ffffffffffffffffffffffffffffffffffffffff16815260200190815260200160002060020154039150818310151561125857600260009054906101000a900473ffffffffffffffffffffffffffffffffffffffff1673ffffffffffffffffffffffffffffffffffffffff166323b872dd3330856040518463ffffffff167c0100000000000000000000000000000000000000000000000000000000028152600401808473ffffffffffffffffffffffffffffffffffffffff1673ffffffffffffffffffffffffffffffffffffffff1681526020018373ffffffffffffffffffffffffffffffffffffffff1673ffffffffffffffffffffffffffffffffffffffff1681526020018281526020019350505050602060405180830381600087803b15801561118c57600080fd5b505af11580156111a0573d6000803e3d6000fd5b505050506040513d60208110156111b657600080fd5b81019080805190602001909291905050505081600860003373ffffffffffffffffffffffffffffffffffffffff1673ffffffffffffffffffffffffffffffffffffffff1681526020019081526020016000206003015401600860003373ffffffffffffffffffffffffffffffffffffffff1673ffffffffffffffffffffffffffffffffffffffff16815260200190815260200160002060030181905550611419565b600260009054906101000a900473ffffffffffffffffffffffffffffffffffffffff1673ffffffffffffffffffffffffffffffffffffffff166323b872dd3330866040518463ffffffff167c0100000000000000000000000000000000000000000000000000000000028152600401808473ffffffffffffffffffffffffffffffffffffffff1673ffffffffffffffffffffffffffffffffffffffff1681526020018373ffffffffffffffffffffffffffffffffffffffff1673ffffffffffffffffffffffffffffffffffffffff1681526020018281526020019350505050602060405180830381600087803b15801561135157600080fd5b505af1158015611365573d6000803e3d6000fd5b505050506040513d602081101561137b57600080fd5b81019080805190602001909291905050505082600860003373ffffffffffffffffffffffffffffffffffffffff1673ffffffffffffffffffffffffffffffffffffffff1681526020019081526020016000206003015401600860003373ffffffffffffffffffffffffffffffffffffffff1673ffffffffffffffffffffffffffffffffffffffff168152602001908152602001600020600301819055505b60086000600760009054906101000a900473ffffffffffffffffffffffffffffffffffffffff1673ffffffffffffffffffffffffffffffffffffffff1673ffffffffffffffffffffffffffffffffffffffff1681526020019081526020016000206002015460086000600760009054906101000a900473ffffffffffffffffffffffffffffffffffffffff1673ffffffffffffffffffffffffffffffffffffffff1673ffffffffffffffffffffffffffffffffffffffff168152602001908152602001600020600301541480156115b7575060086000600660019054906101000a900473ffffffffffffffffffffffffffffffffffffffff1673ffffffffffffffffffffffffffffffffffffffff1673ffffffffffffffffffffffffffffffffffffffff1681526020019081526020016000206002015460086000600660019054906101000a900473ffffffffffffffffffffffffffffffffffffffff1673ffffffffffffffffffffffffffffffffffffffff1673ffffffffffffffffffffffffffffffffffffffff16815260200190815260200160002060030154145b156115c7576115c6600561375d565b5b505050565b6000600760009054906101000a900473ffffffffffffffffffffffffffffffffffffffff1673ffffffffffffffffffffffffffffffffffffffff168273ffffffffffffffffffffffffffffffffffffffff16149050919050565b61162f33611baa565b151561163a57600080fd5b600580600881111561164857fe5b600260149054906101000a900460ff16600881111561166357fe5b14151561166f57600080fd5b600860003373ffffffffffffffffffffffffffffffffffffffff1673ffffffffffffffffffffffffffffffffffffffff16815260200190815260200160002060000160019054906101000a900460ff16156116c957600080fd5b6001600860003373ffffffffffffffffffffffffffffffffffffffff1673ffffffffffffffffffffffffffffffffffffffff16815260200190815260200160002060000160016101000a81548160ff02191690831515021790555060086000600660019054906101000a900473ffffffffffffffffffffffffffffffffffffffff1673ffffffffffffffffffffffffffffffffffffffff1673ffffffffffffffffffffffffffffffffffffffff16815260200190815260200160002060000160019054906101000a900460ff168015611810575060086000600760009054906101000a900473ffffffffffffffffffffffffffffffffffffffff1673ffffffffffffffffffffffffffffffffffffffff1673ffffffffffffffffffffffffffffffffffffffff16815260200190815260200160002060000160019054906101000a900460ff165b156118205761181f600661375d565b5b50565b600260009054906101000a900473ffffffffffffffffffffffffffffffffffffffff1681565b600660009054906101000a900460ff1681565b61186533612df1565b151561187057600080fd5b600280600881111561187e57fe5b600260149054906101000a900460ff16600881111561189957fe5b1415156118a557600080fd5b600082511115156118b557600080fd5b81600590805190602001906118cb92919061438e565b506118d6600361375d565b5050565b60006008808111156118e857fe5b600260149054906101000a900460ff16600881111561190357fe5b14905090565b60058054600181600116156101000203166002900480601f01602080910402602001604051908101604052809291908181526020018280546001816001161561010002031660029004801561199f5780601f106119745761010080835404028352916020019161199f565b820191906000526020600020905b81548152906001019060200180831161198257829003601f168201915b505050505081565b60008060008060008060606000806000806000809054906101000a900473ffffffffffffffffffffffffffffffffffffffff16600160009054906101000a900473ffffffffffffffffffffffffffffffffffffffff16600260009054906101000a900473ffffffffffffffffffffffffffffffffffffffff16600260149054906101000a900460ff166008811115611a3b57fe5b6003546004546005600660009054906101000a900460ff16600660019054906101000a900473ffffffffffffffffffffffffffffffffffffffff16600760009054906101000a900473ffffffffffffffffffffffffffffffffffffffff16600960009054906101000a900473ffffffffffffffffffffffffffffffffffffffff168a9a50899950889850848054600181600116156101000203166002900480601f016020809104026020016040519081016040528092919081815260200182805460018160011615610100020316600290048015611b5a5780601f10611b2f57610100808354040283529160200191611b5a565b820191906000526020600020905b815481529060010190602001808311611b3d57829003601f168201915b505050505094509a509a509a509a509a509a509a509a509a509a509a50909192939495969798999a565b600760009054906101000a900473ffffffffffffffffffffffffffffffffffffffff1681565b6000611bb533612d97565b80611bc55750611bc4336115cc565b5b9050919050565b6000600860008473ffffffffffffffffffffffffffffffffffffffff1673ffffffffffffffffffffffffffffffffffffffff16815260200190815260200160002060050160008373ffffffffffffffffffffffffffffffffffffffff1673ffffffffffffffffffffffffffffffffffffffff16815260200190815260200160002054905092915050565b600160009054906101000a900473ffffffffffffffffffffffffffffffffffffffff1681565b600960009054906101000a900473ffffffffffffffffffffffffffffffffffffffff1681565b60035481565b6060600860008373ffffffffffffffffffffffffffffffffffffffff1673ffffffffffffffffffffffffffffffffffffffff168152602001908152602001600020600401805480602002602001604051908101604052809291908181526020018280548015611d6c57602002820191906000526020600020905b8160009054906101000a900473ffffffffffffffffffffffffffffffffffffffff1673ffffffffffffffffffffffffffffffffffffffff1681526020019060010190808311611d22575b50505050509050919050565b600260149054906101000a900460ff1681565b611d9433611ec4565b1515611d9f57600080fd5b6006806008811115611dad57fe5b600260149054906101000a900460ff166008811115611dc857fe5b141515611dd457600080fd5b81600660006101000a81548160ff021916908315150217905550600660009054906101000a900460ff1615611e1057611e0b613783565b611e19565b611e18613e34565b5b611e23600761375d565b6000809054906101000a900473ffffffffffffffffffffffffffffffffffffffff1673ffffffffffffffffffffffffffffffffffffffff1663f010655a6040518163ffffffff167c0100000000000000000000000000000000000000000000000000000000028152600401600060405180830381600087803b158015611ea857600080fd5b505af1158015611ebc573d6000803e3d6000fd5b505050505050565b60008060009054906101000a900473ffffffffffffffffffffffffffffffffffffffff1673ffffffffffffffffffffffffffffffffffffffff1663bd4dc0246040518163ffffffff167c0100000000000000000000000000000000000000000000000000000000028152600401602060405180830381600087803b158015611f4b57600080fd5b505af1158015611f5f573d6000803e3d6000fd5b505050506040513d6020811015611f7557600080fd5b810190808051906020019092919050505073ffffffffffffffffffffffffffffffffffffffff16632b20e3976040518163ffffffff167c0100000000000000000000000000000000000000000000000000000000028152600401602060405180830381600087803b158015611fe957600080fd5b505af1158015611ffd573d6000803e3d6000fd5b505050506040513d602081101561201357600080fd5b810190808051906020019092919050505073ffffffffffffffffffffffffffffffffffffffff168273ffffffffffffffffffffffffffffffffffffffff16149050919050565b60006007600881111561206857fe5b600260149054906101000a900460ff16600881111561208357fe5b14905090565b61209233611baa565b806120a257506120a133612df1565b5b15156120ad57600080fd5b60068060088111156120bb57fe5b600260149054906101000a900460ff1660088111156120d657fe5b1015156120e257600080fd5b600160088111156120ef57fe5b600260149054906101000a900460ff16600881111561210a57fe5b14156124ff57600060086000600760009054906101000a900473ffffffffffffffffffffffffffffffffffffffff1673ffffffffffffffffffffffffffffffffffffffff1673ffffffffffffffffffffffffffffffffffffffff16815260200190815260200160002060010154111561230557600260009054906101000a900473ffffffffffffffffffffffffffffffffffffffff1673ffffffffffffffffffffffffffffffffffffffff1663a9059cbb600760009054906101000a900473ffffffffffffffffffffffffffffffffffffffff1660086000600760009054906101000a900473ffffffffffffffffffffffffffffffffffffffff1673ffffffffffffffffffffffffffffffffffffffff1673ffffffffffffffffffffffffffffffffffffffff168152602001908152602001600020600101546040518363ffffffff167c0100000000000000000000000000000000000000000000000000000000028152600401808373ffffffffffffffffffffffffffffffffffffffff1673ffffffffffffffffffffffffffffffffffffffff16815260200182815260200192505050602060405180830381600087803b1580156122c857600080fd5b505af11580156122dc573d6000803e3d6000fd5b505050506040513d60208110156122f257600080fd5b8101908080519060200190929190505050505b600060086000600660019054906101000a900473ffffffffffffffffffffffffffffffffffffffff1673ffffffffffffffffffffffffffffffffffffffff1673ffffffffffffffffffffffffffffffffffffffff1681526020019081526020016000206001015411156124fa57600260009054906101000a900473ffffffffffffffffffffffffffffffffffffffff1673ffffffffffffffffffffffffffffffffffffffff1663a9059cbb600660019054906101000a900473ffffffffffffffffffffffffffffffffffffffff1660086000600660019054906101000a900473ffffffffffffffffffffffffffffffffffffffff1673ffffffffffffffffffffffffffffffffffffffff1673ffffffffffffffffffffffffffffffffffffffff168152602001908152602001600020600101546040518363ffffffff167c0100000000000000000000000000000000000000000000000000000000028152600401808373ffffffffffffffffffffffffffffffffffffffff1673ffffffffffffffffffffffffffffffffffffffff16815260200182815260200192505050602060405180830381600087803b1580156124bd57600080fd5b505af11580156124d1573d6000803e3d6000fd5b505050506040513d60208110156124e757600080fd5b8101908080519060200190929190505050505b612aac565b61250833612d97565b1561263657600260009054906101000a900473ffffffffffffffffffffffffffffffffffffffff1673ffffffffffffffffffffffffffffffffffffffff1663a9059cbb600760009054906101000a900473ffffffffffffffffffffffffffffffffffffffff166004546002026040518363ffffffff167c0100000000000000000000000000000000000000000000000000000000028152600401808373ffffffffffffffffffffffffffffffffffffffff1673ffffffffffffffffffffffffffffffffffffffff16815260200182815260200192505050602060405180830381600087803b1580156125f957600080fd5b505af115801561260d573d6000803e3d6000fd5b505050506040513d602081101561262357600080fd5b8101908080519060200190929190505050505b61263f336115cc565b1561276d57600260009054906101000a900473ffffffffffffffffffffffffffffffffffffffff1673ffffffffffffffffffffffffffffffffffffffff1663a9059cbb600660019054906101000a900473ffffffffffffffffffffffffffffffffffffffff166004546002026040518363ffffffff167c0100000000000000000000000000000000000000000000000000000000028152600401808373ffffffffffffffffffffffffffffffffffffffff1673ffffffffffffffffffffffffffffffffffffffff16815260200182815260200192505050602060405180830381600087803b15801561273057600080fd5b505af1158015612744573d6000803e3d6000fd5b505050506040513d602081101561275a57600080fd5b8101908080519060200190929190505050505b6004600881111561277a57fe5b600260149054906101000a900460ff16600881111561279557fe5b101515612aab57600260009054906101000a900473ffffffffffffffffffffffffffffffffffffffff1673ffffffffffffffffffffffffffffffffffffffff1663a9059cbb600760009054906101000a900473ffffffffffffffffffffffffffffffffffffffff1660086000600760009054906101000a900473ffffffffffffffffffffffffffffffffffffffff1673ffffffffffffffffffffffffffffffffffffffff1673ffffffffffffffffffffffffffffffffffffffff168152602001908152602001600020600301546040518363ffffffff167c0100000000000000000000000000000000000000000000000000000000028152600401808373ffffffffffffffffffffffffffffffffffffffff1673ffffffffffffffffffffffffffffffffffffffff16815260200182815260200192505050602060405180830381600087803b1580156128e757600080fd5b505af11580156128fb573d6000803e3d6000fd5b505050506040513d602081101561291157600080fd5b810190808051906020019092919050505050600260009054906101000a900473ffffffffffffffffffffffffffffffffffffffff1673ffffffffffffffffffffffffffffffffffffffff1663a9059cbb600660019054906101000a900473ffffffffffffffffffffffffffffffffffffffff1660086000600660019054906101000a900473ffffffffffffffffffffffffffffffffffffffff1673ffffffffffffffffffffffffffffffffffffffff1673ffffffffffffffffffffffffffffffffffffffff168152602001908152602001600020600301546040518363ffffffff167c0100000000000000000000000000000000000000000000000000000000028152600401808373ffffffffffffffffffffffffffffffffffffffff1673ffffffffffffffffffffffffffffffffffffffff16815260200182815260200192505050602060405180830381600087803b158015612a6e57600080fd5b505af1158015612a82573d6000803e3d6000fd5b505050506040513d6020811015612a9857600080fd5b8101908080519060200190929190505050505b5b612ab533611baa565b15612b16576001600860003373ffffffffffffffffffffffffffffffffffffffff1673ffffffffffffffffffffffffffffffffffffffff16815260200190815260200160002060060160006101000a81548160ff0219169083151502179055505b612b20600861375d565b6000809054906101000a900473ffffffffffffffffffffffffffffffffffffffff1673ffffffffffffffffffffffffffffffffffffffff1663f010655a6040518163ffffffff167c0100000000000000000000000000000000000000000000000000000000028152600401600060405180830381600087803b158015612ba557600080fd5b505af1158015612bb9573d6000803e3d6000fd5b5050505050565b600080600080600080600860008873ffffffffffffffffffffffffffffffffffffffff1673ffffffffffffffffffffffffffffffffffffffff16815260200190815260200160002060000160009054906101000a900460ff16600860008973ffffffffffffffffffffffffffffffffffffffff1673ffffffffffffffffffffffffffffffffffffffff16815260200190815260200160002060000160019054906101000a900460ff16600860008a73ffffffffffffffffffffffffffffffffffffffff1673ffffffffffffffffffffffffffffffffffffffff16815260200190815260200160002060010154600860008b73ffffffffffffffffffffffffffffffffffffffff1673ffffffffffffffffffffffffffffffffffffffff16815260200190815260200160002060020154600860008c73ffffffffffffffffffffffffffffffffffffffff1673ffffffffffffffffffffffffffffffffffffffff16815260200190815260200160002060030154600860008d73ffffffffffffffffffffffffffffffffffffffff1673ffffffffffffffffffffffffffffffffffffffff16815260200190815260200160002060060160009054906101000a900460ff1695509550955095509550955091939550919395565b6000600660019054906101000a900473ffffffffffffffffffffffffffffffffffffffff1673ffffffffffffffffffffffffffffffffffffffff168273ffffffffffffffffffffffffffffffffffffffff16149050919050565b6000600960009054906101000a900473ffffffffffffffffffffffffffffffffffffffff1673ffffffffffffffffffffffffffffffffffffffff168273ffffffffffffffffffffffffffffffffffffffff16149050919050565b600080612e5733611baa565b1515612e6257600080fd5b6001806008811115612e7057fe5b600260149054906101000a900460ff166008811115612e8b57fe5b141515612e9757600080fd5b600454600860003373ffffffffffffffffffffffffffffffffffffffff1673ffffffffffffffffffffffffffffffffffffffff168152602001908152602001600020600101541415612ee857600080fd5b600260009054906101000a900473ffffffffffffffffffffffffffffffffffffffff1673ffffffffffffffffffffffffffffffffffffffff1663dd62ed3e33306040518363ffffffff167c0100000000000000000000000000000000000000000000000000000000028152600401808373ffffffffffffffffffffffffffffffffffffffff1673ffffffffffffffffffffffffffffffffffffffff1681526020018273ffffffffffffffffffffffffffffffffffffffff1673ffffffffffffffffffffffffffffffffffffffff16815260200192505050602060405180830381600087803b158015612fd957600080fd5b505af1158015612fed573d6000803e3d6000fd5b505050506040513d602081101561300357600080fd5b81019080805190602001909291905050509250600860003373ffffffffffffffffffffffffffffffffffffffff1673ffffffffffffffffffffffffffffffffffffffff16815260200190815260200160002060010154600454039150818310151561322d57600260009054906101000a900473ffffffffffffffffffffffffffffffffffffffff1673ffffffffffffffffffffffffffffffffffffffff166323b872dd3330856040518463ffffffff167c0100000000000000000000000000000000000000000000000000000000028152600401808473ffffffffffffffffffffffffffffffffffffffff1673ffffffffffffffffffffffffffffffffffffffff1681526020018373ffffffffffffffffffffffffffffffffffffffff1673ffffffffffffffffffffffffffffffffffffffff1681526020018281526020019350505050602060405180830381600087803b15801561316157600080fd5b505af1158015613175573d6000803e3d6000fd5b505050506040513d602081101561318b57600080fd5b81019080805190602001909291905050505081600860003373ffffffffffffffffffffffffffffffffffffffff1673ffffffffffffffffffffffffffffffffffffffff1681526020019081526020016000206001015401600860003373ffffffffffffffffffffffffffffffffffffffff1673ffffffffffffffffffffffffffffffffffffffff168152602001908152602001600020600101819055506133ee565b600260009054906101000a900473ffffffffffffffffffffffffffffffffffffffff1673ffffffffffffffffffffffffffffffffffffffff166323b872dd3330866040518463ffffffff167c0100000000000000000000000000000000000000000000000000000000028152600401808473ffffffffffffffffffffffffffffffffffffffff1673ffffffffffffffffffffffffffffffffffffffff1681526020018373ffffffffffffffffffffffffffffffffffffffff1673ffffffffffffffffffffffffffffffffffffffff1681526020018281526020019350505050602060405180830381600087803b15801561332657600080fd5b505af115801561333a573d6000803e3d6000fd5b505050506040513d602081101561335057600080fd5b81019080805190602001909291905050505082600860003373ffffffffffffffffffffffffffffffffffffffff1673ffffffffffffffffffffffffffffffffffffffff1681526020019081526020016000206001015401600860003373ffffffffffffffffffffffffffffffffffffffff1673ffffffffffffffffffffffffffffffffffffffff168152602001908152602001600020600101819055505b60045460086000600760009054906101000a900473ffffffffffffffffffffffffffffffffffffffff1673ffffffffffffffffffffffffffffffffffffffff1673ffffffffffffffffffffffffffffffffffffffff168152602001908152602001600020600101541480156134c8575060045460086000600660019054906101000a900473ffffffffffffffffffffffffffffffffffffffff1673ffffffffffffffffffffffffffffffffffffffff1673ffffffffffffffffffffffffffffffffffffffff16815260200190815260200160002060010154145b156134d8576134d7600261375d565b5b505050565b6134e633611baa565b15156134f157600080fd5b60038060088111156134ff57fe5b600260149054906101000a900460ff16600881111561351a57fe5b14151561352657600080fd5b816040518082805190602001908083835b60208310151561355c5780518252602082019150602081019050602083039250613537565b6001836020036101000a038019825116818451168082178552505050505050905001915050604051809103902060001916600560405180828054600181600116156101000203166002900480156135ea5780601f106135c85761010080835404028352918201916135ea565b820191906000526020600020905b8154815290600101906020018083116135d6575b5050915050604051809103902060001916141561365d576001600860003373ffffffffffffffffffffffffffffffffffffffff1673ffffffffffffffffffffffffffffffffffffffff16815260200190815260200160002060000160006101000a81548160ff0219169083151502179055505b60086000600660019054906101000a900473ffffffffffffffffffffffffffffffffffffffff1673ffffffffffffffffffffffffffffffffffffffff1673ffffffffffffffffffffffffffffffffffffffff16815260200190815260200160002060000160009054906101000a900460ff168015613749575060086000600760009054906101000a900473ffffffffffffffffffffffffffffffffffffffff1673ffffffffffffffffffffffffffffffffffffffff1673ffffffffffffffffffffffffffffffffffffffff16815260200190815260200160002060000160009054906101000a900460ff165b1561375957613758600461375d565b5b5050565b80600260146101000a81548160ff0219169083600881111561377b57fe5b021790555050565b600080600090505b60086000600660019054906101000a900473ffffffffffffffffffffffffffffffffffffffff1673ffffffffffffffffffffffffffffffffffffffff1673ffffffffffffffffffffffffffffffffffffffff16815260200190815260200160002060040180549050811015613a475760086000600660019054906101000a900473ffffffffffffffffffffffffffffffffffffffff1673ffffffffffffffffffffffffffffffffffffffff1673ffffffffffffffffffffffffffffffffffffffff1681526020019081526020016000206004018181548110151561386b57fe5b9060005260206000200160009054906101000a900473ffffffffffffffffffffffffffffffffffffffff169150600260009054906101000a900473ffffffffffffffffffffffffffffffffffffffff1673ffffffffffffffffffffffffffffffffffffffff1663a9059cbb8360086000600660019054906101000a900473ffffffffffffffffffffffffffffffffffffffff1673ffffffffffffffffffffffffffffffffffffffff1673ffffffffffffffffffffffffffffffffffffffff16815260200190815260200160002060050160008673ffffffffffffffffffffffffffffffffffffffff1673ffffffffffffffffffffffffffffffffffffffff168152602001908152602001600020546040518363ffffffff167c0100000000000000000000000000000000000000000000000000000000028152600401808373ffffffffffffffffffffffffffffffffffffffff1673ffffffffffffffffffffffffffffffffffffffff16815260200182815260200192505050602060405180830381600087803b1580156139fe57600080fd5b505af1158015613a12573d6000803e3d6000fd5b505050506040513d6020811015613a2857600080fd5b810190808051906020019092919050505050808060010191505061378b565b600090505b60086000600760009054906101000a900473ffffffffffffffffffffffffffffffffffffffff1673ffffffffffffffffffffffffffffffffffffffff1673ffffffffffffffffffffffffffffffffffffffff16815260200190815260200160002060040180549050811015613d085760086000600760009054906101000a900473ffffffffffffffffffffffffffffffffffffffff1673ffffffffffffffffffffffffffffffffffffffff1673ffffffffffffffffffffffffffffffffffffffff16815260200190815260200160002060040181815481101515613b2c57fe5b9060005260206000200160009054906101000a900473ffffffffffffffffffffffffffffffffffffffff169150600260009054906101000a900473ffffffffffffffffffffffffffffffffffffffff1673ffffffffffffffffffffffffffffffffffffffff1663a9059cbb8360086000600760009054906101000a900473ffffffffffffffffffffffffffffffffffffffff1673ffffffffffffffffffffffffffffffffffffffff1673ffffffffffffffffffffffffffffffffffffffff16815260200190815260200160002060050160008673ffffffffffffffffffffffffffffffffffffffff1673ffffffffffffffffffffffffffffffffffffffff168152602001908152602001600020546040518363ffffffff167c0100000000000000000000000000000000000000000000000000000000028152600401808373ffffffffffffffffffffffffffffffffffffffff1673ffffffffffffffffffffffffffffffffffffffff16815260200182815260200192505050602060405180830381600087803b158015613cbf57600080fd5b505af1158015613cd3573d6000803e3d6000fd5b505050506040513d6020811015613ce957600080fd5b8101908080519060200190929190505050508080600101915050613a4c565b600260009054906101000a900473ffffffffffffffffffffffffffffffffffffffff1673ffffffffffffffffffffffffffffffffffffffff1663a9059cbb600660019054906101000a900473ffffffffffffffffffffffffffffffffffffffff166004546002026040518363ffffffff167c0100000000000000000000000000000000000000000000000000000000028152600401808373ffffffffffffffffffffffffffffffffffffffff1673ffffffffffffffffffffffffffffffffffffffff16815260200182815260200192505050602060405180830381600087803b158015613df457600080fd5b505af1158015613e08573d6000803e3d6000fd5b505050506040513d6020811015613e1e57600080fd5b8101908080519060200190929190505050505050565b600260009054906101000a900473ffffffffffffffffffffffffffffffffffffffff1673ffffffffffffffffffffffffffffffffffffffff1663a9059cbb600660019054906101000a900473ffffffffffffffffffffffffffffffffffffffff1660086000600660019054906101000a900473ffffffffffffffffffffffffffffffffffffffff1673ffffffffffffffffffffffffffffffffffffffff1673ffffffffffffffffffffffffffffffffffffffff168152602001908152602001600020600301546040518363ffffffff167c0100000000000000000000000000000000000000000000000000000000028152600401808373ffffffffffffffffffffffffffffffffffffffff1673ffffffffffffffffffffffffffffffffffffffff16815260200182815260200192505050602060405180830381600087803b158015613f7f57600080fd5b505af1158015613f93573d6000803e3d6000fd5b505050506040513d6020811015613fa957600080fd5b810190808051906020019092919050505050600260009054906101000a900473ffffffffffffffffffffffffffffffffffffffff1673ffffffffffffffffffffffffffffffffffffffff1663a9059cbb600760009054906101000a900473ffffffffffffffffffffffffffffffffffffffff1660086000600760009054906101000a900473ffffffffffffffffffffffffffffffffffffffff1673ffffffffffffffffffffffffffffffffffffffff1673ffffffffffffffffffffffffffffffffffffffff168152602001908152602001600020600301546040518363ffffffff167c0100000000000000000000000000000000000000000000000000000000028152600401808373ffffffffffffffffffffffffffffffffffffffff1673ffffffffffffffffffffffffffffffffffffffff16815260200182815260200192505050602060405180830381600087803b15801561410657600080fd5b505af115801561411a573d6000803e3d6000fd5b505050506040513d602081101561413057600080fd5b810190808051906020019092919050505050600260009054906101000a900473ffffffffffffffffffffffffffffffffffffffff1673ffffffffffffffffffffffffffffffffffffffff1663a9059cbb600660019054906101000a900473ffffffffffffffffffffffffffffffffffffffff166004546040518363ffffffff167c0100000000000000000000000000000000000000000000000000000000028152600401808373ffffffffffffffffffffffffffffffffffffffff1673ffffffffffffffffffffffffffffffffffffffff16815260200182815260200192505050602060405180830381600087803b15801561422b57600080fd5b505af115801561423f573d6000803e3d6000fd5b505050506040513d602081101561425557600080fd5b810190808051906020019092919050505050600260009054906101000a900473ffffffffffffffffffffffffffffffffffffffff1673ffffffffffffffffffffffffffffffffffffffff1663a9059cbb600760009054906101000a900473ffffffffffffffffffffffffffffffffffffffff166004546040518363ffffffff167c0100000000000000000000000000000000000000000000000000000000028152600401808373ffffffffffffffffffffffffffffffffffffffff1673ffffffffffffffffffffffffffffffffffffffff16815260200182815260200192505050602060405180830381600087803b15801561435057600080fd5b505af1158015614364573d6000803e3d6000fd5b505050506040513d602081101561437a57600080fd5b810190808051906020019092919050505050565b828054600181600116156101000203166002900490600052602060002090601f016020900481019282601f106143cf57805160ff19168380011785556143fd565b828001600101855582156143fd579182015b828111156143fc5782518255916020019190600101906143e1565b5b50905061440a919061440e565b5090565b61443091905b8082111561442c576000816000905550600101614414565b5090565b905600a165627a7a7230582020a35d8fbd5e9a47380c6ef64a82b73c12ebb42cf462e1056d2a06fa8eec52ae0029",
  "source": "pragma solidity ^0.4.17;\r\n\r\nimport \"./Property.sol\";\r\nimport \"./EuroToken.sol\";\r\nimport \"./PublicFinance.sol\";\r\n\r\ncontract PurchaseAndSale {\r\n\r\n    enum State { Joining, EarnestMoneyPayment, PurchaseAndSaleContractWritting, PurchaseAndSaleContractValidation, OutstandingPaymentsPayment, SignatureTime, QualififyingTime, Closed, Canceled }\r\n\r\n    struct Signer {\r\n        bool validated;\r\n        bool signed;\r\n        uint earnestMoneyPaid;\r\n        uint totalDue;\r\n        uint totalPaid;\r\n        address[] paymentRecipients;\r\n        mapping(address => uint) dueWith;\r\n        bool canceled;    \r\n    }\r\n    Property public property;\r\n    PublicFinance public publicFinance;\r\n    EuroToken public euroToken;\r\n    \r\n\r\n    State public state;\r\n    uint public price;\r\n    uint public earnestMoney;\r\n    string public purchaseAndSaleContractHash;\r\n    bool public qualification;\r\n\r\n    address public seller;\r\n    address public buyer;\r\n    mapping(address => Signer) public signer;\r\n\r\n    address public notary;\r\n\r\n    function PurchaseAndSale(address _property, address _buyer, uint _price, uint _earnestMoney) public onlyPropertyOwner(_property) {\r\n        \r\n        require(_price > _earnestMoney);\r\n\r\n        property = Property(_property);\r\n        publicFinance = property.landRegistry().publicFinance();\r\n        euroToken = publicFinance.euroToken();\r\n\r\n        state = State.Joining;\r\n        price = _price;\r\n        earnestMoney = _earnestMoney;\r\n\r\n        seller = property.owner();\r\n        buyer = _buyer;\r\n\r\n        addOutstandingPayment(buyer, publicFinance, publicFinance.calculate(\"ITP\", price));\r\n        addOutstandingPayment(buyer, seller, price - earnestMoney);\r\n\r\n    }\r\n    \r\n    // State Functions\r\n\r\n    //Always\r\n\r\n    function cancel() public onlySignerOrNotary onlyBefore(State.QualififyingTime) {\r\n\r\n        if (state == State.EarnestMoneyPayment) {\r\n            // Devolver lo pagado\r\n            if (signer[buyer].earnestMoneyPaid > 0)\r\n                euroToken.transfer(buyer, signer[buyer].earnestMoneyPaid);\r\n\r\n            if (signer[seller].earnestMoneyPaid > 0)\r\n                euroToken.transfer(seller, signer[seller].earnestMoneyPaid);\r\n\r\n        } else {\r\n            // Ya se ha pagado la paga y seal, la cancelacin implica la perdida de este dinero\r\n            if (isSeller(msg.sender))\r\n                euroToken.transfer(buyer, 2 * earnestMoney);\r\n\r\n            if (isBuyer(msg.sender))\r\n                euroToken.transfer(seller, 2 * earnestMoney);\r\n\r\n            if (state >= State.OutstandingPaymentsPayment) {\r\n                // Puede que todavia no hayan pagado todo\r\n                euroToken.transfer(buyer, signer[buyer].totalPaid);\r\n                euroToken.transfer(seller, signer[seller].totalPaid);\r\n            }\r\n        }\r\n\r\n        if (isSigner(msg.sender)) signer[msg.sender].canceled = true;\r\n        changeState(State.Canceled);\r\n        property.resolvePurchase();\r\n    }\r\n\r\n    // -- Joining\r\n    function addNotary(address _notary) public onlyBuyer onlyWhen(State.Joining) {\r\n        notary = _notary;\r\n        changeState(State.EarnestMoneyPayment);\r\n    }\r\n\r\n    // -- EarnestMoneyPayment\r\n    function payEarnestMoney() public onlySigners onlyWhen(State.EarnestMoneyPayment) {\r\n        if (signer[msg.sender].earnestMoneyPaid == earnestMoney) revert(); //Already Paid\r\n        uint allowed = euroToken.allowance(msg.sender, this);\r\n        uint pending = earnestMoney - signer[msg.sender].earnestMoneyPaid;\r\n        if (allowed >= pending) {\r\n            euroToken.transferFrom(msg.sender, this, pending);\r\n            signer[msg.sender].earnestMoneyPaid = signer[msg.sender].earnestMoneyPaid + pending;\r\n        } else {\r\n            euroToken.transferFrom(msg.sender, this, allowed);\r\n            signer[msg.sender].earnestMoneyPaid = signer[msg.sender].earnestMoneyPaid + allowed;\r\n        }\r\n\r\n        if (signer[buyer].earnestMoneyPaid == earnestMoney && signer[seller].earnestMoneyPaid == earnestMoney) {\r\n            changeState(State.PurchaseAndSaleContractWritting);\r\n        }\r\n    }\r\n\r\n    // -- PurchaseAndSaleContractWritting\r\n\r\n    function setPurchaseAndSaleContractHash(string _purchaseAndSaleContractHash) public onlyNotary onlyWhen(State.PurchaseAndSaleContractWritting) {\r\n        require(bytes(_purchaseAndSaleContractHash).length > 0);\r\n        purchaseAndSaleContractHash = _purchaseAndSaleContractHash;\r\n        changeState(State.PurchaseAndSaleContractValidation);\r\n    }\r\n\r\n    // -- purchaseAndSaleContractValidation\r\n\r\n    function validatePurchaseAndSaleContractHash(string _purchaseAndSaleContractHash) public onlySigners onlyWhen(State.PurchaseAndSaleContractValidation) {\r\n        if (keccak256(bytes(purchaseAndSaleContractHash)) == keccak256(bytes(_purchaseAndSaleContractHash))) {\r\n            signer[msg.sender].validated = true;\r\n        }\r\n\r\n        if (signer[seller].validated && signer[buyer].validated) {\r\n            changeState(State.OutstandingPaymentsPayment);\r\n        }\r\n    }\r\n\r\n    // -- OutstandingPaymentsPayment\r\n\r\n    function payOutstandingPayments() public onlySigners onlyWhen(State.OutstandingPaymentsPayment) {\r\n        if (signer[msg.sender].totalPaid == signer[msg.sender].totalDue) revert(); //Already Paid\r\n        uint allowed = euroToken.allowance(msg.sender, this);\r\n        uint pending = signer[msg.sender].totalDue - signer[msg.sender].totalPaid;\r\n        if (allowed >= pending) {\r\n            euroToken.transferFrom(msg.sender, this, pending);\r\n            signer[msg.sender].totalPaid = signer[msg.sender].totalPaid + pending;\r\n        } else {\r\n            euroToken.transferFrom(msg.sender, this, allowed);\r\n            signer[msg.sender].totalPaid = signer[msg.sender].totalPaid + allowed;\r\n        }\r\n\r\n        if (signer[buyer].totalPaid == signer[buyer].totalDue && signer[seller].totalPaid == signer[seller].totalDue) {\r\n            changeState(State.SignatureTime);\r\n        }\r\n    }\r\n\r\n    function sign() public onlySigners onlyWhen(State.SignatureTime) {\r\n        if (signer[msg.sender].signed) revert(); // Already signed\r\n        signer[msg.sender].signed = true;\r\n\r\n        if(signer[seller].signed && signer[buyer].signed) {\r\n            changeState(State.QualififyingTime);\r\n        }\r\n    }\r\n\r\n    // -- QualififyingTime\r\n\r\n    function qualify(bool _qualification) public onlyRegistrar onlyWhen(State.QualififyingTime) {\r\n        qualification = _qualification;\r\n        if (qualification) pay();\r\n        else refund();\r\n\r\n        changeState(State.Closed);\r\n        property.resolvePurchase();\r\n    }\r\n\r\n    function pay() internal {\r\n        address recipient;\r\n\r\n        for (uint i = 0; i < signer[seller].paymentRecipients.length; i++) {\r\n            recipient = signer[seller].paymentRecipients[i];\r\n            euroToken.transfer(recipient, signer[seller].dueWith[recipient]);\r\n        }\r\n\r\n        for (i = 0; i < signer[buyer].paymentRecipients.length; i++) {\r\n            recipient = signer[buyer].paymentRecipients[i];\r\n            euroToken.transfer(recipient, signer[buyer].dueWith[recipient]);\r\n        }\r\n\r\n        euroToken.transfer(seller, 2 * earnestMoney);\r\n    }\r\n\r\n    function refund() internal {\r\n        euroToken.transfer(seller, signer[seller].totalPaid);\r\n        euroToken.transfer(buyer, signer[buyer].totalPaid);\r\n        euroToken.transfer(seller, earnestMoney);\r\n        euroToken.transfer(buyer, earnestMoney);\r\n    }\r\n\r\n    // Logics\r\n\r\n    function addOutstandingPayment(address debtor, address paymentRecipient, uint outstandingPayment) internal {\r\n        require(isSeller(debtor) || isBuyer(debtor)); \r\n        if (signer[debtor].dueWith[paymentRecipient] == 0) signer[debtor].paymentRecipients.push(paymentRecipient);\r\n        signer[debtor].dueWith[paymentRecipient] = signer[debtor].dueWith[paymentRecipient] + outstandingPayment;\r\n        signer[debtor].totalDue = signer[debtor].totalDue + outstandingPayment;\r\n    }\r\n\r\n    function changeState(State newState) internal {\r\n        state = newState;\r\n    }\r\n\r\n    // Getters\r\n\r\n    function getPurchaseAndSaleInfo() public view returns (\r\n        address _property,\r\n        address _publicFinance,\r\n        address _euroToken,\r\n        uint _state,\r\n        uint _price,\r\n        uint _earnestMoney,\r\n        string _purchaseAndSaleContractHash,\r\n        bool _qualification,\r\n        address _seller,\r\n        address _buyer,\r\n        address _notary\r\n    ) {\r\n        return (\r\n            property, \r\n            publicFinance,\r\n            euroToken,\r\n            uint(state),\r\n            price,\r\n            earnestMoney,\r\n            purchaseAndSaleContractHash,\r\n            qualification,\r\n            seller,\r\n            buyer,\r\n            notary\r\n        );\r\n    }\r\n\r\n    function getSignerInfo(address _signer) public view returns (\r\n        bool _validated,\r\n        bool _signed,\r\n        uint _earnestMoneyPaid,\r\n        uint _totalDue,\r\n        uint _totalPaid,\r\n        bool _canceled\r\n    ) {\r\n        return (\r\n            signer[_signer].validated, \r\n            signer[_signer].signed, \r\n            signer[_signer].earnestMoneyPaid,\r\n            signer[_signer].totalDue,\r\n            signer[_signer].totalPaid,\r\n            signer[_signer].canceled\r\n        );\r\n    }\r\n\r\n    function getSignerPaymentRecipients(address _signer) public view returns (address[] _recipients) {\r\n        return signer[_signer].paymentRecipients;\r\n    }\r\n\r\n    function getSignerDueWith(address _signer, address _recipient) public view returns (uint _due) {\r\n        return signer[_signer].dueWith[_recipient];\r\n    }\r\n\r\n   \r\n\r\n    // Auxiliar Functions\r\n\r\n    function isSeller(address unknown) public view returns (bool) {return (unknown == seller);}\r\n    function isBuyer(address unknown) public view returns (bool) {return (unknown == buyer);}\r\n    function isNotary(address unknown) public view returns (bool) {return (unknown == notary);}\r\n    function isRegistrar(address unknown) public view returns (bool) {return (unknown == property.landRegistry().registrar());}\r\n    function isSigner(address unknown) public view returns (bool) {return (isSeller(msg.sender) || isBuyer(msg.sender));}\r\n\r\n    function hasBeenCanceled() public view returns (bool) {return (state == State.Canceled);}\r\n    function hasBeenQualified() public view returns (bool) {return (state == State.Closed);}\r\n\r\n\r\n    // Modifiers\r\n    modifier onlyPropertyOwner(address _property) {\r\n        require(msg.sender == Property(_property).owner());\r\n        _;\r\n    }\r\n    modifier onlySigners() {require(isSigner(msg.sender)); _;}\r\n    modifier onlySignerOrNotary() {require(isSigner(msg.sender) || isNotary(msg.sender)); _;}\r\n    modifier onlyBuyer() {require(isBuyer(msg.sender)); _;}\r\n    modifier onlySeller() {require(isSeller(msg.sender)); _;}\r\n    modifier onlyNotary() {require(isNotary(msg.sender)); _;}\r\n    modifier onlyRegistrar() {require(isRegistrar(msg.sender)); _;}\r\n    modifier onlyWhen(State requiredState) {require(state == requiredState); _;}\r\n    modifier onlyBefore(State limitState) {require(state < limitState); _;}\r\n}",
  "sourcePath": "C:\\Users\\Elias\\Documents\\GitHub\\angular-tfg\\truffle\\contracts\\PurchaseAndSale.sol",
  "compiler": {
    "name": "solc",
    "version": "0.4.24+commit.e67f0147.Emscripten.clang"
  },
  "schemaVersion": "2.0.0",
  "updatedAt": "2018-06-16T19:19:06.370Z"
}