{
  "contractName": "PurchaseContract",
  "abi": [
    {
      "constant": true,
      "inputs": [],
      "name": "seller",
      "outputs": [
        {
          "name": "addr",
          "type": "address"
        },
        {
          "name": "contractValidation",
          "type": "bool"
        },
        {
          "name": "hasSigned",
          "type": "bool"
        }
      ],
      "payable": false,
      "stateMutability": "view",
      "type": "function"
    },
    {
      "constant": true,
      "inputs": [],
      "name": "property",
      "outputs": [
        {
          "name": "",
          "type": "address"
        }
      ],
      "payable": false,
      "stateMutability": "view",
      "type": "function"
    },
    {
      "constant": true,
      "inputs": [],
      "name": "paymentSignal",
      "outputs": [
        {
          "name": "",
          "type": "uint256"
        }
      ],
      "payable": false,
      "stateMutability": "view",
      "type": "function"
    },
    {
      "constant": true,
      "inputs": [],
      "name": "euroToken",
      "outputs": [
        {
          "name": "",
          "type": "address"
        }
      ],
      "payable": false,
      "stateMutability": "view",
      "type": "function"
    },
    {
      "constant": true,
      "inputs": [],
      "name": "canceller",
      "outputs": [
        {
          "name": "",
          "type": "address"
        }
      ],
      "payable": false,
      "stateMutability": "view",
      "type": "function"
    },
    {
      "constant": true,
      "inputs": [],
      "name": "qualification",
      "outputs": [
        {
          "name": "",
          "type": "bool"
        }
      ],
      "payable": false,
      "stateMutability": "view",
      "type": "function"
    },
    {
      "constant": true,
      "inputs": [],
      "name": "buyer",
      "outputs": [
        {
          "name": "addr",
          "type": "address"
        },
        {
          "name": "contractValidation",
          "type": "bool"
        },
        {
          "name": "hasSigned",
          "type": "bool"
        }
      ],
      "payable": false,
      "stateMutability": "view",
      "type": "function"
    },
    {
      "constant": true,
      "inputs": [],
      "name": "contractHash",
      "outputs": [
        {
          "name": "",
          "type": "string"
        }
      ],
      "payable": false,
      "stateMutability": "view",
      "type": "function"
    },
    {
      "constant": true,
      "inputs": [],
      "name": "notary",
      "outputs": [
        {
          "name": "",
          "type": "address"
        }
      ],
      "payable": false,
      "stateMutability": "view",
      "type": "function"
    },
    {
      "constant": true,
      "inputs": [],
      "name": "price",
      "outputs": [
        {
          "name": "",
          "type": "uint256"
        }
      ],
      "payable": false,
      "stateMutability": "view",
      "type": "function"
    },
    {
      "constant": true,
      "inputs": [],
      "name": "phase",
      "outputs": [
        {
          "name": "",
          "type": "uint8"
        }
      ],
      "payable": false,
      "stateMutability": "view",
      "type": "function"
    },
    {
      "constant": true,
      "inputs": [],
      "name": "sellerDebts",
      "outputs": [
        {
          "name": "totalDebt",
          "type": "uint256"
        }
      ],
      "payable": false,
      "stateMutability": "view",
      "type": "function"
    },
    {
      "constant": true,
      "inputs": [],
      "name": "buyerDebts",
      "outputs": [
        {
          "name": "totalDebt",
          "type": "uint256"
        }
      ],
      "payable": false,
      "stateMutability": "view",
      "type": "function"
    },
    {
      "inputs": [
        {
          "name": "_property",
          "type": "address"
        },
        {
          "name": "_buyer",
          "type": "address"
        },
        {
          "name": "_price",
          "type": "uint256"
        },
        {
          "name": "_paymentSignal",
          "type": "uint256"
        }
      ],
      "payable": false,
      "stateMutability": "nonpayable",
      "type": "constructor"
    },
    {
      "anonymous": false,
      "inputs": [
        {
          "indexed": false,
          "name": "oldPhase",
          "type": "uint256"
        },
        {
          "indexed": false,
          "name": "newPhase",
          "type": "uint256"
        }
      ],
      "name": "PhaseChanged",
      "type": "event"
    },
    {
      "anonymous": false,
      "inputs": [
        {
          "indexed": false,
          "name": "signer",
          "type": "address"
        }
      ],
      "name": "Signed",
      "type": "event"
    },
    {
      "anonymous": false,
      "inputs": [
        {
          "indexed": false,
          "name": "from",
          "type": "address"
        },
        {
          "indexed": false,
          "name": "paid",
          "type": "uint256"
        }
      ],
      "name": "Paid",
      "type": "event"
    },
    {
      "anonymous": false,
      "inputs": [
        {
          "indexed": false,
          "name": "property",
          "type": "address"
        },
        {
          "indexed": false,
          "name": "qualification",
          "type": "bool"
        },
        {
          "indexed": false,
          "name": "oldOwner",
          "type": "address"
        },
        {
          "indexed": false,
          "name": "newOwner",
          "type": "address"
        }
      ],
      "name": "Qualified",
      "type": "event"
    },
    {
      "constant": false,
      "inputs": [],
      "name": "cancel",
      "outputs": [],
      "payable": false,
      "stateMutability": "nonpayable",
      "type": "function"
    },
    {
      "constant": false,
      "inputs": [
        {
          "name": "_notary",
          "type": "address"
        }
      ],
      "name": "addNotary",
      "outputs": [],
      "payable": false,
      "stateMutability": "nonpayable",
      "type": "function"
    },
    {
      "constant": false,
      "inputs": [],
      "name": "checkSignalPayment",
      "outputs": [],
      "payable": false,
      "stateMutability": "nonpayable",
      "type": "function"
    },
    {
      "constant": false,
      "inputs": [
        {
          "name": "hash",
          "type": "string"
        }
      ],
      "name": "setContractHash",
      "outputs": [],
      "payable": false,
      "stateMutability": "nonpayable",
      "type": "function"
    },
    {
      "constant": false,
      "inputs": [
        {
          "name": "hash",
          "type": "string"
        }
      ],
      "name": "validateContractDocument",
      "outputs": [],
      "payable": false,
      "stateMutability": "nonpayable",
      "type": "function"
    },
    {
      "constant": false,
      "inputs": [],
      "name": "updatePayment",
      "outputs": [],
      "payable": false,
      "stateMutability": "nonpayable",
      "type": "function"
    },
    {
      "constant": false,
      "inputs": [],
      "name": "sign",
      "outputs": [],
      "payable": false,
      "stateMutability": "nonpayable",
      "type": "function"
    },
    {
      "constant": false,
      "inputs": [
        {
          "name": "_qualification",
          "type": "bool"
        }
      ],
      "name": "qualify",
      "outputs": [],
      "payable": false,
      "stateMutability": "nonpayable",
      "type": "function"
    },
    {
      "constant": true,
      "inputs": [],
      "name": "hasBeenCanceled",
      "outputs": [
        {
          "name": "",
          "type": "bool"
        }
      ],
      "payable": false,
      "stateMutability": "view",
      "type": "function"
    },
    {
      "constant": true,
      "inputs": [],
      "name": "hasBeenQualified",
      "outputs": [
        {
          "name": "",
          "type": "bool"
        }
      ],
      "payable": false,
      "stateMutability": "view",
      "type": "function"
    },
    {
      "constant": true,
      "inputs": [],
      "name": "getSeller",
      "outputs": [
        {
          "name": "",
          "type": "address"
        }
      ],
      "payable": false,
      "stateMutability": "view",
      "type": "function"
    },
    {
      "constant": true,
      "inputs": [],
      "name": "getBuyer",
      "outputs": [
        {
          "name": "",
          "type": "address"
        }
      ],
      "payable": false,
      "stateMutability": "view",
      "type": "function"
    },
    {
      "constant": true,
      "inputs": [],
      "name": "getNotary",
      "outputs": [
        {
          "name": "",
          "type": "address"
        }
      ],
      "payable": false,
      "stateMutability": "view",
      "type": "function"
    },
    {
      "constant": true,
      "inputs": [],
      "name": "getRegistrar",
      "outputs": [
        {
          "name": "",
          "type": "address"
        }
      ],
      "payable": false,
      "stateMutability": "view",
      "type": "function"
    },
    {
      "constant": true,
      "inputs": [],
      "name": "getSellerInfo",
      "outputs": [
        {
          "name": "addr",
          "type": "address"
        },
        {
          "name": "contractValidation",
          "type": "bool"
        },
        {
          "name": "hasSigned",
          "type": "bool"
        }
      ],
      "payable": false,
      "stateMutability": "view",
      "type": "function"
    },
    {
      "constant": true,
      "inputs": [],
      "name": "getSellerDebtDestinataries",
      "outputs": [
        {
          "name": "destinataries",
          "type": "address[]"
        }
      ],
      "payable": false,
      "stateMutability": "view",
      "type": "function"
    },
    {
      "constant": true,
      "inputs": [],
      "name": "getBuyerDebtDestinataries",
      "outputs": [
        {
          "name": "destinataries",
          "type": "address[]"
        }
      ],
      "payable": false,
      "stateMutability": "view",
      "type": "function"
    },
    {
      "constant": true,
      "inputs": [
        {
          "name": "destinatary",
          "type": "address"
        }
      ],
      "name": "getSellerDebtWith",
      "outputs": [
        {
          "name": "",
          "type": "uint256"
        }
      ],
      "payable": false,
      "stateMutability": "view",
      "type": "function"
    },
    {
      "constant": true,
      "inputs": [
        {
          "name": "destinatary",
          "type": "address"
        }
      ],
      "name": "getBuyerDebtWith",
      "outputs": [
        {
          "name": "",
          "type": "uint256"
        }
      ],
      "payable": false,
      "stateMutability": "view",
      "type": "function"
    },
    {
      "constant": true,
      "inputs": [],
      "name": "getBuyerInfo",
      "outputs": [
        {
          "name": "addr",
          "type": "address"
        },
        {
          "name": "contractValidation",
          "type": "bool"
        },
        {
          "name": "hasSigned",
          "type": "bool"
        }
      ],
      "payable": false,
      "stateMutability": "view",
      "type": "function"
    },
    {
      "constant": true,
      "inputs": [],
      "name": "getBuyerPaymentStatus",
      "outputs": [
        {
          "name": "totalPaid",
          "type": "uint256"
        },
        {
          "name": "totalDebt",
          "type": "uint256"
        }
      ],
      "payable": false,
      "stateMutability": "view",
      "type": "function"
    },
    {
      "constant": true,
      "inputs": [],
      "name": "getSellerPaymentStatus",
      "outputs": [
        {
          "name": "totalPaid",
          "type": "uint256"
        },
        {
          "name": "totalDebt",
          "type": "uint256"
        }
      ],
      "payable": false,
      "stateMutability": "view",
      "type": "function"
    },
    {
      "constant": true,
      "inputs": [],
      "name": "getSellerSignalPayment",
      "outputs": [
        {
          "name": "signal",
          "type": "uint256"
        },
        {
          "name": "paid",
          "type": "uint256"
        }
      ],
      "payable": false,
      "stateMutability": "view",
      "type": "function"
    },
    {
      "constant": true,
      "inputs": [],
      "name": "getBuyerSignalPayment",
      "outputs": [
        {
          "name": "signal",
          "type": "uint256"
        },
        {
          "name": "paid",
          "type": "uint256"
        }
      ],
      "payable": false,
      "stateMutability": "view",
      "type": "function"
    }
  ],
  "bytecode": "0x60806040523480156200001157600080fd5b5060405160808062004c8b833981018060405281019080805190602001909291908051906020019092919080519060200190929190805190602001909291905050503373ffffffffffffffffffffffffffffffffffffffff168473ffffffffffffffffffffffffffffffffffffffff16638da5cb5b6040518163ffffffff167c0100000000000000000000000000000000000000000000000000000000028152600401602060405180830381600087803b158015620000cf57600080fd5b505af1158015620000e4573d6000803e3d6000fd5b505050506040513d6020811015620000fb57600080fd5b810190808051906020019092919050505073ffffffffffffffffffffffffffffffffffffffff161415156200012f57600080fd5b83600160006101000a81548173ffffffffffffffffffffffffffffffffffffffff021916908373ffffffffffffffffffffffffffffffffffffffff1602179055508160028190555080600381905550600160009054906101000a900473ffffffffffffffffffffffffffffffffffffffff1673ffffffffffffffffffffffffffffffffffffffff1663bd4dc0246040518163ffffffff167c0100000000000000000000000000000000000000000000000000000000028152600401602060405180830381600087803b1580156200020557600080fd5b505af11580156200021a573d6000803e3d6000fd5b505050506040513d60208110156200023157600080fd5b810190808051906020019092919050505073ffffffffffffffffffffffffffffffffffffffff1663941005cf6040518163ffffffff167c0100000000000000000000000000000000000000000000000000000000028152600401602060405180830381600087803b158015620002a657600080fd5b505af1158015620002bb573d6000803e3d6000fd5b505050506040513d6020811015620002d257600080fd5b810190808051906020019092919050505073ffffffffffffffffffffffffffffffffffffffff16632dfb39fd6040518163ffffffff167c0100000000000000000000000000000000000000000000000000000000028152600401602060405180830381600087803b1580156200034757600080fd5b505af11580156200035c573d6000803e3d6000fd5b505050506040513d60208110156200037357600080fd5b81019080805190602001909291905050506000806101000a81548173ffffffffffffffffffffffffffffffffffffffff021916908373ffffffffffffffffffffffffffffffffffffffff160217905550600160009054906101000a900473ffffffffffffffffffffffffffffffffffffffff1673ffffffffffffffffffffffffffffffffffffffff16638da5cb5b6040518163ffffffff167c0100000000000000000000000000000000000000000000000000000000028152600401602060405180830381600087803b1580156200044a57600080fd5b505af11580156200045f573d6000803e3d6000fd5b505050506040513d60208110156200047657600080fd5b8101908080519060200190929190505050600660000160006101000a81548173ffffffffffffffffffffffffffffffffffffffff021916908373ffffffffffffffffffffffffffffffffffffffff16021790555082600760000160006101000a81548173ffffffffffffffffffffffffffffffffffffffff021916908373ffffffffffffffffffffffffffffffffffffffff16021790555062000554600660000160009054906101000a900473ffffffffffffffffffffffffffffffffffffffff166003546002540362000917640100000000026401000000009004565b6200090d600160009054906101000a900473ffffffffffffffffffffffffffffffffffffffff1673ffffffffffffffffffffffffffffffffffffffff1663bd4dc0246040518163ffffffff167c0100000000000000000000000000000000000000000000000000000000028152600401602060405180830381600087803b158015620005df57600080fd5b505af1158015620005f4573d6000803e3d6000fd5b505050506040513d60208110156200060b57600080fd5b810190808051906020019092919050505073ffffffffffffffffffffffffffffffffffffffff1663941005cf6040518163ffffffff167c0100000000000000000000000000000000000000000000000000000000028152600401602060405180830381600087803b1580156200068057600080fd5b505af115801562000695573d6000803e3d6000fd5b505050506040513d6020811015620006ac57600080fd5b8101908080519060200190929190505050600160009054906101000a900473ffffffffffffffffffffffffffffffffffffffff1673ffffffffffffffffffffffffffffffffffffffff1663bd4dc0246040518163ffffffff167c0100000000000000000000000000000000000000000000000000000000028152600401602060405180830381600087803b1580156200074457600080fd5b505af115801562000759573d6000803e3d6000fd5b505050506040513d60208110156200077057600080fd5b810190808051906020019092919050505073ffffffffffffffffffffffffffffffffffffffff1663941005cf6040518163ffffffff167c0100000000000000000000000000000000000000000000000000000000028152600401602060405180830381600087803b158015620007e557600080fd5b505af1158015620007fa573d6000803e3d6000fd5b505050506040513d60208110156200081157600080fd5b810190808051906020019092919050505073ffffffffffffffffffffffffffffffffffffffff16630c31290d6002546040518263ffffffff167c010000000000000000000000000000000000000000000000000000000002815260040180807f4954500000000000000000000000000000000000000000000000000000000000815250602001828152602001915050602060405180830381600087803b158015620008bb57600080fd5b505af1158015620008d0573d6000803e3d6000fd5b505050506040513d6020811015620008e757600080fd5b810190808051906020019092919050505062000917640100000000026401000000009004565b5050505062000a6d565b6000600b60020160008473ffffffffffffffffffffffffffffffffffffffff1673ffffffffffffffffffffffffffffffffffffffff168152602001908152602001600020541415620009cd57600b6001018290806001815401808255809150509060018203906000526020600020016000909192909190916101000a81548173ffffffffffffffffffffffffffffffffffffffff021916908373ffffffffffffffffffffffffffffffffffffffff160217905550505b80600b60020160008473ffffffffffffffffffffffffffffffffffffffff1673ffffffffffffffffffffffffffffffffffffffff1681526020019081526020016000205401600b60020160008473ffffffffffffffffffffffffffffffffffffffff1673ffffffffffffffffffffffffffffffffffffffff1681526020019081526020016000208190555080600b6000015401600b600001819055505050565b61420e8062000a7d6000396000f3006080604052600436106101cd576000357c0100000000000000000000000000000000000000000000000000000000900463ffffffff1680630588565f146101d257806307d76c391461021557806308551a531461022c57806316457a3214610299578063176fd3f0146102b05780631e1b4462146103075780632ca15122146103325780632dfb39fd146103495780633135f207146103a05780633a007c08146103f75780633b2c22b0146104295780634d3f7334146104585780634f58bff6146104af57806352bea763146104de57806354504c12146105105780635b2146e91461057d578063603daf9a146105e95780636b7812c3146106405780636f5c9ed2146106725780637150d8ae146106c9578063904c60941461073657806399b958ee146107c65780639d54c79d14610833578063a035b1fe1461088a578063aa2732a0146108b5578063b1c9fe6e1461090c578063b8a5210b14610945578063b91808b114610970578063be768a7b146109c7578063bf2e92ee146109f9578063c5c4ab0314610a24578063d2753dcc14610a53578063dbd0e1b614610abc578063dc9f21c114610b13578063e2a3962d14610b7c578063ea8a1af014610bab578063ec57e93a14610bc2575b600080fd5b3480156101de57600080fd5b50610213600480360381019080803573ffffffffffffffffffffffffffffffffffffffff169060200190929190505050610c2e565b005b34801561022157600080fd5b5061022a610cc5565b005b34801561023857600080fd5b50610241610fef565b604051808473ffffffffffffffffffffffffffffffffffffffff1673ffffffffffffffffffffffffffffffffffffffff1681526020018315151515815260200182151515158152602001935050505060405180910390f35b3480156102a557600080fd5b506102ae611041565b005b3480156102bc57600080fd5b506102c561135d565b604051808273ffffffffffffffffffffffffffffffffffffffff1673ffffffffffffffffffffffffffffffffffffffff16815260200191505060405180910390f35b34801561031357600080fd5b5061031c611383565b6040518082815260200191505060405180910390f35b34801561033e57600080fd5b50610347611389565b005b34801561035557600080fd5b5061035e611500565b604051808273ffffffffffffffffffffffffffffffffffffffff1673ffffffffffffffffffffffffffffffffffffffff16815260200191505060405180910390f35b3480156103ac57600080fd5b506103b5611525565b604051808273ffffffffffffffffffffffffffffffffffffffff1673ffffffffffffffffffffffffffffffffffffffff16815260200191505060405180910390f35b34801561040357600080fd5b5061040c61154b565b604051808381526020018281526020019250505060405180910390f35b34801561043557600080fd5b5061043e61184a565b604051808215151515815260200191505060405180910390f35b34801561046457600080fd5b5061046d61185d565b604051808273ffffffffffffffffffffffffffffffffffffffff1673ffffffffffffffffffffffffffffffffffffffff16815260200191505060405180910390f35b3480156104bb57600080fd5b506104c46119c3565b604051808215151515815260200191505060405180910390f35b3480156104ea57600080fd5b506104f36119f2565b604051808381526020018281526020019250505060405180910390f35b34801561051c57600080fd5b50610525611b8d565b604051808473ffffffffffffffffffffffffffffffffffffffff1673ffffffffffffffffffffffffffffffffffffffff1681526020018315151515815260200182151515158152602001935050505060405180910390f35b34801561058957600080fd5b50610592611be9565b6040518080602001828103825283818151815260200191508051906020019060200280838360005b838110156105d55780820151818401526020810190506105ba565b505050509050019250505060405180910390f35b3480156105f557600080fd5b506105fe611c7a565b604051808273ffffffffffffffffffffffffffffffffffffffff1673ffffffffffffffffffffffffffffffffffffffff16815260200191505060405180910390f35b34801561064c57600080fd5b50610655611ca7565b604051808381526020018281526020019250505060405180910390f35b34801561067e57600080fd5b506106b3600480360381019080803573ffffffffffffffffffffffffffffffffffffffff169060200190929190505050611fa7565b6040518082815260200191505060405180910390f35b3480156106d557600080fd5b506106de611ff3565b604051808473ffffffffffffffffffffffffffffffffffffffff1673ffffffffffffffffffffffffffffffffffffffff1681526020018315151515815260200182151515158152602001935050505060405180910390f35b34801561074257600080fd5b5061074b612045565b6040518080602001828103825283818151815260200191508051906020019080838360005b8381101561078b578082015181840152602081019050610770565b50505050905090810190601f1680156107b85780820380516001836020036101000a031916815260200191505b509250505060405180910390f35b3480156107d257600080fd5b506107db6120e3565b604051808473ffffffffffffffffffffffffffffffffffffffff1673ffffffffffffffffffffffffffffffffffffffff1681526020018315151515815260200182151515158152602001935050505060405180910390f35b34801561083f57600080fd5b5061084861213f565b604051808273ffffffffffffffffffffffffffffffffffffffff1673ffffffffffffffffffffffffffffffffffffffff16815260200191505060405180910390f35b34801561089657600080fd5b5061089f612165565b6040518082815260200191505060405180910390f35b3480156108c157600080fd5b506108f6600480360381019080803573ffffffffffffffffffffffffffffffffffffffff16906020019092919050505061216b565b6040518082815260200191505060405180910390f35b34801561091857600080fd5b506109216121b7565b6040518082600881111561093157fe5b60ff16815260200191505060405180910390f35b34801561095157600080fd5b5061095a6121ca565b6040518082815260200191505060405180910390f35b34801561097c57600080fd5b506109856121d6565b604051808273ffffffffffffffffffffffffffffffffffffffff1673ffffffffffffffffffffffffffffffffffffffff16815260200191505060405180910390f35b3480156109d357600080fd5b506109dc612200565b604051808381526020018281526020019250505060405180910390f35b348015610a0557600080fd5b50610a0e61239b565b6040518082815260200191505060405180910390f35b348015610a3057600080fd5b50610a516004803603810190808035151590602001909291905050506123a7565b005b348015610a5f57600080fd5b50610aba600480360381019080803590602001908201803590602001908080601f01602080910402602001604051908101604052809392919081815260200183838082843782019150505050505091929192905050506124e0565b005b348015610ac857600080fd5b50610ad161255e565b604051808273ffffffffffffffffffffffffffffffffffffffff1673ffffffffffffffffffffffffffffffffffffffff16815260200191505060405180910390f35b348015610b1f57600080fd5b50610b7a600480360381019080803590602001908201803590602001908080601f016020809104026020016040519081016040528093929190818152602001838380828437820191505050505050919291929050505061258b565b005b348015610b8857600080fd5b50610b9161275d565b604051808215151515815260200191505060405180910390f35b348015610bb757600080fd5b50610bc061278d565b005b348015610bce57600080fd5b50610bd7612c5c565b6040518080602001828103825283818151815260200191508051906020019060200280838360005b83811015610c1a578082015181840152602081019050610bff565b505050509050019250505060405180910390f35b6000806008811115610c3c57fe5b600060149054906101000a900460ff166008811115610c5757fe5b141515610c6357600080fd5b610c6b612ced565b1515610c7657600080fd5b81600e60006101000a81548173ffffffffffffffffffffffffffffffffffffffff021916908373ffffffffffffffffffffffffffffffffffffffff160217905550610cc16001612d48565b5050565b610ccd612dd2565b80610cdc5750610cdb612ced565b5b1515610ce757600080fd5b6004806008811115610cf557fe5b600060149054906101000a900460ff166008811115610d1057fe5b141515610d1c57600080fd5b600354600b60000154016000809054906101000a900473ffffffffffffffffffffffffffffffffffffffff1673ffffffffffffffffffffffffffffffffffffffff1663dd62ed3e600760000160009054906101000a900473ffffffffffffffffffffffffffffffffffffffff16306040518363ffffffff167c0100000000000000000000000000000000000000000000000000000000028152600401808373ffffffffffffffffffffffffffffffffffffffff1673ffffffffffffffffffffffffffffffffffffffff1681526020018273ffffffffffffffffffffffffffffffffffffffff1673ffffffffffffffffffffffffffffffffffffffff16815260200192505050602060405180830381600087803b158015610e3b57600080fd5b505af1158015610e4f573d6000803e3d6000fd5b505050506040513d6020811015610e6557600080fd5b810190808051906020019092919050505010158015610fdc5750600354600860000154016000809054906101000a900473ffffffffffffffffffffffffffffffffffffffff1673ffffffffffffffffffffffffffffffffffffffff1663dd62ed3e600660000160009054906101000a900473ffffffffffffffffffffffffffffffffffffffff16306040518363ffffffff167c0100000000000000000000000000000000000000000000000000000000028152600401808373ffffffffffffffffffffffffffffffffffffffff1673ffffffffffffffffffffffffffffffffffffffff1681526020018273ffffffffffffffffffffffffffffffffffffffff1673ffffffffffffffffffffffffffffffffffffffff16815260200192505050602060405180830381600087803b158015610f9e57600080fd5b505af1158015610fb2573d6000803e3d6000fd5b505050506040513d6020811015610fc857600080fd5b810190808051906020019092919050505010155b15610fec57610feb6005612d48565b5b50565b60068060000160009054906101000a900473ffffffffffffffffffffffffffffffffffffffff16908060000160149054906101000a900460ff16908060000160159054906101000a900460ff16905083565b600180600881111561104f57fe5b600060149054906101000a900460ff16600881111561106a57fe5b14151561107657600080fd5b61107e612dd2565b8061108d575061108c612ced565b5b151561109857600080fd5b6003546000809054906101000a900473ffffffffffffffffffffffffffffffffffffffff1673ffffffffffffffffffffffffffffffffffffffff1663dd62ed3e600760000160009054906101000a900473ffffffffffffffffffffffffffffffffffffffff16306040518363ffffffff167c0100000000000000000000000000000000000000000000000000000000028152600401808373ffffffffffffffffffffffffffffffffffffffff1673ffffffffffffffffffffffffffffffffffffffff1681526020018273ffffffffffffffffffffffffffffffffffffffff1673ffffffffffffffffffffffffffffffffffffffff16815260200192505050602060405180830381600087803b1580156111b057600080fd5b505af11580156111c4573d6000803e3d6000fd5b505050506040513d60208110156111da57600080fd5b81019080805190602001909291905050501015801561134a57506003546000809054906101000a900473ffffffffffffffffffffffffffffffffffffffff1673ffffffffffffffffffffffffffffffffffffffff1663dd62ed3e600660000160009054906101000a900473ffffffffffffffffffffffffffffffffffffffff16306040518363ffffffff167c0100000000000000000000000000000000000000000000000000000000028152600401808373ffffffffffffffffffffffffffffffffffffffff1673ffffffffffffffffffffffffffffffffffffffff1681526020018273ffffffffffffffffffffffffffffffffffffffff1673ffffffffffffffffffffffffffffffffffffffff16815260200192505050602060405180830381600087803b15801561130c57600080fd5b505af1158015611320573d6000803e3d6000fd5b505050506040513d602081101561133657600080fd5b810190808051906020019092919050505010155b1561135a576113596002612d48565b5b50565b600160009054906101000a900473ffffffffffffffffffffffffffffffffffffffff1681565b60035481565b611391612dd2565b806113a0575061139f612ced565b5b15156113ab57600080fd5b60058060088111156113b957fe5b600060149054906101000a900460ff1660088111156113d457fe5b1415156113e057600080fd5b6113e8612dd2565b15611410576001600660000160156101000a81548160ff02191690831515021790555061145c565b611418612ced565b1561145b57600760000160159054906101000a900460ff1615151561143c57600080fd5b6001600760000160156101000a81548160ff0219169083151502179055505b5b7f568aebae0f7dc6c96727fb4cdfdf7add45fec43fffd69b3fa71ea0898a27f8cc33604051808273ffffffffffffffffffffffffffffffffffffffff1673ffffffffffffffffffffffffffffffffffffffff16815260200191505060405180910390a1600760000160159054906101000a900460ff1680156114ed5750600660000160159054906101000a900460ff165b156114fd576114fc6006612d48565b5b50565b6000809054906101000a900473ffffffffffffffffffffffffffffffffffffffff1681565b600f60009054906101000a900473ffffffffffffffffffffffffffffffffffffffff1681565b60008060086000015490506000600881111561156357fe5b600060149054906101000a900460ff16600881111561157e57fe5b1480156116db57506003546000809054906101000a900473ffffffffffffffffffffffffffffffffffffffff1673ffffffffffffffffffffffffffffffffffffffff1663dd62ed3e600660000160009054906101000a900473ffffffffffffffffffffffffffffffffffffffff16306040518363ffffffff167c0100000000000000000000000000000000000000000000000000000000028152600401808373ffffffffffffffffffffffffffffffffffffffff1673ffffffffffffffffffffffffffffffffffffffff1681526020018273ffffffffffffffffffffffffffffffffffffffff1673ffffffffffffffffffffffffffffffffffffffff16815260200192505050602060405180830381600087803b15801561169e57600080fd5b505af11580156116b2573d6000803e3d6000fd5b505050506040513d60208110156116c857600080fd5b8101908080519060200190929190505050105b156116e95760009150611840565b6003546000809054906101000a900473ffffffffffffffffffffffffffffffffffffffff1673ffffffffffffffffffffffffffffffffffffffff1663dd62ed3e600660000160009054906101000a900473ffffffffffffffffffffffffffffffffffffffff16306040518363ffffffff167c0100000000000000000000000000000000000000000000000000000000028152600401808373ffffffffffffffffffffffffffffffffffffffff1673ffffffffffffffffffffffffffffffffffffffff1681526020018273ffffffffffffffffffffffffffffffffffffffff1673ffffffffffffffffffffffffffffffffffffffff16815260200192505050602060405180830381600087803b15801561180157600080fd5b505af1158015611815573d6000803e3d6000fd5b505050506040513d602081101561182b57600080fd5b81019080805190602001909291905050500391505b8181915091509091565b600560009054906101000a900460ff1681565b6000600160009054906101000a900473ffffffffffffffffffffffffffffffffffffffff1673ffffffffffffffffffffffffffffffffffffffff1663bd4dc0246040518163ffffffff167c0100000000000000000000000000000000000000000000000000000000028152600401602060405180830381600087803b1580156118e557600080fd5b505af11580156118f9573d6000803e3d6000fd5b505050506040513d602081101561190f57600080fd5b810190808051906020019092919050505073ffffffffffffffffffffffffffffffffffffffff16632b20e3976040518163ffffffff167c0100000000000000000000000000000000000000000000000000000000028152600401602060405180830381600087803b15801561198357600080fd5b505af1158015611997573d6000803e3d6000fd5b505050506040513d60208110156119ad57600080fd5b8101908080519060200190929190505050905090565b60006008808111156119d157fe5b600060149054906101000a900460ff1660088111156119ec57fe5b14905090565b600080600354915060016008811115611a0757fe5b600060149054906101000a900460ff166008811115611a2257fe5b1115611a3057819050611b83565b6000809054906101000a900473ffffffffffffffffffffffffffffffffffffffff1673ffffffffffffffffffffffffffffffffffffffff1663dd62ed3e600660000160009054906101000a900473ffffffffffffffffffffffffffffffffffffffff16306040518363ffffffff167c0100000000000000000000000000000000000000000000000000000000028152600401808373ffffffffffffffffffffffffffffffffffffffff1673ffffffffffffffffffffffffffffffffffffffff1681526020018273ffffffffffffffffffffffffffffffffffffffff1673ffffffffffffffffffffffffffffffffffffffff16815260200192505050602060405180830381600087803b158015611b4557600080fd5b505af1158015611b59573d6000803e3d6000fd5b505050506040513d6020811015611b6f57600080fd5b810190808051906020019092919050505090505b8181915091509091565b6000806000600660000160009054906101000a900473ffffffffffffffffffffffffffffffffffffffff16600660000160149054906101000a900460ff16600660000160159054906101000a900460ff16925092509250909192565b60606008600101805480602002602001604051908101604052809291908181526020018280548015611c7057602002820191906000526020600020905b8160009054906101000a900473ffffffffffffffffffffffffffffffffffffffff1673ffffffffffffffffffffffffffffffffffffffff1681526020019060010190808311611c26575b5050505050905090565b6000600760000160009054906101000a900473ffffffffffffffffffffffffffffffffffffffff16905090565b600080600b60000154905060016008811115611cbf57fe5b600060149054906101000a900460ff166008811115611cda57fe5b11158015611e3857506003546000809054906101000a900473ffffffffffffffffffffffffffffffffffffffff1673ffffffffffffffffffffffffffffffffffffffff1663dd62ed3e600760000160009054906101000a900473ffffffffffffffffffffffffffffffffffffffff16306040518363ffffffff167c0100000000000000000000000000000000000000000000000000000000028152600401808373ffffffffffffffffffffffffffffffffffffffff1673ffffffffffffffffffffffffffffffffffffffff1681526020018273ffffffffffffffffffffffffffffffffffffffff1673ffffffffffffffffffffffffffffffffffffffff16815260200192505050602060405180830381600087803b158015611dfb57600080fd5b505af1158015611e0f573d6000803e3d6000fd5b505050506040513d6020811015611e2557600080fd5b8101908080519060200190929190505050105b15611e465760009150611f9d565b6003546000809054906101000a900473ffffffffffffffffffffffffffffffffffffffff1673ffffffffffffffffffffffffffffffffffffffff1663dd62ed3e600760000160009054906101000a900473ffffffffffffffffffffffffffffffffffffffff16306040518363ffffffff167c0100000000000000000000000000000000000000000000000000000000028152600401808373ffffffffffffffffffffffffffffffffffffffff1673ffffffffffffffffffffffffffffffffffffffff1681526020018273ffffffffffffffffffffffffffffffffffffffff1673ffffffffffffffffffffffffffffffffffffffff16815260200192505050602060405180830381600087803b158015611f5e57600080fd5b505af1158015611f72573d6000803e3d6000fd5b505050506040513d6020811015611f8857600080fd5b81019080805190602001909291905050500391505b8181915091509091565b6000600b60020160008373ffffffffffffffffffffffffffffffffffffffff1673ffffffffffffffffffffffffffffffffffffffff168152602001908152602001600020549050919050565b60078060000160009054906101000a900473ffffffffffffffffffffffffffffffffffffffff16908060000160149054906101000a900460ff16908060000160159054906101000a900460ff16905083565b60048054600181600116156101000203166002900480601f0160208091040260200160405190810160405280929190818152602001828054600181600116156101000203166002900480156120db5780601f106120b0576101008083540402835291602001916120db565b820191906000526020600020905b8154815290600101906020018083116120be57829003601f168201915b505050505081565b6000806000600760000160009054906101000a900473ffffffffffffffffffffffffffffffffffffffff16600760000160149054906101000a900460ff16600760000160159054906101000a900460ff16925092509250909192565b600e60009054906101000a900473ffffffffffffffffffffffffffffffffffffffff1681565b60025481565b6000600860020160008373ffffffffffffffffffffffffffffffffffffffff1673ffffffffffffffffffffffffffffffffffffffff168152602001908152602001600020549050919050565b600060149054906101000a900460ff1681565b60088060000154905081565b6000600e60009054906101000a900473ffffffffffffffffffffffffffffffffffffffff16905090565b60008060035491506001600881111561221557fe5b600060149054906101000a900460ff16600881111561223057fe5b111561223e57819050612391565b6000809054906101000a900473ffffffffffffffffffffffffffffffffffffffff1673ffffffffffffffffffffffffffffffffffffffff1663dd62ed3e600760000160009054906101000a900473ffffffffffffffffffffffffffffffffffffffff16306040518363ffffffff167c0100000000000000000000000000000000000000000000000000000000028152600401808373ffffffffffffffffffffffffffffffffffffffff1673ffffffffffffffffffffffffffffffffffffffff1681526020018273ffffffffffffffffffffffffffffffffffffffff1673ffffffffffffffffffffffffffffffffffffffff16815260200192505050602060405180830381600087803b15801561235357600080fd5b505af1158015612367573d6000803e3d6000fd5b505050506040513d602081101561237d57600080fd5b810190808051906020019092919050505090505b8181915091509091565b600b8060000154905081565b6123af612e2d565b15156123ba57600080fd5b60068060088111156123c857fe5b600060149054906101000a900460ff1660088111156123e357fe5b1415156123ef57600080fd5b81600560006101000a81548160ff021916908315150217905550600560009054906101000a900460ff161561242b57612426612fc1565b612434565b612433613b49565b5b61243e6007612d48565b600160009054906101000a900473ffffffffffffffffffffffffffffffffffffffff1673ffffffffffffffffffffffffffffffffffffffff1663f010655a6040518163ffffffff167c0100000000000000000000000000000000000000000000000000000000028152600401600060405180830381600087803b1580156124c457600080fd5b505af11580156124d8573d6000803e3d6000fd5b505050505050565b6124e86140e5565b15156124f357600080fd5b600280600881111561250157fe5b600060149054906101000a900460ff16600881111561251c57fe5b14151561252857600080fd5b600082511415151561253957600080fd5b816004908051906020019061254f92919061413d565b5061255a6003612d48565b5050565b6000600660000160009054906101000a900473ffffffffffffffffffffffffffffffffffffffff16905090565b612593612dd2565b806125a257506125a1612ced565b5b15156125ad57600080fd5b60038060088111156125bb57fe5b600060149054906101000a900460ff1660088111156125d657fe5b1415156125e257600080fd5b816040518082805190602001908083835b60208310151561261857805182526020820191506020810190506020830392506125f3565b6001836020036101000a038019825116818451168082178552505050505050905001915050604051809103902060001916600460405180828054600181600116156101000203166002900480156126a65780601f106126845761010080835404028352918201916126a6565b820191906000526020600020905b815481529060010190602001808311612692575b5050915050604051809103902060001916141561271b576126c5612dd2565b156126ed576001600660000160146101000a81548160ff02191690831515021790555061271a565b6126f5612ced565b15612719576001600760000160146101000a81548160ff0219169083151502179055505b5b5b600660000160149054906101000a900460ff1680156127495750600760000160149054906101000a900460ff165b15612759576127586004612d48565b5b5050565b60006007600881111561276c57fe5b600060149054906101000a900460ff16600881111561278757fe5b14905090565b612795612dd2565b806127a457506127a3612ced565b5b806127b357506127b26140e5565b5b15156127be57600080fd5b60068060088111156127cc57fe5b600060149054906101000a900460ff1660088111156127e757fe5b1015156127f357600080fd5b6001600881111561280057fe5b600060149054906101000a900460ff16600881111561281b57fe5b11158061282c575061282b6140e5565b5b1561283e57612839613b49565b612b70565b612846612ced565b156129d8576000809054906101000a900473ffffffffffffffffffffffffffffffffffffffff1673ffffffffffffffffffffffffffffffffffffffff166323b872dd600760000160009054906101000a900473ffffffffffffffffffffffffffffffffffffffff16600660000160009054906101000a900473ffffffffffffffffffffffffffffffffffffffff166003546040518463ffffffff167c0100000000000000000000000000000000000000000000000000000000028152600401808473ffffffffffffffffffffffffffffffffffffffff1673ffffffffffffffffffffffffffffffffffffffff1681526020018373ffffffffffffffffffffffffffffffffffffffff1673ffffffffffffffffffffffffffffffffffffffff1681526020018281526020019350505050602060405180830381600087803b15801561298f57600080fd5b505af11580156129a3573d6000803e3d6000fd5b505050506040513d60208110156129b957600080fd5b8101908080519060200190929190505050506129d3613b49565b612b6f565b6129e0612dd2565b15612b6e576000809054906101000a900473ffffffffffffffffffffffffffffffffffffffff1673ffffffffffffffffffffffffffffffffffffffff166323b872dd600660000160009054906101000a900473ffffffffffffffffffffffffffffffffffffffff16600760000160009054906101000a900473ffffffffffffffffffffffffffffffffffffffff166003546040518463ffffffff167c0100000000000000000000000000000000000000000000000000000000028152600401808473ffffffffffffffffffffffffffffffffffffffff1673ffffffffffffffffffffffffffffffffffffffff1681526020018373ffffffffffffffffffffffffffffffffffffffff1673ffffffffffffffffffffffffffffffffffffffff1681526020018281526020019350505050602060405180830381600087803b158015612b2957600080fd5b505af1158015612b3d573d6000803e3d6000fd5b505050506040513d6020811015612b5357600080fd5b810190808051906020019092919050505050612b6d613b49565b5b5b5b33600f60006101000a81548173ffffffffffffffffffffffffffffffffffffffff021916908373ffffffffffffffffffffffffffffffffffffffff160217905550612bbb6008612d48565b600160009054906101000a900473ffffffffffffffffffffffffffffffffffffffff1673ffffffffffffffffffffffffffffffffffffffff1663f010655a6040518163ffffffff167c0100000000000000000000000000000000000000000000000000000000028152600401600060405180830381600087803b158015612c4157600080fd5b505af1158015612c55573d6000803e3d6000fd5b5050505050565b6060600b600101805480602002602001604051908101604052809291908181526020018280548015612ce357602002820191906000526020600020905b8160009054906101000a900473ffffffffffffffffffffffffffffffffffffffff1673ffffffffffffffffffffffffffffffffffffffff1681526020019060010190808311612c99575b5050505050905090565b6000600760000160009054906101000a900473ffffffffffffffffffffffffffffffffffffffff1673ffffffffffffffffffffffffffffffffffffffff163373ffffffffffffffffffffffffffffffffffffffff1614905090565b7f397e19cc95daee46ec657cb4185007d81b62d29f95038943e9b631b54944a5d3600060149054906101000a900460ff166008811115612d8457fe5b826008811115612d9057fe5b604051808381526020018281526020019250505060405180910390a180600060146101000a81548160ff02191690836008811115612dca57fe5b021790555050565b6000600660000160009054906101000a900473ffffffffffffffffffffffffffffffffffffffff1673ffffffffffffffffffffffffffffffffffffffff163373ffffffffffffffffffffffffffffffffffffffff1614905090565b6000600160009054906101000a900473ffffffffffffffffffffffffffffffffffffffff1673ffffffffffffffffffffffffffffffffffffffff1663bd4dc0246040518163ffffffff167c0100000000000000000000000000000000000000000000000000000000028152600401602060405180830381600087803b158015612eb557600080fd5b505af1158015612ec9573d6000803e3d6000fd5b505050506040513d6020811015612edf57600080fd5b810190808051906020019092919050505073ffffffffffffffffffffffffffffffffffffffff16632b20e3976040518163ffffffff167c0100000000000000000000000000000000000000000000000000000000028152600401602060405180830381600087803b158015612f5357600080fd5b505af1158015612f67573d6000803e3d6000fd5b505050506040513d6020811015612f7d57600080fd5b810190808051906020019092919050505073ffffffffffffffffffffffffffffffffffffffff163373ffffffffffffffffffffffffffffffffffffffff1614905090565b60008090505b600b600101805490508110156131f7576000809054906101000a900473ffffffffffffffffffffffffffffffffffffffff1673ffffffffffffffffffffffffffffffffffffffff166323b872dd600760000160009054906101000a900473ffffffffffffffffffffffffffffffffffffffff16600b6001018481548110151561304c57fe5b9060005260206000200160009054906101000a900473ffffffffffffffffffffffffffffffffffffffff16600b6002016000600b6001018781548110151561309057fe5b9060005260206000200160009054906101000a900473ffffffffffffffffffffffffffffffffffffffff1673ffffffffffffffffffffffffffffffffffffffff1673ffffffffffffffffffffffffffffffffffffffff168152602001908152602001600020546040518463ffffffff167c0100000000000000000000000000000000000000000000000000000000028152600401808473ffffffffffffffffffffffffffffffffffffffff1673ffffffffffffffffffffffffffffffffffffffff1681526020018373ffffffffffffffffffffffffffffffffffffffff1673ffffffffffffffffffffffffffffffffffffffff1681526020018281526020019350505050602060405180830381600087803b1580156131ae57600080fd5b505af11580156131c2573d6000803e3d6000fd5b505050506040513d60208110156131d857600080fd5b8101908080519060200190929190505050508080600101915050612fc7565b6000809054906101000a900473ffffffffffffffffffffffffffffffffffffffff1673ffffffffffffffffffffffffffffffffffffffff166323b872dd600760000160009054906101000a900473ffffffffffffffffffffffffffffffffffffffff16600660000160009054906101000a900473ffffffffffffffffffffffffffffffffffffffff166003546040518463ffffffff167c0100000000000000000000000000000000000000000000000000000000028152600401808473ffffffffffffffffffffffffffffffffffffffff1673ffffffffffffffffffffffffffffffffffffffff1681526020018373ffffffffffffffffffffffffffffffffffffffff1673ffffffffffffffffffffffffffffffffffffffff1681526020018281526020019350505050602060405180830381600087803b15801561333b57600080fd5b505af115801561334f573d6000803e3d6000fd5b505050506040513d602081101561336557600080fd5b8101908080519060200190929190505050506000809054906101000a900473ffffffffffffffffffffffffffffffffffffffff1673ffffffffffffffffffffffffffffffffffffffff166323b872dd600760000160009054906101000a900473ffffffffffffffffffffffffffffffffffffffff16600760000160009054906101000a900473ffffffffffffffffffffffffffffffffffffffff166000809054906101000a900473ffffffffffffffffffffffffffffffffffffffff1673ffffffffffffffffffffffffffffffffffffffff1663dd62ed3e600760000160009054906101000a900473ffffffffffffffffffffffffffffffffffffffff16306040518363ffffffff167c0100000000000000000000000000000000000000000000000000000000028152600401808373ffffffffffffffffffffffffffffffffffffffff1673ffffffffffffffffffffffffffffffffffffffff1681526020018273ffffffffffffffffffffffffffffffffffffffff1673ffffffffffffffffffffffffffffffffffffffff16815260200192505050602060405180830381600087803b15801561351557600080fd5b505af1158015613529573d6000803e3d6000fd5b505050506040513d602081101561353f57600080fd5b81019080805190602001909291905050506040518463ffffffff167c0100000000000000000000000000000000000000000000000000000000028152600401808473ffffffffffffffffffffffffffffffffffffffff1673ffffffffffffffffffffffffffffffffffffffff1681526020018373ffffffffffffffffffffffffffffffffffffffff1673ffffffffffffffffffffffffffffffffffffffff1681526020018281526020019350505050602060405180830381600087803b15801561360857600080fd5b505af115801561361c573d6000803e3d6000fd5b505050506040513d602081101561363257600080fd5b810190808051906020019092919050505050600090505b600860010180549050811015613879576000809054906101000a900473ffffffffffffffffffffffffffffffffffffffff1673ffffffffffffffffffffffffffffffffffffffff166323b872dd600660000160009054906101000a900473ffffffffffffffffffffffffffffffffffffffff166008600101848154811015156136ce57fe5b9060005260206000200160009054906101000a900473ffffffffffffffffffffffffffffffffffffffff166008600201600060086001018781548110151561371257fe5b9060005260206000200160009054906101000a900473ffffffffffffffffffffffffffffffffffffffff1673ffffffffffffffffffffffffffffffffffffffff1673ffffffffffffffffffffffffffffffffffffffff168152602001908152602001600020546040518463ffffffff167c0100000000000000000000000000000000000000000000000000000000028152600401808473ffffffffffffffffffffffffffffffffffffffff1673ffffffffffffffffffffffffffffffffffffffff1681526020018373ffffffffffffffffffffffffffffffffffffffff1673ffffffffffffffffffffffffffffffffffffffff1681526020018281526020019350505050602060405180830381600087803b15801561383057600080fd5b505af1158015613844573d6000803e3d6000fd5b505050506040513d602081101561385a57600080fd5b8101908080519060200190929190505050508080600101915050613649565b6000809054906101000a900473ffffffffffffffffffffffffffffffffffffffff1673ffffffffffffffffffffffffffffffffffffffff166323b872dd600660000160009054906101000a900473ffffffffffffffffffffffffffffffffffffffff16600660000160009054906101000a900473ffffffffffffffffffffffffffffffffffffffff166000809054906101000a900473ffffffffffffffffffffffffffffffffffffffff1673ffffffffffffffffffffffffffffffffffffffff1663dd62ed3e600660000160009054906101000a900473ffffffffffffffffffffffffffffffffffffffff16306040518363ffffffff167c0100000000000000000000000000000000000000000000000000000000028152600401808373ffffffffffffffffffffffffffffffffffffffff1673ffffffffffffffffffffffffffffffffffffffff1681526020018273ffffffffffffffffffffffffffffffffffffffff1673ffffffffffffffffffffffffffffffffffffffff16815260200192505050602060405180830381600087803b158015613a1757600080fd5b505af1158015613a2b573d6000803e3d6000fd5b505050506040513d6020811015613a4157600080fd5b81019080805190602001909291905050506040518463ffffffff167c0100000000000000000000000000000000000000000000000000000000028152600401808473ffffffffffffffffffffffffffffffffffffffff1673ffffffffffffffffffffffffffffffffffffffff1681526020018373ffffffffffffffffffffffffffffffffffffffff1673ffffffffffffffffffffffffffffffffffffffff1681526020018281526020019350505050602060405180830381600087803b158015613b0a57600080fd5b505af1158015613b1e573d6000803e3d6000fd5b505050506040513d6020811015613b3457600080fd5b81019080805190602001909291905050505050565b6000809054906101000a900473ffffffffffffffffffffffffffffffffffffffff1673ffffffffffffffffffffffffffffffffffffffff166323b872dd600760000160009054906101000a900473ffffffffffffffffffffffffffffffffffffffff16600760000160009054906101000a900473ffffffffffffffffffffffffffffffffffffffff166000809054906101000a900473ffffffffffffffffffffffffffffffffffffffff1673ffffffffffffffffffffffffffffffffffffffff1663dd62ed3e600760000160009054906101000a900473ffffffffffffffffffffffffffffffffffffffff16306040518363ffffffff167c0100000000000000000000000000000000000000000000000000000000028152600401808373ffffffffffffffffffffffffffffffffffffffff1673ffffffffffffffffffffffffffffffffffffffff1681526020018273ffffffffffffffffffffffffffffffffffffffff1673ffffffffffffffffffffffffffffffffffffffff16815260200192505050602060405180830381600087803b158015613ce757600080fd5b505af1158015613cfb573d6000803e3d6000fd5b505050506040513d6020811015613d1157600080fd5b81019080805190602001909291905050506040518463ffffffff167c0100000000000000000000000000000000000000000000000000000000028152600401808473ffffffffffffffffffffffffffffffffffffffff1673ffffffffffffffffffffffffffffffffffffffff1681526020018373ffffffffffffffffffffffffffffffffffffffff1673ffffffffffffffffffffffffffffffffffffffff1681526020018281526020019350505050602060405180830381600087803b158015613dda57600080fd5b505af1158015613dee573d6000803e3d6000fd5b505050506040513d6020811015613e0457600080fd5b8101908080519060200190929190505050506000809054906101000a900473ffffffffffffffffffffffffffffffffffffffff1673ffffffffffffffffffffffffffffffffffffffff166323b872dd600660000160009054906101000a900473ffffffffffffffffffffffffffffffffffffffff16600660000160009054906101000a900473ffffffffffffffffffffffffffffffffffffffff166000809054906101000a900473ffffffffffffffffffffffffffffffffffffffff1673ffffffffffffffffffffffffffffffffffffffff1663dd62ed3e600660000160009054906101000a900473ffffffffffffffffffffffffffffffffffffffff16306040518363ffffffff167c0100000000000000000000000000000000000000000000000000000000028152600401808373ffffffffffffffffffffffffffffffffffffffff1673ffffffffffffffffffffffffffffffffffffffff1681526020018273ffffffffffffffffffffffffffffffffffffffff1673ffffffffffffffffffffffffffffffffffffffff16815260200192505050602060405180830381600087803b158015613fb457600080fd5b505af1158015613fc8573d6000803e3d6000fd5b505050506040513d6020811015613fde57600080fd5b81019080805190602001909291905050506040518463ffffffff167c0100000000000000000000000000000000000000000000000000000000028152600401808473ffffffffffffffffffffffffffffffffffffffff1673ffffffffffffffffffffffffffffffffffffffff1681526020018373ffffffffffffffffffffffffffffffffffffffff1673ffffffffffffffffffffffffffffffffffffffff1681526020018281526020019350505050602060405180830381600087803b1580156140a757600080fd5b505af11580156140bb573d6000803e3d6000fd5b505050506040513d60208110156140d157600080fd5b810190808051906020019092919050505050565b6000600e60009054906101000a900473ffffffffffffffffffffffffffffffffffffffff1673ffffffffffffffffffffffffffffffffffffffff163373ffffffffffffffffffffffffffffffffffffffff1614905090565b828054600181600116156101000203166002900490600052602060002090601f016020900481019282601f1061417e57805160ff19168380011785556141ac565b828001600101855582156141ac579182015b828111156141ab578251825591602001919060010190614190565b5b5090506141b991906141bd565b5090565b6141df91905b808211156141db5760008160009055506001016141c3565b5090565b905600a165627a7a72305820f9db792c2b7fce40b4c27b38c971ebff6ccd0e0f780af23e4f9d6001f5eda5780029",
  "source": "pragma solidity ^0.4.17;\r\n\r\nimport \"./Property.sol\";\r\nimport \"./EuroToken.sol\";\r\nimport \"./PublicFinance.sol\";\r\n\r\ncontract PurchaseContract {\r\n    // Property Info\r\n\r\n    event PhaseChanged(uint oldPhase, uint newPhase);\r\n    event Signed(address signer);\r\n    event Paid(address from, uint paid);\r\n    event Qualified(address property, bool qualification, address oldOwner, address newOwner);\r\n\r\n    enum Phases { Join, SignalPayment, Writting, Validation, Paying, Signing, Calificating, Finished, Canceled }\r\n\r\n    struct Debts {\r\n        uint totalDebt;\r\n        address[] destinataries;\r\n        mapping(address => uint) debtWith;\r\n    }\r\n\r\n    struct SignerInfo {\r\n        address addr;\r\n        bool contractValidation;\r\n        bool hasSigned;\r\n    }\r\n\r\n    EuroToken public euroToken;\r\n\r\n    Phases public phase;\r\n\r\n    Property public property;\r\n    uint public price;  \r\n    uint public paymentSignal;  \r\n    string public contractHash;\r\n    bool public qualification;\r\n\r\n    SignerInfo public seller;\r\n    SignerInfo public buyer;\r\n    Debts public sellerDebts;\r\n    Debts public buyerDebts;\r\n    \r\n    address public notary;\r\n\r\n    address public canceller;\r\n\r\n\r\n    function PurchaseContract(address _property, address _buyer, uint _price, uint _paymentSignal) public {\r\n        require(Property(_property).owner() == msg.sender);\r\n\r\n        property = Property(_property);\r\n        price = _price;\r\n        paymentSignal = _paymentSignal;\r\n        euroToken = property.landRegistry().publicFinance().euroToken();\r\n\r\n        seller.addr = property.owner();\r\n        buyer.addr = _buyer;\r\n        addBuyerDebt(seller.addr, price - paymentSignal);\r\n        addBuyerDebt(property.landRegistry().publicFinance(), property.landRegistry().publicFinance().calculate(\"ITP\", price));\r\n\r\n    }\r\n\r\n    function addSellerDebt(address destinatary, uint debt) internal {\r\n        if (sellerDebts.debtWith[destinatary] == 0) sellerDebts.destinataries.push(destinatary);\r\n        sellerDebts.debtWith[destinatary] = sellerDebts.debtWith[destinatary] + debt;\r\n        sellerDebts.totalDebt = sellerDebts.totalDebt + debt;\r\n    }\r\n\r\n    function addBuyerDebt(address destinatary, uint debt) internal {\r\n        if (buyerDebts.debtWith[destinatary] == 0) buyerDebts.destinataries.push(destinatary);\r\n        buyerDebts.debtWith[destinatary] = buyerDebts.debtWith[destinatary] + debt;\r\n        buyerDebts.totalDebt = buyerDebts.totalDebt + debt;\r\n    }\r\n\r\n    /***********************************************\r\n    *  Phase Functions\r\n    */\r\n\r\n    function changePhase(Phases newPhase) internal {\r\n        PhaseChanged(uint(phase), uint(newPhase));\r\n        phase = newPhase;\r\n    } \r\n\r\n    /***********************************************\r\n     *  -> Cancel\r\n     */\r\n\r\n    function cancel() public onlyParticipantOrNotary onlyBefore(Phases.Calificating) {\r\n\r\n        if (phase <= Phases.SignalPayment || isNotary()) {\r\n            // Returns all the money\r\n            refund();\r\n        } else if (isBuyer()) {\r\n            euroToken.transferFrom(buyer.addr, seller.addr, paymentSignal);\r\n            refund();\r\n        } else if (isSeller()) {\r\n            euroToken.transferFrom(seller.addr, buyer.addr, paymentSignal);\r\n            refund();\r\n        }\r\n\r\n        canceller = msg.sender;\r\n        changePhase(Phases.Canceled);\r\n        property.resolvePurchase();\r\n\r\n    }\r\n\r\n    /***********************************************\r\n     *  Phase: Join\r\n     */\r\n\r\n    function addNotary(address _notary) public onlyWhen(Phases.Join) onlyBuyer {\r\n        notary = _notary;\r\n        changePhase(Phases.SignalPayment);\r\n    }\r\n\r\n    function checkSignalPayment() public onlyWhen(Phases.SignalPayment) onlySellerOrBuyer {\r\n        if (euroToken.allowance(buyer.addr, this) >= paymentSignal && euroToken.allowance(seller.addr, this) >= paymentSignal) {\r\n            \r\n            changePhase(Phases.Writting);\r\n            \r\n        }\r\n    }\r\n\r\n    /***********************************************\r\n     *  Phase.Writting\r\n     */\r\n\r\n    function setContractHash(string hash) public onlyNotary onlyWhen(Phases.Writting) {\r\n        require(bytes(hash).length != 0);\r\n        contractHash = hash;\r\n        changePhase(Phases.Validation);\r\n    }\r\n\r\n    /***********************************************\r\n     *  Phase.Validation\r\n     */\r\n\r\n    function validateContractDocument(string hash) public onlySellerOrBuyer onlyWhen(Phases.Validation) {\r\n\r\n        if (keccak256(bytes(contractHash)) == keccak256(bytes(hash))) {\r\n            if (isSeller()) seller.contractValidation = true;\r\n            else if (isBuyer()) buyer.contractValidation = true;\r\n        }\r\n\r\n        if (seller.contractValidation && buyer.contractValidation) {\r\n            changePhase(Phases.Paying);\r\n        }\r\n    }\r\n\r\n    /***********************************************\r\n     *  Phase.Paying\r\n     */\r\n\r\n    function updatePayment() public onlySellerOrBuyer onlyWhen(Phases.Paying) {\r\n        \r\n        if (euroToken.allowance(buyer.addr, this) >= (buyerDebts.totalDebt + paymentSignal) \r\n            && euroToken.allowance(seller.addr, this) >= (sellerDebts.totalDebt + paymentSignal)) {\r\n            changePhase(Phases.Signing);\r\n        }\r\n    }\r\n\r\n    /***********************************************\r\n     *  Phase.Signing\r\n     */\r\n\r\n    function sign() public onlySellerOrBuyer onlyWhen(Phases.Signing) {\r\n        \r\n        if (isSeller()) {\r\n            seller.hasSigned = true;\r\n        } else if (isBuyer()) {\r\n            require(!buyer.hasSigned);\r\n            buyer.hasSigned = true;\r\n        }\r\n\r\n        emit Signed(msg.sender);\r\n\r\n        if (buyer.hasSigned && seller.hasSigned) {\r\n            changePhase(Phases.Calificating);\r\n        }\r\n    }\r\n\r\n    /***********************************************\r\n     *  Phase.Calificating\r\n     */\r\n\r\n    function qualify(bool _qualification) public onlyRegistrar onlyWhen(Phases.Calificating) {\r\n        qualification = _qualification;\r\n        \r\n        if (qualification) pay();\r\n        else refund();\r\n\r\n        changePhase(Phases.Finished);\r\n        property.resolvePurchase(); \r\n    }\r\n\r\n    function refund() internal {\r\n        euroToken.transferFrom(buyer.addr, buyer.addr, euroToken.allowance(buyer.addr, this));\r\n        euroToken.transferFrom(seller.addr, seller.addr, euroToken.allowance(seller.addr, this));\r\n    }\r\n\r\n    function pay() internal {\r\n        for(uint i = 0; i < buyerDebts.destinataries.length; i ++) {\r\n            euroToken.transferFrom(buyer.addr, buyerDebts.destinataries[i], buyerDebts.debtWith[buyerDebts.destinataries[i]]);\r\n        }\r\n        euroToken.transferFrom(buyer.addr, seller.addr, paymentSignal);\r\n        euroToken.transferFrom(buyer.addr, buyer.addr, euroToken.allowance(buyer.addr, this));\r\n\r\n        for(i = 0; i < sellerDebts.destinataries.length; i ++) {\r\n            euroToken.transferFrom(seller.addr, sellerDebts.destinataries[i], sellerDebts.debtWith[sellerDebts.destinataries[i]]);\r\n        }\r\n        euroToken.transferFrom(seller.addr, seller.addr, euroToken.allowance(seller.addr, this));\r\n    }\r\n\r\n    /***********************************************\r\n     *  Auxiliar Functions\r\n     */\r\n\r\n    function isBuyer() internal view returns (bool) {return (msg.sender == buyer.addr);}\r\n    function isSeller() internal view returns (bool) {return (msg.sender == seller.addr);}\r\n    function isNotary() internal view returns (bool) {return (msg.sender == notary);}\r\n    function isRegistrar() internal view returns (bool) {return (msg.sender == property.landRegistry().registrar());}\r\n    function hasBeenCanceled() public view returns (bool) {return (phase == Phases.Canceled);}\r\n    function hasBeenQualified() public view returns (bool) {return (phase == Phases.Finished);}\r\n\r\n    /***********************************************\r\n     *  Modifiers\r\n     */\r\n\r\n    modifier onlySellerOrBuyer() {require(isSeller() || isBuyer()); _;}\r\n    modifier onlyParticipant() {require(isSeller() || isBuyer()); _;}\r\n    modifier onlyParticipantOrNotary() {require(isSeller() || isBuyer() || isNotary()); _;}\r\n    modifier onlyBuyer() {require(isBuyer()); _;}\r\n    modifier onlySeller() {require(isSeller()); _;}\r\n    modifier onlyNotary() {require(isNotary()); _;}\r\n    modifier onlyRegistrar() {require(isRegistrar()); _;}\r\n    modifier onlyWhen(Phases strictPhase) {require(phase == strictPhase); _;}\r\n    modifier onlyBefore(Phases beforePhase) {require(phase < beforePhase); _;}\r\n    /***********************************************\r\n    *  Info Getters\r\n    */\r\n    \r\n    \r\n\r\n    function getSeller() public view returns (address) {\r\n        return seller.addr;\r\n    }\r\n    \r\n    function getBuyer() public view returns (address) {\r\n        return buyer.addr;\r\n    }\r\n    \r\n    function getNotary() public view returns (address) {\r\n        return notary;\r\n    }\r\n    \r\n    function getRegistrar() public view returns (address) {\r\n        return property.landRegistry().registrar();\r\n    }\r\n\r\n    function getSellerInfo() public view returns (address addr, bool contractValidation, bool hasSigned) {\r\n        return (\r\n            seller.addr,\r\n            seller.contractValidation,\r\n            seller.hasSigned\r\n        );\r\n    }\r\n\r\n    \r\n\r\n    function getSellerDebtDestinataries() public view returns (address[] destinataries) {return sellerDebts.destinataries;}\r\n    function getBuyerDebtDestinataries() public view returns (address[] destinataries) {return buyerDebts.destinataries;}\r\n\r\n    function getSellerDebtWith(address destinatary) public view returns (uint) {return sellerDebts.debtWith[destinatary];} \r\n    function getBuyerDebtWith(address destinatary) public view returns (uint) {return buyerDebts.debtWith[destinatary];} \r\n\r\n\r\n    function getBuyerInfo() public view returns (address addr, bool contractValidation, bool hasSigned) {\r\n        return (\r\n            buyer.addr,\r\n            buyer.contractValidation,\r\n            buyer.hasSigned\r\n        );\r\n    }\r\n    function getBuyerPaymentStatus() public view returns (uint totalPaid, uint totalDebt) {\r\n\r\n        totalDebt = buyerDebts.totalDebt;\r\n\r\n        if (phase <= Phases.SignalPayment && euroToken.allowance(buyer.addr, this) < paymentSignal) {\r\n            totalPaid = 0;\r\n        } else {\r\n            totalPaid = euroToken.allowance(buyer.addr, this) - paymentSignal;\r\n        }\r\n\r\n        return(totalPaid, totalDebt);\r\n    }\r\n\r\n    function getSellerPaymentStatus() public view returns (uint totalPaid, uint totalDebt) {\r\n        totalDebt = sellerDebts.totalDebt;\r\n\r\n        if (phase == Phases.Join && euroToken.allowance(seller.addr, this) < paymentSignal) {\r\n            totalPaid = 0;\r\n        } else {\r\n            totalPaid = euroToken.allowance(seller.addr, this) - paymentSignal;\r\n        }\r\n\r\n        return(totalPaid, totalDebt);\r\n    }\r\n\r\n    function getSellerSignalPayment() public view returns (uint signal, uint paid) {\r\n        signal = paymentSignal;\r\n\r\n        if (phase > Phases.SignalPayment) paid = signal;\r\n        else paid = euroToken.allowance(seller.addr, this);\r\n\r\n        return(signal, paid);\r\n    }\r\n\r\n    function getBuyerSignalPayment() public view returns (uint signal, uint paid) {\r\n        signal = paymentSignal;\r\n\r\n        if (phase > Phases.SignalPayment) paid = signal;\r\n        else paid = euroToken.allowance(buyer.addr, this);\r\n        \r\n        return(signal, paid);\r\n    }\r\n}",
  "sourcePath": "C:\\Users\\Elias\\Documents\\GitHub\\angular-tfg\\truffle\\contracts\\PurchaseContract.sol",
  "compiler": {
    "name": "solc",
    "version": "0.4.24+commit.e67f0147.Emscripten.clang"
  },
  "schemaVersion": "2.0.0",
  "updatedAt": "2018-06-11T15:13:31.901Z"
}