{
  "contractName": "PurchaseContract",
  "abi": [
    {
      "constant": true,
      "inputs": [],
      "name": "seller",
      "outputs": [
        {
          "name": "addr",
          "type": "address"
        },
        {
          "name": "debt",
          "type": "uint256"
        },
        {
          "name": "hasValidated",
          "type": "bool"
        },
        {
          "name": "contractValidation",
          "type": "bool"
        },
        {
          "name": "hasSigned",
          "type": "bool"
        },
        {
          "name": "signature",
          "type": "bool"
        }
      ],
      "payable": false,
      "stateMutability": "view",
      "type": "function"
    },
    {
      "constant": true,
      "inputs": [],
      "name": "property",
      "outputs": [
        {
          "name": "",
          "type": "address"
        }
      ],
      "payable": false,
      "stateMutability": "view",
      "type": "function"
    },
    {
      "constant": true,
      "inputs": [],
      "name": "registrar",
      "outputs": [
        {
          "name": "addr",
          "type": "address"
        },
        {
          "name": "hasCalificated",
          "type": "bool"
        },
        {
          "name": "calification",
          "type": "bool"
        }
      ],
      "payable": false,
      "stateMutability": "view",
      "type": "function"
    },
    {
      "constant": true,
      "inputs": [],
      "name": "euroToken",
      "outputs": [
        {
          "name": "",
          "type": "address"
        }
      ],
      "payable": false,
      "stateMutability": "view",
      "type": "function"
    },
    {
      "constant": true,
      "inputs": [],
      "name": "buyer",
      "outputs": [
        {
          "name": "addr",
          "type": "address"
        },
        {
          "name": "debt",
          "type": "uint256"
        },
        {
          "name": "hasValidated",
          "type": "bool"
        },
        {
          "name": "contractValidation",
          "type": "bool"
        },
        {
          "name": "hasSigned",
          "type": "bool"
        },
        {
          "name": "signature",
          "type": "bool"
        }
      ],
      "payable": false,
      "stateMutability": "view",
      "type": "function"
    },
    {
      "constant": true,
      "inputs": [],
      "name": "contractHash",
      "outputs": [
        {
          "name": "",
          "type": "string"
        }
      ],
      "payable": false,
      "stateMutability": "view",
      "type": "function"
    },
    {
      "constant": true,
      "inputs": [],
      "name": "notary",
      "outputs": [
        {
          "name": "addr",
          "type": "address"
        }
      ],
      "payable": false,
      "stateMutability": "view",
      "type": "function"
    },
    {
      "constant": true,
      "inputs": [],
      "name": "price",
      "outputs": [
        {
          "name": "",
          "type": "uint256"
        }
      ],
      "payable": false,
      "stateMutability": "view",
      "type": "function"
    },
    {
      "constant": true,
      "inputs": [],
      "name": "phase",
      "outputs": [
        {
          "name": "",
          "type": "uint8"
        }
      ],
      "payable": false,
      "stateMutability": "view",
      "type": "function"
    },
    {
      "inputs": [
        {
          "name": "_property",
          "type": "address"
        },
        {
          "name": "_price",
          "type": "uint256"
        },
        {
          "name": "_seller",
          "type": "address"
        },
        {
          "name": "_registrar",
          "type": "address"
        },
        {
          "name": "_euroToken",
          "type": "address"
        }
      ],
      "payable": false,
      "stateMutability": "nonpayable",
      "type": "constructor"
    },
    {
      "anonymous": false,
      "inputs": [
        {
          "indexed": false,
          "name": "oldPhase",
          "type": "uint256"
        },
        {
          "indexed": false,
          "name": "newPhase",
          "type": "uint256"
        }
      ],
      "name": "PhaseChanged",
      "type": "event"
    },
    {
      "anonymous": false,
      "inputs": [
        {
          "indexed": false,
          "name": "from",
          "type": "address"
        },
        {
          "indexed": false,
          "name": "signature",
          "type": "bool"
        }
      ],
      "name": "Signed",
      "type": "event"
    },
    {
      "anonymous": false,
      "inputs": [
        {
          "indexed": false,
          "name": "from",
          "type": "address"
        },
        {
          "indexed": false,
          "name": "paid",
          "type": "uint256"
        }
      ],
      "name": "Paid",
      "type": "event"
    },
    {
      "anonymous": false,
      "inputs": [
        {
          "indexed": false,
          "name": "property",
          "type": "address"
        },
        {
          "indexed": false,
          "name": "calification",
          "type": "bool"
        },
        {
          "indexed": false,
          "name": "oldOwner",
          "type": "address"
        },
        {
          "indexed": false,
          "name": "newOwner",
          "type": "address"
        }
      ],
      "name": "Calificated",
      "type": "event"
    },
    {
      "constant": false,
      "inputs": [],
      "name": "cancel",
      "outputs": [],
      "payable": false,
      "stateMutability": "nonpayable",
      "type": "function"
    },
    {
      "constant": false,
      "inputs": [
        {
          "name": "_buyer",
          "type": "address"
        }
      ],
      "name": "addBuyer",
      "outputs": [],
      "payable": false,
      "stateMutability": "nonpayable",
      "type": "function"
    },
    {
      "constant": false,
      "inputs": [
        {
          "name": "_notary",
          "type": "address"
        }
      ],
      "name": "addNotary",
      "outputs": [],
      "payable": false,
      "stateMutability": "nonpayable",
      "type": "function"
    },
    {
      "constant": false,
      "inputs": [
        {
          "name": "hash",
          "type": "string"
        }
      ],
      "name": "setContractHash",
      "outputs": [],
      "payable": false,
      "stateMutability": "nonpayable",
      "type": "function"
    },
    {
      "constant": false,
      "inputs": [
        {
          "name": "hash",
          "type": "string"
        }
      ],
      "name": "validateContractDocument",
      "outputs": [],
      "payable": false,
      "stateMutability": "nonpayable",
      "type": "function"
    },
    {
      "constant": false,
      "inputs": [],
      "name": "updatePayment",
      "outputs": [],
      "payable": false,
      "stateMutability": "nonpayable",
      "type": "function"
    },
    {
      "constant": false,
      "inputs": [
        {
          "name": "_signature",
          "type": "bool"
        }
      ],
      "name": "sign",
      "outputs": [],
      "payable": false,
      "stateMutability": "nonpayable",
      "type": "function"
    },
    {
      "constant": false,
      "inputs": [
        {
          "name": "_calification",
          "type": "bool"
        }
      ],
      "name": "calificate",
      "outputs": [],
      "payable": false,
      "stateMutability": "nonpayable",
      "type": "function"
    },
    {
      "constant": true,
      "inputs": [],
      "name": "getSellerSummary",
      "outputs": [
        {
          "name": "addr",
          "type": "address"
        },
        {
          "name": "debt",
          "type": "uint256"
        },
        {
          "name": "paid",
          "type": "uint256"
        },
        {
          "name": "contractValidation",
          "type": "bool"
        },
        {
          "name": "hasSigned",
          "type": "bool"
        },
        {
          "name": "signature",
          "type": "bool"
        }
      ],
      "payable": false,
      "stateMutability": "view",
      "type": "function"
    },
    {
      "constant": true,
      "inputs": [],
      "name": "getBuyerSummary",
      "outputs": [
        {
          "name": "addr",
          "type": "address"
        },
        {
          "name": "debt",
          "type": "uint256"
        },
        {
          "name": "paid",
          "type": "uint256"
        },
        {
          "name": "contractValidation",
          "type": "bool"
        },
        {
          "name": "hasSigned",
          "type": "bool"
        },
        {
          "name": "signature",
          "type": "bool"
        }
      ],
      "payable": false,
      "stateMutability": "view",
      "type": "function"
    },
    {
      "constant": true,
      "inputs": [],
      "name": "getContractSummary",
      "outputs": [
        {
          "name": "currentPhase",
          "type": "uint256"
        },
        {
          "name": "contractWritten",
          "type": "bool"
        },
        {
          "name": "hasBeenCalificated",
          "type": "bool"
        },
        {
          "name": "calification",
          "type": "bool"
        }
      ],
      "payable": false,
      "stateMutability": "view",
      "type": "function"
    }
  ],
  "bytecode": "0x608060405234801561001057600080fd5b5060405160a08061234783398101806040528101908080519060200190929190805190602001909291908051906020019092919080519060200190929190805190602001909291905050508273ffffffffffffffffffffffffffffffffffffffff168573ffffffffffffffffffffffffffffffffffffffff1663893d20e86040518163ffffffff167c0100000000000000000000000000000000000000000000000000000000028152600401602060405180830381600087803b1580156100d657600080fd5b505af11580156100ea573d6000803e3d6000fd5b505050506040513d602081101561010057600080fd5b810190808051906020019092919050505073ffffffffffffffffffffffffffffffffffffffff1614151561013357600080fd5b84600160006101000a81548173ffffffffffffffffffffffffffffffffffffffff021916908373ffffffffffffffffffffffffffffffffffffffff1602179055508360028190555082600460000160006101000a81548173ffffffffffffffffffffffffffffffffffffffff021916908373ffffffffffffffffffffffffffffffffffffffff1602179055508360076001018190555081600b60000160006101000a81548173ffffffffffffffffffffffffffffffffffffffff021916908373ffffffffffffffffffffffffffffffffffffffff16021790555080600060016101000a81548173ffffffffffffffffffffffffffffffffffffffff021916908373ffffffffffffffffffffffffffffffffffffffff16021790555050505050506120e5806102626000396000f300608060405260043610610112576000357c0100000000000000000000000000000000000000000000000000000000900463ffffffff1680630588565f1461011757806307d76c391461015a57806308551a5314610171578063176fd3f0146101fb5780632b20e397146102525780632cca873b146102bf5780632dfb39fd146102ee57806347e79635146103455780637150d8ae14610374578063904c6094146103fe5780639c5320af1461048e5780639d54c79d146104da578063a035b1fe14610531578063a8816d651461055c578063b1c9fe6e146105e2578063bbf898031461061b578063d2753dcc1461065e578063da52ede6146106c7578063dc9f21c11461074d578063ea8a1af0146107b6575b600080fd5b34801561012357600080fd5b50610158600480360381019080803573ffffffffffffffffffffffffffffffffffffffff1690602001909291905050506107cd565b005b34801561016657600080fd5b5061016f610866565b005b34801561017d57600080fd5b50610186610d1d565b604051808773ffffffffffffffffffffffffffffffffffffffff1673ffffffffffffffffffffffffffffffffffffffff16815260200186815260200185151515158152602001841515151581526020018315151515815260200182151515158152602001965050505050505060405180910390f35b34801561020757600080fd5b50610210610d9b565b604051808273ffffffffffffffffffffffffffffffffffffffff1673ffffffffffffffffffffffffffffffffffffffff16815260200191505060405180910390f35b34801561025e57600080fd5b50610267610dc1565b604051808473ffffffffffffffffffffffffffffffffffffffff1673ffffffffffffffffffffffffffffffffffffffff1681526020018315151515815260200182151515158152602001935050505060405180910390f35b3480156102cb57600080fd5b506102ec600480360381019080803515159060200190929190505050610e13565b005b3480156102fa57600080fd5b506103036112c4565b604051808273ffffffffffffffffffffffffffffffffffffffff1673ffffffffffffffffffffffffffffffffffffffff16815260200191505060405180910390f35b34801561035157600080fd5b506103726004803603810190808035151590602001909291905050506112ea565b005b34801561038057600080fd5b506103896114fc565b604051808773ffffffffffffffffffffffffffffffffffffffff1673ffffffffffffffffffffffffffffffffffffffff16815260200186815260200185151515158152602001841515151581526020018315151515815260200182151515158152602001965050505050505060405180910390f35b34801561040a57600080fd5b5061041361157a565b6040518080602001828103825283818151815260200191508051906020019080838360005b83811015610453578082015181840152602081019050610438565b50505050905090810190601f1680156104805780820380516001836020036101000a031916815260200191505b509250505060405180910390f35b34801561049a57600080fd5b506104a3611618565b6040518085815260200184151515158152602001831515151581526020018215151515815260200194505050505060405180910390f35b3480156104e657600080fd5b506104ef611686565b604051808273ffffffffffffffffffffffffffffffffffffffff1673ffffffffffffffffffffffffffffffffffffffff16815260200191505060405180910390f35b34801561053d57600080fd5b506105466116b2565b6040518082815260200191505060405180910390f35b34801561056857600080fd5b506105716116b8565b604051808773ffffffffffffffffffffffffffffffffffffffff1673ffffffffffffffffffffffffffffffffffffffff168152602001868152602001858152602001841515151581526020018315151515815260200182151515158152602001965050505050505060405180910390f35b3480156105ee57600080fd5b506105f76118c3565b6040518082600781111561060757fe5b60ff16815260200191505060405180910390f35b34801561062757600080fd5b5061065c600480360381019080803573ffffffffffffffffffffffffffffffffffffffff1690602001909291905050506118d5565b005b34801561066a57600080fd5b506106c5600480360381019080803590602001908201803590602001908080601f0160208091040260200160405190810160405280939291908181526020018383808284378201915050505050509192919290505050611964565b005b3480156106d357600080fd5b506106dc6119e1565b604051808773ffffffffffffffffffffffffffffffffffffffff1673ffffffffffffffffffffffffffffffffffffffff168152602001868152602001858152602001841515151581526020018315151515815260200182151515158152602001965050505050505060405180910390f35b34801561075957600080fd5b506107b4600480360381019080803590602001908201803590602001908080601f0160208091040260200160405190810160405280939291908181526020018383808284378201915050505050509192919290505050611bec565b005b3480156107c257600080fd5b506107cb611dbd565b005b60008060078111156107db57fe5b6000809054906101000a900460ff1660078111156107f557fe5b14151561080157600080fd5b610809611e20565b151561081457600080fd5b81600a60000160006101000a81548173ffffffffffffffffffffffffffffffffffffffff021916908373ffffffffffffffffffffffffffffffffffffffff1602179055506108626001611e7b565b5050565b61086e611f03565b8061087d575061087c611e20565b5b151561088857600080fd5b600380600781111561089657fe5b6000809054906101000a900460ff1660078111156108b057fe5b1415156108bc57600080fd5b7f737c69225d647e5994eab1a6c301bf6d9232beb2759ae1e27a8966b4732bc48933600060019054906101000a900473ffffffffffffffffffffffffffffffffffffffff1673ffffffffffffffffffffffffffffffffffffffff1663dd62ed3e33306040518363ffffffff167c0100000000000000000000000000000000000000000000000000000000028152600401808373ffffffffffffffffffffffffffffffffffffffff1673ffffffffffffffffffffffffffffffffffffffff1681526020018273ffffffffffffffffffffffffffffffffffffffff1673ffffffffffffffffffffffffffffffffffffffff16815260200192505050602060405180830381600087803b1580156109cf57600080fd5b505af11580156109e3573d6000803e3d6000fd5b505050506040513d60208110156109f957600080fd5b8101908080519060200190929190505050604051808373ffffffffffffffffffffffffffffffffffffffff1673ffffffffffffffffffffffffffffffffffffffff1681526020018281526020019250505060405180910390a1600760010154600060019054906101000a900473ffffffffffffffffffffffffffffffffffffffff1673ffffffffffffffffffffffffffffffffffffffff1663dd62ed3e600760000160009054906101000a900473ffffffffffffffffffffffffffffffffffffffff16306040518363ffffffff167c0100000000000000000000000000000000000000000000000000000000028152600401808373ffffffffffffffffffffffffffffffffffffffff1673ffffffffffffffffffffffffffffffffffffffff1681526020018273ffffffffffffffffffffffffffffffffffffffff1673ffffffffffffffffffffffffffffffffffffffff16815260200192505050602060405180830381600087803b158015610b6e57600080fd5b505af1158015610b82573d6000803e3d6000fd5b505050506040513d6020811015610b9857600080fd5b8101908080519060200190929190505050148015610d0a5750600460010154600060019054906101000a900473ffffffffffffffffffffffffffffffffffffffff1673ffffffffffffffffffffffffffffffffffffffff1663dd62ed3e600460000160009054906101000a900473ffffffffffffffffffffffffffffffffffffffff16306040518363ffffffff167c0100000000000000000000000000000000000000000000000000000000028152600401808373ffffffffffffffffffffffffffffffffffffffff1673ffffffffffffffffffffffffffffffffffffffff1681526020018273ffffffffffffffffffffffffffffffffffffffff1673ffffffffffffffffffffffffffffffffffffffff16815260200192505050602060405180830381600087803b158015610ccd57600080fd5b505af1158015610ce1573d6000803e3d6000fd5b505050506040513d6020811015610cf757600080fd5b8101908080519060200190929190505050145b15610d1a57610d196004611e7b565b5b50565b60048060000160009054906101000a900473ffffffffffffffffffffffffffffffffffffffff16908060010154908060020160009054906101000a900460ff16908060020160019054906101000a900460ff16908060020160029054906101000a900460ff16908060020160039054906101000a900460ff16905086565b600160009054906101000a900473ffffffffffffffffffffffffffffffffffffffff1681565b600b8060000160009054906101000a900473ffffffffffffffffffffffffffffffffffffffff16908060000160149054906101000a900460ff16908060000160159054906101000a900460ff16905083565b610e1b611f5e565b1515610e2657600080fd5b6005806007811115610e3457fe5b6000809054906101000a900460ff166007811115610e4e57fe5b141515610e5a57600080fd5b81600b60000160156101000a81548160ff0219169083151502179055506001600b60000160146101000a81548160ff021916908315150217905550610e9f6006611e7b565b811561117d57600160009054906101000a900473ffffffffffffffffffffffffffffffffffffffff1673ffffffffffffffffffffffffffffffffffffffff16636d435421600460000160009054906101000a900473ffffffffffffffffffffffffffffffffffffffff16600760000160009054906101000a900473ffffffffffffffffffffffffffffffffffffffff166040518363ffffffff167c0100000000000000000000000000000000000000000000000000000000028152600401808373ffffffffffffffffffffffffffffffffffffffff1673ffffffffffffffffffffffffffffffffffffffff1681526020018273ffffffffffffffffffffffffffffffffffffffff1673ffffffffffffffffffffffffffffffffffffffff16815260200192505050600060405180830381600087803b158015610fe057600080fd5b505af1158015610ff4573d6000803e3d6000fd5b50505050600060019054906101000a900473ffffffffffffffffffffffffffffffffffffffff1673ffffffffffffffffffffffffffffffffffffffff166323b872dd600760000160009054906101000a900473ffffffffffffffffffffffffffffffffffffffff16600460000160009054906101000a900473ffffffffffffffffffffffffffffffffffffffff166007600101546040518463ffffffff167c0100000000000000000000000000000000000000000000000000000000028152600401808473ffffffffffffffffffffffffffffffffffffffff1673ffffffffffffffffffffffffffffffffffffffff1681526020018373ffffffffffffffffffffffffffffffffffffffff1673ffffffffffffffffffffffffffffffffffffffff1681526020018281526020019350505050602060405180830381600087803b15801561114057600080fd5b505af1158015611154573d6000803e3d6000fd5b505050506040513d602081101561116a57600080fd5b8101908080519060200190929190505050505b7f5be054805b83147c6c25ca72206a773c7c1f2d4fe187488e466e10ec172f5532600160009054906101000a900473ffffffffffffffffffffffffffffffffffffffff1683600460000160009054906101000a900473ffffffffffffffffffffffffffffffffffffffff16600760000160009054906101000a900473ffffffffffffffffffffffffffffffffffffffff16604051808573ffffffffffffffffffffffffffffffffffffffff1673ffffffffffffffffffffffffffffffffffffffff168152602001841515151581526020018373ffffffffffffffffffffffffffffffffffffffff1673ffffffffffffffffffffffffffffffffffffffff1681526020018273ffffffffffffffffffffffffffffffffffffffff1673ffffffffffffffffffffffffffffffffffffffff16815260200194505050505060405180910390a15050565b600060019054906101000a900473ffffffffffffffffffffffffffffffffffffffff1681565b6112f2611f03565b806113015750611300611e20565b5b151561130c57600080fd5b600480600781111561131a57fe5b6000809054906101000a900460ff16600781111561133457fe5b14151561134057600080fd5b611348611f03565b156113ac57600460020160029054906101000a900460ff1615151561136c57600080fd5b81600460020160036101000a81548160ff0219169083151502179055506001600460020160026101000a81548160ff021916908315150217905550611415565b6113b4611e20565b1561141457600760020160029054906101000a900460ff161515156113d857600080fd5b81600760020160036101000a81548160ff0219169083151502179055506001600760020160026101000a81548160ff0219169083151502179055505b5b7f6987327e18ad4f4fbe7093291548072eaba4360344060c1852238a6876b6bdb73383604051808373ffffffffffffffffffffffffffffffffffffffff1673ffffffffffffffffffffffffffffffffffffffff168152602001821515151581526020019250505060405180910390a1600760020160029054906101000a900460ff1680156114b25750600760020160039054906101000a900460ff165b80156114cd5750600460020160029054906101000a900460ff165b80156114e85750600460020160039054906101000a900460ff165b156114f8576114f76005611e7b565b5b5050565b60078060000160009054906101000a900473ffffffffffffffffffffffffffffffffffffffff16908060010154908060020160009054906101000a900460ff16908060020160019054906101000a900460ff16908060020160029054906101000a900460ff16908060020160039054906101000a900460ff16905086565b60038054600181600116156101000203166002900480601f0160208091040260200160405190810160405280929190818152602001828054600181600116156101000203166002900480156116105780601f106115e557610100808354040283529160200191611610565b820191906000526020600020905b8154815290600101906020018083116115f357829003601f168201915b505050505081565b6000806000806000809054906101000a900460ff16600781111561163857fe5b6000600380546001816001161561010002031660029004905011600b60000160149054906101000a900460ff16600b60000160159054906101000a900460ff16935093509350935090919293565b600a8060000160009054906101000a900473ffffffffffffffffffffffffffffffffffffffff16905081565b60025481565b600080600080600080600760000160009054906101000a900473ffffffffffffffffffffffffffffffffffffffff16600760010154600360078111156116fa57fe5b6000809054906101000a900460ff16600781111561171457fe5b1161186f57600060019054906101000a900473ffffffffffffffffffffffffffffffffffffffff1673ffffffffffffffffffffffffffffffffffffffff1663dd62ed3e600760000160009054906101000a900473ffffffffffffffffffffffffffffffffffffffff16306040518363ffffffff167c0100000000000000000000000000000000000000000000000000000000028152600401808373ffffffffffffffffffffffffffffffffffffffff1673ffffffffffffffffffffffffffffffffffffffff1681526020018273ffffffffffffffffffffffffffffffffffffffff1673ffffffffffffffffffffffffffffffffffffffff16815260200192505050602060405180830381600087803b15801561182f57600080fd5b505af1158015611843573d6000803e3d6000fd5b505050506040513d602081101561185957600080fd5b8101908080519060200190929190505050611876565b6007600101545b600760020160019054906101000a900460ff16600760020160029054906101000a900460ff16600760020160039054906101000a900460ff16955095509550955095509550909192939495565b6000809054906101000a900460ff1681565b60008060078111156118e357fe5b6000809054906101000a900460ff1660078111156118fd57fe5b14151561190957600080fd5b611911611f03565b151561191c57600080fd5b81600760000160006101000a81548173ffffffffffffffffffffffffffffffffffffffff021916908373ffffffffffffffffffffffffffffffffffffffff1602179055505050565b61196c611fb9565b151561197757600080fd5b600180600781111561198557fe5b6000809054906101000a900460ff16600781111561199f57fe5b1415156119ab57600080fd5b60008251141515156119bc57600080fd5b81600390805190602001906119d2929190612014565b506119dd6002611e7b565b5050565b600080600080600080600460000160009054906101000a900473ffffffffffffffffffffffffffffffffffffffff1660046001015460036007811115611a2357fe5b6000809054906101000a900460ff166007811115611a3d57fe5b11611b9857600060019054906101000a900473ffffffffffffffffffffffffffffffffffffffff1673ffffffffffffffffffffffffffffffffffffffff1663dd62ed3e600460000160009054906101000a900473ffffffffffffffffffffffffffffffffffffffff16306040518363ffffffff167c0100000000000000000000000000000000000000000000000000000000028152600401808373ffffffffffffffffffffffffffffffffffffffff1673ffffffffffffffffffffffffffffffffffffffff1681526020018273ffffffffffffffffffffffffffffffffffffffff1673ffffffffffffffffffffffffffffffffffffffff16815260200192505050602060405180830381600087803b158015611b5857600080fd5b505af1158015611b6c573d6000803e3d6000fd5b505050506040513d6020811015611b8257600080fd5b8101908080519060200190929190505050611b9f565b6004600101545b600460020160019054906101000a900460ff16600460020160029054906101000a900460ff16600460020160039054906101000a900460ff16955095509550955095509550909192939495565b611bf4611f03565b80611c035750611c02611e20565b5b1515611c0e57600080fd5b6002806007811115611c1c57fe5b6000809054906101000a900460ff166007811115611c3657fe5b141515611c4257600080fd5b816040518082805190602001908083835b602083101515611c785780518252602082019150602081019050602083039250611c53565b6001836020036101000a03801982511681845116808217855250505050505090500191505060405180910390206000191660036040518082805460018160011615610100020316600290048015611d065780601f10611ce4576101008083540402835291820191611d06565b820191906000526020600020905b815481529060010190602001808311611cf2575b50509150506040518091039020600019161415611d7b57611d25611f03565b15611d4d576001600460020160016101000a81548160ff021916908315150217905550611d7a565b611d55611e20565b15611d79576001600760020160016101000a81548160ff0219169083151502179055505b5b5b600460020160019054906101000a900460ff168015611da95750600760020160019054906101000a900460ff165b15611db957611db86003611e7b565b5b5050565b611dc5611f03565b80611dd45750611dd3611e20565b5b1515611ddf57600080fd5b6005806007811115611ded57fe5b6000809054906101000a900460ff166007811115611e0757fe5b101515611e1357600080fd5b611e1d6007611e7b565b50565b6000600760000160009054906101000a900473ffffffffffffffffffffffffffffffffffffffff1673ffffffffffffffffffffffffffffffffffffffff163373ffffffffffffffffffffffffffffffffffffffff1614905090565b7f397e19cc95daee46ec657cb4185007d81b62d29f95038943e9b631b54944a5d36000809054906101000a900460ff166007811115611eb657fe5b826007811115611ec257fe5b604051808381526020018281526020019250505060405180910390a1806000806101000a81548160ff02191690836007811115611efb57fe5b021790555050565b6000600460000160009054906101000a900473ffffffffffffffffffffffffffffffffffffffff1673ffffffffffffffffffffffffffffffffffffffff163373ffffffffffffffffffffffffffffffffffffffff1614905090565b6000600b60000160009054906101000a900473ffffffffffffffffffffffffffffffffffffffff1673ffffffffffffffffffffffffffffffffffffffff163373ffffffffffffffffffffffffffffffffffffffff1614905090565b6000600a60000160009054906101000a900473ffffffffffffffffffffffffffffffffffffffff1673ffffffffffffffffffffffffffffffffffffffff163373ffffffffffffffffffffffffffffffffffffffff1614905090565b828054600181600116156101000203166002900490600052602060002090601f016020900481019282601f1061205557805160ff1916838001178555612083565b82800160010185558215612083579182015b82811115612082578251825591602001919060010190612067565b5b5090506120909190612094565b5090565b6120b691905b808211156120b257600081600090555060010161209a565b5090565b905600a165627a7a72305820965c3328cbca317957ddeb399cb5ccb543a8f8fc229804becf6d2c2986f4f4a90029",
  "source": "pragma solidity ^0.4.17;\r\n\r\nimport \"./Property.sol\";\r\nimport \"./EuroToken.sol\";\r\n\r\ncontract PurchaseContract {\r\n    // Property Info\r\n\r\n    event PhaseChanged(uint oldPhase, uint newPhase);\r\n    event Signed(address from, bool signature);\r\n    event Paid(address from, uint paid);\r\n    event Calificated(address property, bool calification, address oldOwner, address newOwner);\r\n\r\n    enum Phases { Join, Writting, Validation, Paying, Signing, Calificating, Finished, Canceled }\r\n    Phases public phase;\r\n\r\n    EuroToken public euroToken;\r\n\r\n    address public property;\r\n    uint public price;    \r\n    string public contractHash;\r\n   \r\n\r\n    struct ContractParticipant {\r\n        address addr;\r\n        uint debt;\r\n        bool hasValidated;\r\n        bool contractValidation;\r\n        bool hasSigned;\r\n        bool signature;\r\n    }\r\n\r\n    struct Registrar {\r\n        address addr;\r\n        bool hasCalificated;\r\n        bool calification;\r\n    }\r\n\r\n    struct Notary {\r\n        address addr;\r\n    }\r\n\r\n    ContractParticipant public seller;\r\n    ContractParticipant public buyer;\r\n    Notary public notary;\r\n    Registrar public registrar;\r\n\r\n    function PurchaseContract(address _property, uint _price, address _seller, address _registrar, address _euroToken) public {\r\n        require(Property(_property).getOwner() == _seller);\r\n        property = _property;\r\n        price = _price;\r\n        seller.addr = _seller;\r\n        buyer.debt = _price;\r\n        registrar.addr = _registrar;\r\n        euroToken = EuroToken(_euroToken);\r\n    }\r\n\r\n    /***********************************************\r\n    *  Phase Functions\r\n    */\r\n\r\n    function changePhase(Phases newPhase) internal {\r\n        PhaseChanged(uint(phase), uint(newPhase));\r\n        phase = newPhase;\r\n    } \r\n\r\n    /***********************************************\r\n     *  -> Cancel\r\n     */\r\n\r\n    function cancel() public onlySellerOrBuyer onlyBefore(Phases.Calificating) {\r\n        changePhase(Phases.Canceled);\r\n    }\r\n\r\n    /***********************************************\r\n     *  Phase: Join\r\n     */\r\n\r\n    function addBuyer(address _buyer) public onlyWhen(Phases.Join) onlySeller {\r\n        buyer.addr = _buyer;\r\n    }\r\n\r\n    function addNotary(address _notary) public onlyWhen(Phases.Join) onlyBuyer {\r\n        notary.addr = _notary;\r\n        changePhase(Phases.Writting);\r\n    }\r\n\r\n    /***********************************************\r\n     *  Phase.Writting\r\n     */\r\n\r\n    function setContractHash(string hash) public onlyNotary onlyWhen(Phases.Writting) {\r\n        require(bytes(hash).length != 0);\r\n        contractHash = hash;\r\n        changePhase(Phases.Validation);\r\n    }\r\n\r\n    /***********************************************\r\n     *  Phase.Validation\r\n     */\r\n\r\n    function validateContractDocument(string hash) public onlySellerOrBuyer onlyWhen(Phases.Validation) {\r\n\r\n        if (keccak256(contractHash) == keccak256(hash)) {\r\n            if (isSeller()) seller.contractValidation = true;\r\n            else if (isBuyer()) buyer.contractValidation = true;\r\n        }\r\n\r\n        if (seller.contractValidation && buyer.contractValidation) {\r\n            changePhase(Phases.Paying);\r\n        }\r\n    }\r\n\r\n    /***********************************************\r\n     *  Phase.Paying\r\n     */\r\n\r\n    function updatePayment() public onlySellerOrBuyer onlyWhen(Phases.Paying) {\r\n        Paid(msg.sender, euroToken.allowance(msg.sender, this));\r\n        if (euroToken.allowance(buyer.addr, this) == buyer.debt && euroToken.allowance(seller.addr, this) == seller.debt) {\r\n            changePhase(Phases.Signing);\r\n        }\r\n    }\r\n\r\n    /***********************************************\r\n     *  Phase.Signing\r\n     */\r\n\r\n    function sign(bool _signature) public onlySellerOrBuyer onlyWhen(Phases.Signing) {\r\n        \r\n        if (isSeller()) {\r\n            require(!seller.hasSigned);\r\n            seller.signature = _signature;\r\n            seller.hasSigned = true;\r\n        } else if (isBuyer()) {\r\n            require(!buyer.hasSigned);\r\n            buyer.signature = _signature;\r\n            buyer.hasSigned = true;\r\n        }\r\n\r\n        Signed(msg.sender, _signature);\r\n\r\n        if (buyer.hasSigned && buyer.signature && seller.hasSigned && seller.signature) {\r\n            changePhase(Phases.Calificating);\r\n        }\r\n    }\r\n\r\n    /***********************************************\r\n     *  Phase.Calificating\r\n     */\r\n\r\n    function calificate(bool _calification) public onlyRegistrar onlyWhen(Phases.Calificating) {\r\n        registrar.calification = _calification;\r\n        registrar.hasCalificated = true;\r\n        changePhase(Phases.Finished);\r\n        if (_calification) {\r\n            Property(property).transferOwnership(seller.addr, buyer.addr);\r\n            euroToken.transferFrom(buyer.addr, seller.addr, buyer.debt);\r\n        }\r\n        Calificated(property, _calification, seller.addr, buyer.addr);\r\n    }\r\n\r\n    /***********************************************\r\n     *  Auxiliar Functions\r\n     */\r\n\r\n    function isBuyer() internal view returns (bool) {return (msg.sender == buyer.addr);}\r\n    function isSeller() internal view returns (bool) {return (msg.sender == seller.addr);}\r\n    function isNotary() internal view returns (bool) {return (msg.sender == notary.addr);}\r\n    function isRegistrar() internal view returns (bool) {return (msg.sender == registrar.addr);}\r\n\r\n    /***********************************************\r\n     *  Modifiers\r\n     */\r\n\r\n    modifier onlySellerOrBuyer() {require(isSeller() || isBuyer()); _;}\r\n    modifier onlyBuyer() {require(isBuyer()); _;}\r\n    modifier onlySeller() {require(isSeller()); _;}\r\n    modifier onlyNotary() {require(isNotary()); _;}\r\n    modifier onlyRegistrar() {require(isRegistrar()); _;}\r\n    modifier onlyWhen(Phases strictPhase) {require(phase == strictPhase); _;}\r\n    modifier onlyBefore(Phases beforePhase) {require(phase < beforePhase); _;}\r\n    /***********************************************\r\n    *  Info Getters\r\n    */\r\n    \r\n    function getSellerSummary() public view returns (address addr, uint debt, uint paid, bool contractValidation, bool hasSigned, bool signature) {\r\n        return (\r\n            seller.addr,\r\n            seller.debt,\r\n            (phase > Phases.Paying)? seller.debt: euroToken.allowance(seller.addr, this),\r\n            seller.contractValidation,\r\n            seller.hasSigned,\r\n            seller.signature\r\n        );\r\n    }\r\n\r\n    function getBuyerSummary() public view returns (address addr, uint debt, uint paid, bool contractValidation, bool hasSigned, bool signature) {\r\n        return (\r\n            buyer.addr,\r\n            buyer.debt,\r\n            (phase > Phases.Paying)? buyer.debt: euroToken.allowance(buyer.addr, this),\r\n            buyer.contractValidation,\r\n            buyer.hasSigned,\r\n            buyer.signature\r\n        );\r\n    }\r\n\r\n    function getContractSummary() public view returns (uint currentPhase, bool contractWritten, bool hasBeenCalificated, bool calification) {\r\n        return(\r\n            uint(phase),\r\n            (bytes(contractHash).length > 0),\r\n            registrar.hasCalificated,\r\n            registrar.calification\r\n        );\r\n    }\r\n}",
  "sourcePath": "C:\\Users\\Elias\\Documents\\GitHub\\angular-tfg\\truffle\\contracts\\PurchaseContract.sol",
  "compiler": {
    "name": "solc",
    "version": "0.4.24+commit.e67f0147.Emscripten.clang"
  },
  "schemaVersion": "2.0.0",
  "updatedAt": "2018-06-03T21:55:40.066Z"
}