{
  "contractName": "PurchaseContract",
  "abi": [
    {
      "constant": true,
      "inputs": [],
      "name": "calification",
      "outputs": [
        {
          "name": "",
          "type": "bool"
        }
      ],
      "payable": false,
      "stateMutability": "view",
      "type": "function"
    },
    {
      "constant": true,
      "inputs": [],
      "name": "seller",
      "outputs": [
        {
          "name": "addr",
          "type": "address"
        },
        {
          "name": "debt",
          "type": "uint256"
        },
        {
          "name": "hasValidated",
          "type": "bool"
        },
        {
          "name": "contractValidation",
          "type": "bool"
        },
        {
          "name": "hasSigned",
          "type": "bool"
        },
        {
          "name": "signature",
          "type": "bool"
        }
      ],
      "payable": false,
      "stateMutability": "view",
      "type": "function"
    },
    {
      "constant": true,
      "inputs": [],
      "name": "property",
      "outputs": [
        {
          "name": "",
          "type": "address"
        }
      ],
      "payable": false,
      "stateMutability": "view",
      "type": "function"
    },
    {
      "constant": true,
      "inputs": [],
      "name": "euroToken",
      "outputs": [
        {
          "name": "",
          "type": "address"
        }
      ],
      "payable": false,
      "stateMutability": "view",
      "type": "function"
    },
    {
      "constant": true,
      "inputs": [],
      "name": "buyer",
      "outputs": [
        {
          "name": "addr",
          "type": "address"
        },
        {
          "name": "debt",
          "type": "uint256"
        },
        {
          "name": "hasValidated",
          "type": "bool"
        },
        {
          "name": "contractValidation",
          "type": "bool"
        },
        {
          "name": "hasSigned",
          "type": "bool"
        },
        {
          "name": "signature",
          "type": "bool"
        }
      ],
      "payable": false,
      "stateMutability": "view",
      "type": "function"
    },
    {
      "constant": true,
      "inputs": [],
      "name": "hasCalificated",
      "outputs": [
        {
          "name": "",
          "type": "bool"
        }
      ],
      "payable": false,
      "stateMutability": "view",
      "type": "function"
    },
    {
      "constant": true,
      "inputs": [],
      "name": "contractHash",
      "outputs": [
        {
          "name": "",
          "type": "string"
        }
      ],
      "payable": false,
      "stateMutability": "view",
      "type": "function"
    },
    {
      "constant": true,
      "inputs": [],
      "name": "notary",
      "outputs": [
        {
          "name": "",
          "type": "address"
        }
      ],
      "payable": false,
      "stateMutability": "view",
      "type": "function"
    },
    {
      "constant": true,
      "inputs": [],
      "name": "price",
      "outputs": [
        {
          "name": "",
          "type": "uint256"
        }
      ],
      "payable": false,
      "stateMutability": "view",
      "type": "function"
    },
    {
      "constant": true,
      "inputs": [],
      "name": "phase",
      "outputs": [
        {
          "name": "",
          "type": "uint8"
        }
      ],
      "payable": false,
      "stateMutability": "view",
      "type": "function"
    },
    {
      "inputs": [
        {
          "name": "_property",
          "type": "address"
        },
        {
          "name": "_price",
          "type": "uint256"
        },
        {
          "name": "_euroToken",
          "type": "address"
        }
      ],
      "payable": false,
      "stateMutability": "nonpayable",
      "type": "constructor"
    },
    {
      "anonymous": false,
      "inputs": [
        {
          "indexed": false,
          "name": "oldPhase",
          "type": "uint256"
        },
        {
          "indexed": false,
          "name": "newPhase",
          "type": "uint256"
        }
      ],
      "name": "PhaseChanged",
      "type": "event"
    },
    {
      "anonymous": false,
      "inputs": [
        {
          "indexed": false,
          "name": "from",
          "type": "address"
        },
        {
          "indexed": false,
          "name": "signature",
          "type": "bool"
        }
      ],
      "name": "Signed",
      "type": "event"
    },
    {
      "anonymous": false,
      "inputs": [
        {
          "indexed": false,
          "name": "from",
          "type": "address"
        },
        {
          "indexed": false,
          "name": "paid",
          "type": "uint256"
        }
      ],
      "name": "Paid",
      "type": "event"
    },
    {
      "anonymous": false,
      "inputs": [
        {
          "indexed": false,
          "name": "property",
          "type": "address"
        },
        {
          "indexed": false,
          "name": "calification",
          "type": "bool"
        },
        {
          "indexed": false,
          "name": "oldOwner",
          "type": "address"
        },
        {
          "indexed": false,
          "name": "newOwner",
          "type": "address"
        }
      ],
      "name": "Calificated",
      "type": "event"
    },
    {
      "constant": false,
      "inputs": [],
      "name": "cancel",
      "outputs": [],
      "payable": false,
      "stateMutability": "nonpayable",
      "type": "function"
    },
    {
      "constant": false,
      "inputs": [
        {
          "name": "_buyer",
          "type": "address"
        }
      ],
      "name": "addBuyer",
      "outputs": [],
      "payable": false,
      "stateMutability": "nonpayable",
      "type": "function"
    },
    {
      "constant": false,
      "inputs": [
        {
          "name": "_notary",
          "type": "address"
        }
      ],
      "name": "addNotary",
      "outputs": [],
      "payable": false,
      "stateMutability": "nonpayable",
      "type": "function"
    },
    {
      "constant": false,
      "inputs": [
        {
          "name": "hash",
          "type": "string"
        }
      ],
      "name": "setContractHash",
      "outputs": [],
      "payable": false,
      "stateMutability": "nonpayable",
      "type": "function"
    },
    {
      "constant": false,
      "inputs": [
        {
          "name": "hash",
          "type": "string"
        }
      ],
      "name": "validateContractDocument",
      "outputs": [],
      "payable": false,
      "stateMutability": "nonpayable",
      "type": "function"
    },
    {
      "constant": false,
      "inputs": [],
      "name": "updatePayment",
      "outputs": [],
      "payable": false,
      "stateMutability": "nonpayable",
      "type": "function"
    },
    {
      "constant": false,
      "inputs": [
        {
          "name": "_signature",
          "type": "bool"
        }
      ],
      "name": "sign",
      "outputs": [],
      "payable": false,
      "stateMutability": "nonpayable",
      "type": "function"
    },
    {
      "constant": false,
      "inputs": [
        {
          "name": "_calification",
          "type": "bool"
        }
      ],
      "name": "calificate",
      "outputs": [],
      "payable": false,
      "stateMutability": "nonpayable",
      "type": "function"
    },
    {
      "constant": true,
      "inputs": [],
      "name": "getSeller",
      "outputs": [
        {
          "name": "",
          "type": "address"
        }
      ],
      "payable": false,
      "stateMutability": "view",
      "type": "function"
    },
    {
      "constant": true,
      "inputs": [],
      "name": "getBuyer",
      "outputs": [
        {
          "name": "",
          "type": "address"
        }
      ],
      "payable": false,
      "stateMutability": "view",
      "type": "function"
    },
    {
      "constant": true,
      "inputs": [],
      "name": "getNotary",
      "outputs": [
        {
          "name": "",
          "type": "address"
        }
      ],
      "payable": false,
      "stateMutability": "view",
      "type": "function"
    },
    {
      "constant": true,
      "inputs": [],
      "name": "getRegistrar",
      "outputs": [
        {
          "name": "",
          "type": "address"
        }
      ],
      "payable": false,
      "stateMutability": "view",
      "type": "function"
    },
    {
      "constant": true,
      "inputs": [],
      "name": "getSellerSummary",
      "outputs": [
        {
          "name": "addr",
          "type": "address"
        },
        {
          "name": "debt",
          "type": "uint256"
        },
        {
          "name": "paid",
          "type": "uint256"
        },
        {
          "name": "contractValidation",
          "type": "bool"
        },
        {
          "name": "hasSigned",
          "type": "bool"
        },
        {
          "name": "signature",
          "type": "bool"
        }
      ],
      "payable": false,
      "stateMutability": "view",
      "type": "function"
    },
    {
      "constant": true,
      "inputs": [],
      "name": "getBuyerSummary",
      "outputs": [
        {
          "name": "addr",
          "type": "address"
        },
        {
          "name": "debt",
          "type": "uint256"
        },
        {
          "name": "paid",
          "type": "uint256"
        },
        {
          "name": "contractValidation",
          "type": "bool"
        },
        {
          "name": "hasSigned",
          "type": "bool"
        },
        {
          "name": "signature",
          "type": "bool"
        }
      ],
      "payable": false,
      "stateMutability": "view",
      "type": "function"
    },
    {
      "constant": true,
      "inputs": [],
      "name": "getContractSummary",
      "outputs": [
        {
          "name": "",
          "type": "uint256"
        },
        {
          "name": "",
          "type": "bool"
        },
        {
          "name": "",
          "type": "bool"
        },
        {
          "name": "",
          "type": "bool"
        }
      ],
      "payable": false,
      "stateMutability": "view",
      "type": "function"
    }
  ],
  "bytecode": "0x608060405234801561001057600080fd5b5060405160608061268283398101806040528101908080519060200190929190805190602001909291908051906020019092919050505082600160006101000a81548173ffffffffffffffffffffffffffffffffffffffff021916908373ffffffffffffffffffffffffffffffffffffffff160217905550600160009054906101000a900473ffffffffffffffffffffffffffffffffffffffff1673ffffffffffffffffffffffffffffffffffffffff16638da5cb5b6040518163ffffffff167c0100000000000000000000000000000000000000000000000000000000028152600401602060405180830381600087803b15801561010e57600080fd5b505af1158015610122573d6000803e3d6000fd5b505050506040513d602081101561013857600080fd5b8101908080519060200190929190505050600560000160006101000a81548173ffffffffffffffffffffffffffffffffffffffff021916908373ffffffffffffffffffffffffffffffffffffffff160217905550816002819055508160086001018190555080600060016101000a81548173ffffffffffffffffffffffffffffffffffffffff021916908373ffffffffffffffffffffffffffffffffffffffff160217905550505050612492806101f06000396000f300608060405260043610610148576000357c0100000000000000000000000000000000000000000000000000000000900463ffffffff16806254b5cd1461014d5780630588565f1461017c57806307d76c39146101bf57806308551a53146101d6578063176fd3f0146102605780632cca873b146102b75780632dfb39fd146102e657806347e796351461033d5780634d3f73341461036c578063603daf9a146103c35780637150d8ae1461041a5780637ae46b86146104a4578063904c6094146104d35780639c5320af146105635780639d54c79d146105af578063a035b1fe14610606578063a8816d6514610631578063b1c9fe6e146106b7578063b91808b1146106f0578063bbf8980314610747578063d2753dcc1461078a578063da52ede6146107f3578063dbd0e1b614610879578063dc9f21c1146108d0578063ea8a1af014610939575b600080fd5b34801561015957600080fd5b50610162610950565b604051808215151515815260200191505060405180910390f35b34801561018857600080fd5b506101bd600480360381019080803573ffffffffffffffffffffffffffffffffffffffff169060200190929190505050610963565b005b3480156101cb57600080fd5b506101d46109f9565b005b3480156101e257600080fd5b506101eb610eb0565b604051808773ffffffffffffffffffffffffffffffffffffffff1673ffffffffffffffffffffffffffffffffffffffff16815260200186815260200185151515158152602001841515151581526020018315151515815260200182151515158152602001965050505050505060405180910390f35b34801561026c57600080fd5b50610275610f2e565b604051808273ffffffffffffffffffffffffffffffffffffffff1673ffffffffffffffffffffffffffffffffffffffff16815260200191505060405180910390f35b3480156102c357600080fd5b506102e4600480360381019080803515159060200190929190505050610f54565b005b3480156102f257600080fd5b506102fb61134a565b604051808273ffffffffffffffffffffffffffffffffffffffff1673ffffffffffffffffffffffffffffffffffffffff16815260200191505060405180910390f35b34801561034957600080fd5b5061036a600480360381019080803515159060200190929190505050611370565b005b34801561037857600080fd5b50610381611582565b604051808273ffffffffffffffffffffffffffffffffffffffff1673ffffffffffffffffffffffffffffffffffffffff16815260200191505060405180910390f35b3480156103cf57600080fd5b506103d86116e8565b604051808273ffffffffffffffffffffffffffffffffffffffff1673ffffffffffffffffffffffffffffffffffffffff16815260200191505060405180910390f35b34801561042657600080fd5b5061042f611715565b604051808773ffffffffffffffffffffffffffffffffffffffff1673ffffffffffffffffffffffffffffffffffffffff16815260200186815260200185151515158152602001841515151581526020018315151515815260200182151515158152602001965050505050505060405180910390f35b3480156104b057600080fd5b506104b9611793565b604051808215151515815260200191505060405180910390f35b3480156104df57600080fd5b506104e86117a6565b6040518080602001828103825283818151815260200191508051906020019080838360005b8381101561052857808201518184015260208101905061050d565b50505050905090810190601f1680156105555780820380516001836020036101000a031916815260200191505b509250505060405180910390f35b34801561056f57600080fd5b50610578611844565b6040518085815260200184151515158152602001831515151581526020018215151515815260200194505050505060405180910390f35b3480156105bb57600080fd5b506105c46118ac565b604051808273ffffffffffffffffffffffffffffffffffffffff1673ffffffffffffffffffffffffffffffffffffffff16815260200191505060405180910390f35b34801561061257600080fd5b5061061b6118d2565b6040518082815260200191505060405180910390f35b34801561063d57600080fd5b506106466118d8565b604051808773ffffffffffffffffffffffffffffffffffffffff1673ffffffffffffffffffffffffffffffffffffffff168152602001868152602001858152602001841515151581526020018315151515815260200182151515158152602001965050505050505060405180910390f35b3480156106c357600080fd5b506106cc611ae3565b604051808260078111156106dc57fe5b60ff16815260200191505060405180910390f35b3480156106fc57600080fd5b50610705611af5565b604051808273ffffffffffffffffffffffffffffffffffffffff1673ffffffffffffffffffffffffffffffffffffffff16815260200191505060405180910390f35b34801561075357600080fd5b50610788600480360381019080803573ffffffffffffffffffffffffffffffffffffffff169060200190929190505050611b1f565b005b34801561079657600080fd5b506107f1600480360381019080803590602001908201803590602001908080601f0160208091040260200160405190810160405280939291908181526020018383808284378201915050505050509192919290505050611bae565b005b3480156107ff57600080fd5b50610808611c2b565b604051808773ffffffffffffffffffffffffffffffffffffffff1673ffffffffffffffffffffffffffffffffffffffff168152602001868152602001858152602001841515151581526020018315151515815260200182151515158152602001965050505050505060405180910390f35b34801561088557600080fd5b5061088e611e36565b604051808273ffffffffffffffffffffffffffffffffffffffff1673ffffffffffffffffffffffffffffffffffffffff16815260200191505060405180910390f35b3480156108dc57600080fd5b50610937600480360381019080803590602001908201803590602001908080601f0160208091040260200160405190810160405280939291908181526020018383808284378201915050505050509192919290505050611e63565b005b34801561094557600080fd5b5061094e612034565b005b600460019054906101000a900460ff1681565b600080600781111561097157fe5b6000809054906101000a900460ff16600781111561098b57fe5b14151561099757600080fd5b61099f612097565b15156109aa57600080fd5b81600460026101000a81548173ffffffffffffffffffffffffffffffffffffffff021916908373ffffffffffffffffffffffffffffffffffffffff1602179055506109f560016120f2565b5050565b610a0161217a565b80610a105750610a0f612097565b5b1515610a1b57600080fd5b6003806007811115610a2957fe5b6000809054906101000a900460ff166007811115610a4357fe5b141515610a4f57600080fd5b7f737c69225d647e5994eab1a6c301bf6d9232beb2759ae1e27a8966b4732bc48933600060019054906101000a900473ffffffffffffffffffffffffffffffffffffffff1673ffffffffffffffffffffffffffffffffffffffff1663dd62ed3e33306040518363ffffffff167c0100000000000000000000000000000000000000000000000000000000028152600401808373ffffffffffffffffffffffffffffffffffffffff1673ffffffffffffffffffffffffffffffffffffffff1681526020018273ffffffffffffffffffffffffffffffffffffffff1673ffffffffffffffffffffffffffffffffffffffff16815260200192505050602060405180830381600087803b158015610b6257600080fd5b505af1158015610b76573d6000803e3d6000fd5b505050506040513d6020811015610b8c57600080fd5b8101908080519060200190929190505050604051808373ffffffffffffffffffffffffffffffffffffffff1673ffffffffffffffffffffffffffffffffffffffff1681526020018281526020019250505060405180910390a1600860010154600060019054906101000a900473ffffffffffffffffffffffffffffffffffffffff1673ffffffffffffffffffffffffffffffffffffffff1663dd62ed3e600860000160009054906101000a900473ffffffffffffffffffffffffffffffffffffffff16306040518363ffffffff167c0100000000000000000000000000000000000000000000000000000000028152600401808373ffffffffffffffffffffffffffffffffffffffff1673ffffffffffffffffffffffffffffffffffffffff1681526020018273ffffffffffffffffffffffffffffffffffffffff1673ffffffffffffffffffffffffffffffffffffffff16815260200192505050602060405180830381600087803b158015610d0157600080fd5b505af1158015610d15573d6000803e3d6000fd5b505050506040513d6020811015610d2b57600080fd5b8101908080519060200190929190505050148015610e9d5750600560010154600060019054906101000a900473ffffffffffffffffffffffffffffffffffffffff1673ffffffffffffffffffffffffffffffffffffffff1663dd62ed3e600560000160009054906101000a900473ffffffffffffffffffffffffffffffffffffffff16306040518363ffffffff167c0100000000000000000000000000000000000000000000000000000000028152600401808373ffffffffffffffffffffffffffffffffffffffff1673ffffffffffffffffffffffffffffffffffffffff1681526020018273ffffffffffffffffffffffffffffffffffffffff1673ffffffffffffffffffffffffffffffffffffffff16815260200192505050602060405180830381600087803b158015610e6057600080fd5b505af1158015610e74573d6000803e3d6000fd5b505050506040513d6020811015610e8a57600080fd5b8101908080519060200190929190505050145b15610ead57610eac60046120f2565b5b50565b60058060000160009054906101000a900473ffffffffffffffffffffffffffffffffffffffff16908060010154908060020160009054906101000a900460ff16908060020160019054906101000a900460ff16908060020160029054906101000a900460ff16908060020160039054906101000a900460ff16905086565b600160009054906101000a900473ffffffffffffffffffffffffffffffffffffffff1681565b610f5c6121d5565b1515610f6757600080fd5b6005806007811115610f7557fe5b6000809054906101000a900460ff166007811115610f8f57fe5b141515610f9b57600080fd5b81600460016101000a81548160ff0219169083151502179055506001600460006101000a81548160ff021916908315150217905550610fda60066120f2565b811561120357600160009054906101000a900473ffffffffffffffffffffffffffffffffffffffff1673ffffffffffffffffffffffffffffffffffffffff1663f010655a6040518163ffffffff167c0100000000000000000000000000000000000000000000000000000000028152600401600060405180830381600087803b15801561106657600080fd5b505af115801561107a573d6000803e3d6000fd5b50505050600060019054906101000a900473ffffffffffffffffffffffffffffffffffffffff1673ffffffffffffffffffffffffffffffffffffffff166323b872dd600860000160009054906101000a900473ffffffffffffffffffffffffffffffffffffffff16600560000160009054906101000a900473ffffffffffffffffffffffffffffffffffffffff166008600101546040518463ffffffff167c0100000000000000000000000000000000000000000000000000000000028152600401808473ffffffffffffffffffffffffffffffffffffffff1673ffffffffffffffffffffffffffffffffffffffff1681526020018373ffffffffffffffffffffffffffffffffffffffff1673ffffffffffffffffffffffffffffffffffffffff1681526020018281526020019350505050602060405180830381600087803b1580156111c657600080fd5b505af11580156111da573d6000803e3d6000fd5b505050506040513d60208110156111f057600080fd5b8101908080519060200190929190505050505b7f5be054805b83147c6c25ca72206a773c7c1f2d4fe187488e466e10ec172f5532600160009054906101000a900473ffffffffffffffffffffffffffffffffffffffff1683600560000160009054906101000a900473ffffffffffffffffffffffffffffffffffffffff16600860000160009054906101000a900473ffffffffffffffffffffffffffffffffffffffff16604051808573ffffffffffffffffffffffffffffffffffffffff1673ffffffffffffffffffffffffffffffffffffffff168152602001841515151581526020018373ffffffffffffffffffffffffffffffffffffffff1673ffffffffffffffffffffffffffffffffffffffff1681526020018273ffffffffffffffffffffffffffffffffffffffff1673ffffffffffffffffffffffffffffffffffffffff16815260200194505050505060405180910390a15050565b600060019054906101000a900473ffffffffffffffffffffffffffffffffffffffff1681565b61137861217a565b806113875750611386612097565b5b151561139257600080fd5b60048060078111156113a057fe5b6000809054906101000a900460ff1660078111156113ba57fe5b1415156113c657600080fd5b6113ce61217a565b1561143257600560020160029054906101000a900460ff161515156113f257600080fd5b81600560020160036101000a81548160ff0219169083151502179055506001600560020160026101000a81548160ff02191690831515021790555061149b565b61143a612097565b1561149a57600860020160029054906101000a900460ff1615151561145e57600080fd5b81600860020160036101000a81548160ff0219169083151502179055506001600860020160026101000a81548160ff0219169083151502179055505b5b7f6987327e18ad4f4fbe7093291548072eaba4360344060c1852238a6876b6bdb73383604051808373ffffffffffffffffffffffffffffffffffffffff1673ffffffffffffffffffffffffffffffffffffffff168152602001821515151581526020019250505060405180910390a1600860020160029054906101000a900460ff1680156115385750600860020160039054906101000a900460ff165b80156115535750600560020160029054906101000a900460ff165b801561156e5750600560020160039054906101000a900460ff165b1561157e5761157d60056120f2565b5b5050565b6000600160009054906101000a900473ffffffffffffffffffffffffffffffffffffffff1673ffffffffffffffffffffffffffffffffffffffff1663bd4dc0246040518163ffffffff167c0100000000000000000000000000000000000000000000000000000000028152600401602060405180830381600087803b15801561160a57600080fd5b505af115801561161e573d6000803e3d6000fd5b505050506040513d602081101561163457600080fd5b810190808051906020019092919050505073ffffffffffffffffffffffffffffffffffffffff16632b20e3976040518163ffffffff167c0100000000000000000000000000000000000000000000000000000000028152600401602060405180830381600087803b1580156116a857600080fd5b505af11580156116bc573d6000803e3d6000fd5b505050506040513d60208110156116d257600080fd5b8101908080519060200190929190505050905090565b6000600860000160009054906101000a900473ffffffffffffffffffffffffffffffffffffffff16905090565b60088060000160009054906101000a900473ffffffffffffffffffffffffffffffffffffffff16908060010154908060020160009054906101000a900460ff16908060020160019054906101000a900460ff16908060020160029054906101000a900460ff16908060020160039054906101000a900460ff16905086565b600460009054906101000a900460ff1681565b60038054600181600116156101000203166002900480601f01602080910402602001604051908101604052809291908181526020018280546001816001161561010002031660029004801561183c5780601f106118115761010080835404028352916020019161183c565b820191906000526020600020905b81548152906001019060200180831161181f57829003601f168201915b505050505081565b6000806000806000809054906101000a900460ff16600781111561186457fe5b6000600380546001816001161561010002031660029004905011600460009054906101000a900460ff16600460019054906101000a900460ff16935093509350935090919293565b600460029054906101000a900473ffffffffffffffffffffffffffffffffffffffff1681565b60025481565b600080600080600080600860000160009054906101000a900473ffffffffffffffffffffffffffffffffffffffff166008600101546003600781111561191a57fe5b6000809054906101000a900460ff16600781111561193457fe5b11611a8f57600060019054906101000a900473ffffffffffffffffffffffffffffffffffffffff1673ffffffffffffffffffffffffffffffffffffffff1663dd62ed3e600860000160009054906101000a900473ffffffffffffffffffffffffffffffffffffffff16306040518363ffffffff167c0100000000000000000000000000000000000000000000000000000000028152600401808373ffffffffffffffffffffffffffffffffffffffff1673ffffffffffffffffffffffffffffffffffffffff1681526020018273ffffffffffffffffffffffffffffffffffffffff1673ffffffffffffffffffffffffffffffffffffffff16815260200192505050602060405180830381600087803b158015611a4f57600080fd5b505af1158015611a63573d6000803e3d6000fd5b505050506040513d6020811015611a7957600080fd5b8101908080519060200190929190505050611a96565b6008600101545b600860020160019054906101000a900460ff16600860020160029054906101000a900460ff16600860020160039054906101000a900460ff16955095509550955095509550909192939495565b6000809054906101000a900460ff1681565b6000600460029054906101000a900473ffffffffffffffffffffffffffffffffffffffff16905090565b6000806007811115611b2d57fe5b6000809054906101000a900460ff166007811115611b4757fe5b141515611b5357600080fd5b611b5b61217a565b1515611b6657600080fd5b81600860000160006101000a81548173ffffffffffffffffffffffffffffffffffffffff021916908373ffffffffffffffffffffffffffffffffffffffff1602179055505050565b611bb6612369565b1515611bc157600080fd5b6001806007811115611bcf57fe5b6000809054906101000a900460ff166007811115611be957fe5b141515611bf557600080fd5b6000825114151515611c0657600080fd5b8160039080519060200190611c1c9291906123c1565b50611c2760026120f2565b5050565b600080600080600080600560000160009054906101000a900473ffffffffffffffffffffffffffffffffffffffff1660056001015460036007811115611c6d57fe5b6000809054906101000a900460ff166007811115611c8757fe5b11611de257600060019054906101000a900473ffffffffffffffffffffffffffffffffffffffff1673ffffffffffffffffffffffffffffffffffffffff1663dd62ed3e600560000160009054906101000a900473ffffffffffffffffffffffffffffffffffffffff16306040518363ffffffff167c0100000000000000000000000000000000000000000000000000000000028152600401808373ffffffffffffffffffffffffffffffffffffffff1673ffffffffffffffffffffffffffffffffffffffff1681526020018273ffffffffffffffffffffffffffffffffffffffff1673ffffffffffffffffffffffffffffffffffffffff16815260200192505050602060405180830381600087803b158015611da257600080fd5b505af1158015611db6573d6000803e3d6000fd5b505050506040513d6020811015611dcc57600080fd5b8101908080519060200190929190505050611de9565b6005600101545b600560020160019054906101000a900460ff16600560020160029054906101000a900460ff16600560020160039054906101000a900460ff16955095509550955095509550909192939495565b6000600560000160009054906101000a900473ffffffffffffffffffffffffffffffffffffffff16905090565b611e6b61217a565b80611e7a5750611e79612097565b5b1515611e8557600080fd5b6002806007811115611e9357fe5b6000809054906101000a900460ff166007811115611ead57fe5b141515611eb957600080fd5b816040518082805190602001908083835b602083101515611eef5780518252602082019150602081019050602083039250611eca565b6001836020036101000a03801982511681845116808217855250505050505090500191505060405180910390206000191660036040518082805460018160011615610100020316600290048015611f7d5780601f10611f5b576101008083540402835291820191611f7d565b820191906000526020600020905b815481529060010190602001808311611f69575b50509150506040518091039020600019161415611ff257611f9c61217a565b15611fc4576001600560020160016101000a81548160ff021916908315150217905550611ff1565b611fcc612097565b15611ff0576001600860020160016101000a81548160ff0219169083151502179055505b5b5b600560020160019054906101000a900460ff1680156120205750600860020160019054906101000a900460ff165b156120305761202f60036120f2565b5b5050565b61203c61217a565b8061204b575061204a612097565b5b151561205657600080fd5b600580600781111561206457fe5b6000809054906101000a900460ff16600781111561207e57fe5b10151561208a57600080fd5b61209460076120f2565b50565b6000600860000160009054906101000a900473ffffffffffffffffffffffffffffffffffffffff1673ffffffffffffffffffffffffffffffffffffffff163373ffffffffffffffffffffffffffffffffffffffff1614905090565b7f397e19cc95daee46ec657cb4185007d81b62d29f95038943e9b631b54944a5d36000809054906101000a900460ff16600781111561212d57fe5b82600781111561213957fe5b604051808381526020018281526020019250505060405180910390a1806000806101000a81548160ff0219169083600781111561217257fe5b021790555050565b6000600560000160009054906101000a900473ffffffffffffffffffffffffffffffffffffffff1673ffffffffffffffffffffffffffffffffffffffff163373ffffffffffffffffffffffffffffffffffffffff1614905090565b6000600160009054906101000a900473ffffffffffffffffffffffffffffffffffffffff1673ffffffffffffffffffffffffffffffffffffffff1663bd4dc0246040518163ffffffff167c0100000000000000000000000000000000000000000000000000000000028152600401602060405180830381600087803b15801561225d57600080fd5b505af1158015612271573d6000803e3d6000fd5b505050506040513d602081101561228757600080fd5b810190808051906020019092919050505073ffffffffffffffffffffffffffffffffffffffff16632b20e3976040518163ffffffff167c0100000000000000000000000000000000000000000000000000000000028152600401602060405180830381600087803b1580156122fb57600080fd5b505af115801561230f573d6000803e3d6000fd5b505050506040513d602081101561232557600080fd5b810190808051906020019092919050505073ffffffffffffffffffffffffffffffffffffffff163373ffffffffffffffffffffffffffffffffffffffff1614905090565b6000600460029054906101000a900473ffffffffffffffffffffffffffffffffffffffff1673ffffffffffffffffffffffffffffffffffffffff163373ffffffffffffffffffffffffffffffffffffffff1614905090565b828054600181600116156101000203166002900490600052602060002090601f016020900481019282601f1061240257805160ff1916838001178555612430565b82800160010185558215612430579182015b8281111561242f578251825591602001919060010190612414565b5b50905061243d9190612441565b5090565b61246391905b8082111561245f576000816000905550600101612447565b5090565b905600a165627a7a72305820f681bbf3170a3abb5ba14fc91f78a0654ce77ff1350541c7cfe6a089e08296730029",
  "source": "pragma solidity ^0.4.17;\r\n\r\nimport \"./Property.sol\";\r\nimport \"./EuroToken.sol\";\r\n\r\ncontract PurchaseContract {\r\n    // Property Info\r\n\r\n    event PhaseChanged(uint oldPhase, uint newPhase);\r\n    event Signed(address from, bool signature);\r\n    event Paid(address from, uint paid);\r\n    event Calificated(address property, bool calification, address oldOwner, address newOwner);\r\n\r\n    enum Phases { Join, Writting, Validation, Paying, Signing, Calificating, Finished, Canceled }\r\n    Phases public phase;\r\n\r\n    EuroToken public euroToken;\r\n\r\n    Property public property;\r\n    uint public price;    \r\n    string public contractHash;\r\n    bool public hasCalificated;\r\n    bool public calification;\r\n   \r\n\r\n    struct ContractParticipant {\r\n        address addr;\r\n        uint debt;\r\n        bool hasValidated;\r\n        bool contractValidation;\r\n        bool hasSigned;\r\n        bool signature;\r\n    }\r\n\r\n    address public notary;\r\n\r\n    ContractParticipant public seller;\r\n    ContractParticipant public buyer;\r\n    \r\n\r\n    function PurchaseContract(address _property, uint _price, address _euroToken) public {\r\n        property = Property(_property);\r\n        seller.addr = property.owner();\r\n        \r\n        price = _price;\r\n        \r\n        buyer.debt = _price;\r\n        euroToken = EuroToken(_euroToken);\r\n    }\r\n\r\n    /***********************************************\r\n    *  Phase Functions\r\n    */\r\n\r\n    function changePhase(Phases newPhase) internal {\r\n        PhaseChanged(uint(phase), uint(newPhase));\r\n        phase = newPhase;\r\n    } \r\n\r\n    /***********************************************\r\n     *  -> Cancel\r\n     */\r\n\r\n    function cancel() public onlySellerOrBuyer onlyBefore(Phases.Calificating) {\r\n        changePhase(Phases.Canceled);\r\n    }\r\n\r\n    /***********************************************\r\n     *  Phase: Join\r\n     */\r\n\r\n    function addBuyer(address _buyer) public onlyWhen(Phases.Join) onlySeller {\r\n        buyer.addr = _buyer;\r\n    }\r\n\r\n    function addNotary(address _notary) public onlyWhen(Phases.Join) onlyBuyer {\r\n        notary = _notary;\r\n        changePhase(Phases.Writting);\r\n    }\r\n\r\n    /***********************************************\r\n     *  Phase.Writting\r\n     */\r\n\r\n    function setContractHash(string hash) public onlyNotary onlyWhen(Phases.Writting) {\r\n        require(bytes(hash).length != 0);\r\n        contractHash = hash;\r\n        changePhase(Phases.Validation);\r\n    }\r\n\r\n    /***********************************************\r\n     *  Phase.Validation\r\n     */\r\n\r\n    function validateContractDocument(string hash) public onlySellerOrBuyer onlyWhen(Phases.Validation) {\r\n\r\n        if (keccak256(contractHash) == keccak256(hash)) {\r\n            if (isSeller()) seller.contractValidation = true;\r\n            else if (isBuyer()) buyer.contractValidation = true;\r\n        }\r\n\r\n        if (seller.contractValidation && buyer.contractValidation) {\r\n            changePhase(Phases.Paying);\r\n        }\r\n    }\r\n\r\n    /***********************************************\r\n     *  Phase.Paying\r\n     */\r\n\r\n    function updatePayment() public onlySellerOrBuyer onlyWhen(Phases.Paying) {\r\n        Paid(msg.sender, euroToken.allowance(msg.sender, this));\r\n        if (euroToken.allowance(buyer.addr, this) == buyer.debt && euroToken.allowance(seller.addr, this) == seller.debt) {\r\n            changePhase(Phases.Signing);\r\n        }\r\n    }\r\n\r\n    /***********************************************\r\n     *  Phase.Signing\r\n     */\r\n\r\n    function sign(bool _signature) public onlySellerOrBuyer onlyWhen(Phases.Signing) {\r\n        \r\n        if (isSeller()) {\r\n            require(!seller.hasSigned);\r\n            seller.signature = _signature;\r\n            seller.hasSigned = true;\r\n        } else if (isBuyer()) {\r\n            require(!buyer.hasSigned);\r\n            buyer.signature = _signature;\r\n            buyer.hasSigned = true;\r\n        }\r\n\r\n        emit Signed(msg.sender, _signature);\r\n\r\n        if (buyer.hasSigned && buyer.signature && seller.hasSigned && seller.signature) {\r\n            changePhase(Phases.Calificating);\r\n        }\r\n    }\r\n\r\n    /***********************************************\r\n     *  Phase.Calificating\r\n     */\r\n\r\n    function calificate(bool _calification) public onlyRegistrar onlyWhen(Phases.Calificating) {\r\n        calification = _calification;\r\n        hasCalificated = true;\r\n        changePhase(Phases.Finished);\r\n        if (_calification) {\r\n            Property(property).resolvePurchase();\r\n            euroToken.transferFrom(buyer.addr, seller.addr, buyer.debt);\r\n        }\r\n        emit Calificated(property, _calification, seller.addr, buyer.addr);\r\n    }\r\n\r\n    /***********************************************\r\n     *  Auxiliar Functions\r\n     */\r\n\r\n    function isBuyer() internal view returns (bool) {return (msg.sender == buyer.addr);}\r\n    function isSeller() internal view returns (bool) {return (msg.sender == seller.addr);}\r\n    function isNotary() internal view returns (bool) {return (msg.sender == notary);}\r\n    function isRegistrar() internal view returns (bool) {return (msg.sender == property.landRegistry().registrar());}\r\n\r\n    /***********************************************\r\n     *  Modifiers\r\n     */\r\n\r\n    modifier onlySellerOrBuyer() {require(isSeller() || isBuyer()); _;}\r\n    modifier onlyBuyer() {require(isBuyer()); _;}\r\n    modifier onlySeller() {require(isSeller()); _;}\r\n    modifier onlyNotary() {require(isNotary()); _;}\r\n    modifier onlyRegistrar() {require(isRegistrar()); _;}\r\n    modifier onlyWhen(Phases strictPhase) {require(phase == strictPhase); _;}\r\n    modifier onlyBefore(Phases beforePhase) {require(phase < beforePhase); _;}\r\n    /***********************************************\r\n    *  Info Getters\r\n    */\r\n    \r\n    function getSeller() public view returns (address) {\r\n        return seller.addr;\r\n    }\r\n    \r\n    function getBuyer() public view returns (address) {\r\n        return buyer.addr;\r\n    }\r\n    \r\n    function getNotary() public view returns (address) {\r\n        return notary;\r\n    }\r\n    \r\n    function getRegistrar() public view returns (address) {\r\n        return property.landRegistry().registrar();\r\n    }\r\n    \r\n    function getSellerSummary() public view returns (address addr, uint debt, uint paid, bool contractValidation, bool hasSigned, bool signature) {\r\n        return (\r\n            seller.addr,\r\n            seller.debt,\r\n            (phase > Phases.Paying)? seller.debt: euroToken.allowance(seller.addr, this),\r\n            seller.contractValidation,\r\n            seller.hasSigned,\r\n            seller.signature\r\n        );\r\n    }\r\n\r\n    function getBuyerSummary() public view returns (address addr, uint debt, uint paid, bool contractValidation, bool hasSigned, bool signature) {\r\n        return (\r\n            buyer.addr,\r\n            buyer.debt,\r\n            (phase > Phases.Paying)? buyer.debt: euroToken.allowance(buyer.addr, this),\r\n            buyer.contractValidation,\r\n            buyer.hasSigned,\r\n            buyer.signature\r\n        );\r\n    }\r\n\r\n    function getContractSummary() public view returns (uint, bool, bool, bool) {\r\n        return(\r\n            uint(phase),\r\n            (bytes(contractHash).length > 0),\r\n            hasCalificated,\r\n            calification\r\n        );\r\n    }\r\n}",
  "sourcePath": "C:\\Users\\Elias\\Documents\\GitHub\\angular-tfg\\truffle\\contracts\\PurchaseContract.sol",
  "compiler": {
    "name": "solc",
    "version": "0.4.24+commit.e67f0147.Emscripten.clang"
  },
  "schemaVersion": "2.0.0",
  "updatedAt": "2018-06-08T18:31:14.802Z"
}